:020000040800F2
:10800000A80600208D9B0008959B0008979B000800
:10801000999B00089B9B00089D9B000800000000A6
:108020000000000000000000000000009F9B00080E
:10803000A19B000800000000A39B0008A59B00086E
:10804000A79B0008A79B0008A79B0008A79B000808
:10805000A79B0008A79B0008A79B0008A79B0008F8
:10806000A79B0008A79B0008A79B0008A79B0008E8
:10807000A79B0008A79B0008A79B0008A79B0008D8
:10808000A79B0008A79B0008A79B0008A79B0008C8
:10809000A79B0008A79B0008A79B0008A79B0008B8
:1080A000A79B0008A79B0008A79B0008A79B0008A8
:1080B000A79B0008A79B0008A79B0008A79B000898
:1080C000A79B0008A79B0008A79B0008A79B000888
:1080D000A79B0008A79B0008A79B0008A79B000878
:1080E000A79B0008A79B0008A79B0008A79B000868
:1080F000A79B0008A79B0008A79B000800000000A2
:10810000A79B000800000000A79B0008A79B000891
:10811000A79B0008A79B0008A79B0008A79B000837
:10812000A79B0008A79B0008A79B0008A79B000827
:10813000A79B0008A79B0008A79B0008A79B000817
:10814000A79B0008A79B0008A79B0008A79B000807
:1081500000F002F800F03AF80AA090E8000C82441F
:108160008344AAF10107DA4501D100F02FF8AFF2FC
:10817000090EBAE80F0013F0010F18BFFB1A43F005
:1081800001031847848D0000A48D0000103A24BF1D
:1081900078C878C1FAD8520724BF30C830C144BF6C
:1081A00004680C60704700000023002400250026AE
:1081B000103A28BF78C1FBD8520728BF30C148BF4A
:1081C0000B6070471FB51FBD10B510BD01F001FD5C
:1081D0001146FFF7F7FF00F03BFA01F01FFD03B473
:1081E000FFF7F2FF03BC01F023FD000008B54CF2DD
:1081F0003370ADF8000003208DF8020018208DF8D0
:1082000003006946234800F055FE4FF68070ADF834
:1082100000006946204800F04DFE8020ADF80000C7
:1082200069461C4800F046FE0420ADF8000069468F
:10823000194800F03FFE08BD00B597B00220079036
:1082400000200690052005900020049003900290E5
:10825000019001200890002014901390102012909B
:10826000002011900B9010900F900E904FF48050C2
:108270000D9000200C900A90099001A8159016907E
:1082800008A800F09AFA0121084600F008FC17B08F
:1082900000BD000000140140001801404FF0C04232
:1082A00010804FF0C2421180704701464FF0C24229
:1082B0001088704722204FF0C041088070474FF06F
:1082C000C2410880704700B501210020FFF7E6FF9A
:1082D0004AF6A4010320FFF7E1FF00210C20FFF77D
:1082E000DDFF40F60C010D20FFF7D8FF4FF42C51B5
:1082F0000E20FFF7D3FFB0211E20FFF7CFFF42F67D
:108300003F310120FFF7CAFF4FF4C0610220FFF7A1
:10831000C5FF00211020FFF7C1FF46F270011120B8
:10832000FFF7BCFF00210520FFF7B8FF0021062062
:10833000FFF7B4FF4EF61C711620FFF7AFFF0321C5
:108340001720FFF7ABFF40F233210720FFF7A6FF0E
:1083500000210B20FFF7A2FF00210F20FFF79EFF57
:1083600000214120FFF79AFF00214220FFF796FFEE
:1083700000214820FFF792FF40F23F114920FFF70C
:108380008DFF00214A20FFF789FF00214B20FFF7D6
:1083900085FF4FF46F414420FFF780FF0021452007
:1083A000FFF77CFF40F23F114620FFF777FF40F2D6
:1083B00007713020FFF772FF4FF401713120FFF792
:1083C0006DFF4FF401713220FFF768FF40F2025158
:1083D0003320FFF763FF40F207513420FFF75EFFC1
:1083E0004FF401713520FFF759FF4FF4017136202A
:1083F000FFF754FF40F202513720FFF74FFF40F2E2
:1084000002313A20FFF74AFF40F202313B20FFF7EA
:1084100045FF00212320FFF741FF00212420FFF723
:108420003DFF4FF400412520FFF738FF00214E208B
:10843000FFF734FF00214F20FFF730FF4CF250339D
:1084400001E0581E83B2002BFBDC00BD10B50346D3
:108450000C4619464E20FFF721FF21464F20FFF71B
:108460001DFF10BD30B50446002500210846FFF76A
:10847000EDFFFFF71FFF00BF03E04FF0C240048095
:108480006D1CB5F5963FF8D330BD70B506460C4669
:108490001546F02E02DCB4F5A07F00DD70BD21464C
:1084A0003046FFF7D3FFFFF705FF2846FFF707FF2A
:1084B00000BFF3E72DE9F04706460F469046994680
:1084C000DDF820A034463D4600BF06E0524629466E
:1084D0002046FFF7DAFF601C84B24445F6DB3D46D8
:1084E00006E0524629462046FFF7CFFF681C85B2BA
:1084F0004D45F6DB444606E0524629462046FFF746
:10850000C4FF601E84B2B442F6DC4D4606E052461B
:1085100029462046FFF7B9FF681E85B2BD42F6DC4A
:10852000BDE8F0872DE9F84F04460E4617469946F8
:10853000DDF828B02546B046381B401CA9EB0601E3
:10854000491C484300904FF0000A10E03BF8022B12
:1085500041462846FFF799FF681C85B2BD4204DDFD
:1085600008F101001FFA80F825460AF1010A009877
:108570008245EBD3BDE8F88F2DE9F04F06460F4654
:1085800090469946DDF824A000240025A346BAF1C0
:10859000010F21D100BF1CE0A8F1200004EB001066
:1085A000234911F800B000250FE0C5F107004BFA90
:1085B00000F010F0010F06D03A1991B2721990B282
:1085C0004A46FFF762FF681C85B2082DEDDB601C90
:1085D00084B2102CE0DB28E0002424E0A8F1200085
:1085E00004EB0010124911F800B0002517E0C5F1A6
:1085F00007004BFA00F010F0010F07D03A1991B2C2
:10860000721990B24A46FFF740FF06E03A1991B25C
:10861000721990B25246FFF738FF681C85B2082DD8
:10862000E5DB601C84B2102CD8DBBDE8F08F0000C5
:108630003E9C000810B50121202001F011F8012115
:10864000402001F00DF80121080200F0FCFF10BDF0
:1086500008B54FF40041080301F0FEF8FFF7EAFF08
:10866000FFF7EAFDFFF7C2FD0020FFF71EFE1A49E3
:108670000880FFF728FE4FF6FF70FFF7F3FE17485C
:10868000BA23C722642100902820FFF74BFF1F2048
:108690004FF49B73E6220A2100900846FFF70AFF79
:1086A00000240DE04FF6FF700D4900900A5DE100D7
:1086B000323188B21F23C821FFF75EFF601C84B2ED
:1086C000122CEFD300BFFEE7002101E04A1C91B25B
:1086D0008142FBDB704700001400002046A2000826
:1086E00000000020012806D002280FD0032818D04F
:1086F00004282CD120E043F2DB014FF0204211602E
:108700006FF070415160F84A116021E043F2D201EC
:108710004FF0204291606FF07041D160F34A1160D8
:1087200016E043F2D2014FF0204211616FF0704128
:108730005161EF4A11600BE043F2D2014FF0204249
:1087400091616FF07041D161EA4A116000E000BFB1
:1087500000BF704710280AD118214FF0204211663F
:10876000402151664FF0FC319166D16610E018212E
:10877000E14A11604FF040014FF02042C2F88410EE
:108780004FF0FC31DD4A11604FF02042C2F88C10EE
:1087900070471820DA4908604FF000004FF0204180
:1087A000C1F8A4004FF0FC30D649086001F1040183
:1087B000086001F104010860704730B50021002213
:1087C0000023D0E90B542C43856A2C43456A2C4383
:1087D000056A2C43C5692C4385692C4345692C43A4
:1087E00005692C4385682C43C5682C43456844EAD9
:1087F0000501446BA469456B6D6944EA0514456B3A
:108800002D6944EA0524456BAD8944EA0544456B6E
:108810002D8944EA0554456B2D7944EA0564456B7E
:108820002D6844EA0502C46A082C01D141F04001D8
:108830008468B4F5804F16D1846BA469856B6D692B
:1088400044EA0514856B2D6944EA0524856B2D895E
:1088500044EA0554856B2D7944EA0564856B2D68DF
:1088600044EA050301E06FF070430468012C06D070
:10887000022C0BD0032C10D0042C1CD114E04FF090
:10888000204421606260984C236015E04FF0204442
:10889000A160E260954C23600EE04FF0204421611E
:1088A0006261934C236007E04FF02044A161E261D4
:1088B000904C236000E000BF00BF30BD30B5002108
:1088C00000220023846944F0080445692C430569AB
:1088D0002C4345682C43C56844EA4524856844EA2E
:1088E0004531C469E468C569AD6844EA0524C569D1
:1088F000AD8844EA0544C5692D7844EA0562046AF6
:10890000E468056AAD6844EA0524056AAD8844EA6E
:108910000544056A2D7844EA05630468102C05D1E6
:108920004FF020442166A266E36607E0724C2160A6
:108930004FF02044C4F88820734C236030BD816818
:1089400041F01001426841EA4221026841EA4231A5
:108950006B4A1160C168C968C268926841EA022125
:10896000C268928841EA0241C268127841EA026113
:10897000644A11600169C9680269926841EA02218A
:108980000269928841EA02410269127841EA026171
:108990005E4A11604169C9684269926841EA0221F0
:1089A0004269928841EA02414269127841EA0261D1
:1089B0004FF02042C2F8B01070470121016002213F
:1089C00001630021C162816241620162C161816112
:1089D0004FF4805141614900016100218160C16013
:1089E00041600F21426B9161426B5161FF21426BEB
:1089F00011610F21426BD160426B9160426B5160FB
:108A00000021426B11600F21826B9161826B516179
:108A1000FF21826B11610F21826BD160826B9160AB
:108A2000826B51600021826B1160704710210160E0
:108A300000218161416101614160C1608160FC216F
:108A4000C269D160C2699160C2695160C269116036
:108A5000026AD160026A9160026A5160026A116022
:108A600070470021816041600160FC21C268D160D3
:108A7000C2689160C2685160C26811600269D160C9
:108A80000269916002695160026911604269D160B6
:108A90004269916042695160426911607047B9B39F
:108AA000012806D002280DD0032814D0042839D17B
:108AB0002FE04FF02042126842F001024FF02043B5
:108AC0001A6030E04FF02042926842F001024FF00D
:108AD00020439A6027E04FF02042126942F00102E1
:108AE0004FF020431A611EE0040100A00C0100A019
:108AF000140100A01C0100A0800000A0880000A0BC
:108B0000A00000A0A80000A08C0000A0AC0000A065
:108B10000AE04FF02042926942F001024FF02043F8
:108B20009A6100E000BF2EE0012806D002280DD097
:108B3000032814D0042824D11AE04FF020421268F0
:108B4000A44B1A404FF020431A601BE04FF0204224
:108B50009268A04B1A404FF020439A6012E04FF009
:108B6000204212699B4B1A404FF020431A6109E0E2
:108B70004FF020429269974B1A404FF020439A6180
:108B800000E000BF00BF704799B1102808D14FF036
:108B90002042126E42F004024FF020431A661DE09C
:108BA0008D4A126842F004024FF02043C3F880203F
:108BB00014E0102809D14FF02042126E854BDB1EC5
:108BC0001A404FF020431A6608E0834A1268834B2C
:108BD00002EA03024FF02043C3F88020704740B1FF
:108BE0007F49096841F004014FF02042C2F8A0100B
:108BF00008E07B490968794A01EA02014FF0204206
:108C0000C2F8A010704799B1102808D14FF0204247
:108C1000126E42F040024FF020431A661DE06E4A89
:108C2000126842F040024FF02043C3F8802014E065
:108C3000102809D14FF02042126E684B3C3B1A407D
:108C40004FF020431A6608E0634A1268654B02EA57
:108C500003024FF02043C3F88020704701461029DB
:108C600003D14FF02040406F70475F480068FBE73A
:108C700010B5F2B1102807D14FF020435B6E0B43C3
:108C80004FF02044636632E0B0F5807F08D1574B47
:108C90001B6843EA01034FF02044C4F8843026E007
:108CA000534B1B6843EA01034FF02044C4F8A4303F
:108CB0001DE0102807D14FF020435B6E8B434FF02F
:108CC0002044636613E0B0F5807F08D1474B1B68F2
:108CD00023EA01034FF02044C4F8843007E0444BFA
:108CE0001B6823EA01034FF02044C4F8A43010BDF0
:108CF00002460023102A03D14FF02040436E07E0C4
:108D0000B2F5807F02D13948036801E03848036832
:108D10000B4201D0012070470020FCE7102807D14A
:108D20004FF02042526E8A434FF020435A6613E0C0
:108D3000B0F5807F08D12D4A126822EA01024FF077
:108D40002043C3F8842007E0294A126822EA01027E
:108D50004FF02043C3F8A420704730B502460023EB
:108D600000240025102A03D14FF02040436E07E075
:108D7000B2F5807F02D11D48036801E01C480368FA
:108D800003EA010403EAD10514B10DB1012030BD9D
:108D90000020FCE7102808D14FF02042526E22EA52
:108DA000D1024FF020435A6613E0B0F5807F08D11E
:108DB0000E4A126822EAD1024FF02043C3F8842001
:108DC00007E00B4A126822EAD1024FF02043C3F8B1
:108DD000A4207047FEFF0F00800000A0FBFF0F00E3
:108DE000A00000A0BFFF0F00940000A0840000A01E
:108DF000A40000A010B50446E748844208D1012130
:108E0000042000F054FC0021042000F050FC46E057
:108E1000E248844208D10121082000F048FC0021EA
:108E2000082000F044FC3AE0DD48844208D10121EA
:108E3000102000F03CFC0021102000F038FC2EE057
:108E4000D848844208D10121202000F030FC0021C4
:108E5000202000F02CFC22E0D348844208D10121DC
:108E6000402000F024FC0021402000F020FC16E00F
:108E7000CE48844208D10121802000F018FC002156
:108E8000802000F014FC0AE0C948844207D1012187
:108E9000801500F00CFC0021A01500F008FC10BDAE
:108EA00010B50121084600F002FC0021012000F06D
:108EB000FEFB10BD2DE9F0410246002500260020F2
:108EC00000230024002791F803C00CF00F0591F84F
:108ED00003C01CF0100F03D091F802C04CEA050546
:108EE00091F800C0BCF1000F31D0146800202BE0D5
:108EF0004FF0010C0CFA00F3B1F800C00CEA0306C5
:108F00009E4220D183004FF00F0C0CFA03F7BC43B4
:108F100005FA03FC4CEA040491F803C0BCF1280FE5
:108F200006D14FF0010C0CFA00FCC2F814C00AE0A4
:108F300091F803C0BCF1480F05D14FF0010C0CFAB9
:108F400000FCC2F810C0401C0828D1D31460B1F84E
:108F500000C0BCF1FF0F34D9546800202EE000F1AE
:108F6000080C4FF0010808FA0CF3B1F800C00CEA45
:108F700003069E4221D183004FF00F0C0CFA03F739
:108F8000BC4305FA03FC4CEA040491F803C0BCF1AD
:108F9000280F05D100F1080C08FA0CF8C2F814806B
:108FA00091F803C0BCF1480F07D100F1080C4FF055
:108FB000010808FA0CF8C2F81080401C0828CED32B
:108FC0005460BDE8F0814FF6FF710180022181708D
:108FD0000421C17070470246002093680B4201D003
:108FE000012000E0002070470146886880B2704789
:108FF00002460020D3680B4201D0012000E000208F
:1090000070470146C86880B270470161704741618E
:1090100070470AB1016100E041617047C16070476B
:109020004FF480320A438261816182618269826980
:109030007047024600205F4B18684FF68073184057
:1090400040EA021008435B4B1860704731B1594A3F
:10905000126842F08002574B1A6005E0554A1268C8
:1090600022F08002534B1A607047F0B50A46002385
:1090700000240021002500F00046B6F1004F02D187
:109080004C4EF16901E04B4E7168C0F3034583B269
:1090900000F44016B6F5401F08D121F07061454E2E
:1090A000766826F07066434F7E6012E000F480160A
:1090B000B6F5801F06D1032606FA05F4A14341F058
:1090C000706106E0460D360103FA06F6B14341F041
:1090D000706122B1460D360103FA06F6314300F005
:1090E0000046B6F1004F02D1324EF16101E0314E3F
:1090F0007160F0BD10B500228B071C0F0F2303FA1F
:1091000004F204290EDA2B4B9B689343294CA3608D
:1091100023469B688C07240F00FA04F42343254C54
:10912000A3602FE008290EDA224BDB689343214C21
:10913000E3602346DB688C07240F00FA04F4234322
:109140001C4CE3601EE00C290EDA1A4B1B6993439A
:10915000184C236123461B698C07240F00FA04F482
:109160002343144C23610DE0124B5B699343114C74
:10917000636123465B698C07240F00FA04F42343E0
:109180000C4C636110BD014600200A4A506820F46F
:10919000000008435060704700080140000C014087
:1091A000001001400014014000180140001C014063
:1091B0000020014000000140FE48006840F001002E
:1091C000FC49086008464068FB490840F949486086
:1091D00008460068F9490840F649086008460068F2
:1091E00020F48020086008464068F5490840F149AD
:1091F00048600846006820F0A05008600020C8625F
:109200004FF47F0088607047EA49096821F4A02183
:10921000E84A116011460968014311607047014630
:10922000002200234A11012A02D1E248036806E025
:10923000022A02D1DF48036A01E0DE48436A01F0F6
:109240001F0201209040184201D0012070470020E9
:10925000FCE718B500200090002406E03120FFF75D
:10926000DEFF04460098401C00900098A0F57F4166
:10927000FF3901D0002CF1D03120FFF7D0FF08B129
:10928000012018BD0020FCE701460020C94A1068F3
:1092900020F0F80040EAC1001060704730B1C549C5
:1092A000096841F00101C34A116005E0C14909683C
:1092B00021F00101BF4A1160704702460020BD4BFA
:1092C0005868C04B184042EA01031843B94B586034
:1092D000704730B1B749096841F08071B54A1160F3
:1092E00005E0B449096821F08071B24A1160704705
:1092F00002460020AF4BD86AB34B184041EA020344
:109300001843AC4BD862704701460020A94AD06A86
:1093100020F0F0000843D062704701460020A54AC3
:10932000D06A20F470600843D062704730B1A14920
:10933000096841F080619F4A116005E09D49096814
:1093400021F080619B4A1160704701460020994AD4
:10935000D06A20F470400843D062704730B195491C
:10936000096841F08051934A116005E0914909680C
:1093700021F080518F4A11607047014600208D4ACC
:10938000506820F0030008435060704789484068E7
:1093900000F00C00704701460020864A506820F01B
:1093A000F00008435060704701460020814A506831
:1093B00020F4E060084350607047014600207D4A79
:1093C000506820F4605008435060704779494968FC
:1093D00021F44001774A51601146496801435160C8
:1093E000704774494968794A1140724A5160114680
:1093F00049680143516070476E49C96A21F40031E0
:109400006C4AD1621146C96A0143D1627047694909
:10941000C96A21F48021674AD1621146C96A0143B1
:10942000D16270476349096A21F00101614A116202
:109430001146096A21F0040111621146096A0143CB
:109440001162704730B15B49496A41F00101594AE4
:10945000516205E05749496A21F00101554A5162BC
:1094600070475449096A21F44071524A1162114609
:10947000096A01431162704730B14E49096A41F4EB
:1094800000414C4A116205E04A49096A21F4004151
:10949000484A116270472DE9F0470021002200265A
:1094A0008C4600258846002789460024414B5B688E
:1094B00003F00C0121B1042905D008294DD105E0A4
:1094C000434B03604CE0434B036049E0394B5B681E
:1094D00003F47012374B5B6803F00056730FC3EB55
:1094E000031606EB92420D2A01D0921C00E00622E0
:1094F000304B5B6803F4803CBCF1000F03D1364B6A
:109500005343036028E02B4BDB6A03F48038294B7C
:10951000DB6A03F00F035F1CB8F1000F05D12D4B80
:10952000B3FBF7F35343036016E0224BDB6AC3F34C
:10953000031303F101091F4BDB6AC3F303240F2C50
:1095400001D0A41C00E0641D224BB3FBF9F363437C
:10955000B3FBF7F35343036002E01D4B036000BF0E
:1095600000BF144B5B6803F0F00109091B4B5D5C05
:109570000368EB4043600F4B5B6803F4E061090A4A
:10958000174B5D5C4368EB4083600A4B5B6803F4F8
:109590006051C90A124B5D5C4368EB40C360054BE8
:1095A0005B6803F08053990E024B5B68C3F3813311
:1095B000194417E0001002400000FFE0FFFFF6FE34
:1095C000FFFF00DFFFFFC2DFF0FFFEFFFF3FFFEF07
:1095D00000127A0040787D0100093D00160000204D
:1095E0002600002008292BD2DFE801F004080C1324
:1095F000171B2226C3685B08036121E0C3689B0830
:1096000003611DE04FF0060AC368B3FBFAF3036180
:1096100016E0C368DB08036112E0C3685B080361FE
:109620000EE04FF00C0AC368B3FBFAF3036107E0E6
:10963000C368DB08036103E0C3681B09036100BF63
:1096400000BFBDE8F08729B14F4A526902434E4B33
:109650005A6104E04C4A526982434B4B5A6170474D
:1096600029B1494A92690243474B9A6104E0464A4C
:1096700092698243444B9A61704729B1424AD26948
:109680000243414BDA6104E03F4AD26982433E4BD8
:10969000DA61704729B13C4A926A02433A4B9A62B6
:1096A00004E0394A926A8243374B9A62704729B183
:1096B000354AD2680243344BDA6004E0324AD26859
:1096C0008243314BDA60704729B12F4A1269024355
:1096D0002D4B1A6104E02C4A126982432A4B1A610D
:1096E000704730B12849096A41F48031264A116235
:1096F00005E02549096A21F48031234A1162704747
:1097000030B12149096841F400211F4A116005E088
:109710001D49096821F400211B4A11607047014668
:109720000020194A506820F070600843506070476C
:1097300029B1154A527A0243134B5A7204E0124A75
:10974000527A8243104B5A7270470F48406A40F079
:1097500080700D494862704701460B488068084296
:1097600001D0012070470020FCE70749887270474C
:109770000549496B21F00301034A51631146496BC6
:109780000143516370470000001002404849014303
:10979000484A1160704770B5002100220023C47848
:1097A000002C4ED0434C246804F4E064B4F5E06F20
:1097B00002D100BF042326E03E4C246804F4E06498
:1097C000B4F5C06F02D1012203231CE0394C246898
:1097D00004F4E064B4F5A06F02D10222022312E087
:1097E000344C246804F4E064B4F5806F02D10322A1
:1097F000012308E02F4C246804F4E064B4F5407FB2
:1098000001D1042200234478C2F1040504FA05F1D1
:109810008478C3F104060F2535412C40214309010A
:10982000254C0678A155047804F01F050124AC40AE
:1098300005786D114FF0E02606EB8505C5F800416F
:1098400009E0047804F01F050124AC401B4D0678A4
:10985000761145F8264070BD194A0A400243154B5F
:109860001B1F1A60704739B1124A121D1268024359
:10987000104B1B1D1A6006E00E4A121D126882432F
:109880000C4B1B1D1A607047042808D14FF0E021D3
:10989000096941F004014FF0E022116107E04FF047
:1098A000E021096921F004014FF0E02211617047C5
:1098B0000000FA050CED00E000E400E080E100E0CB
:1098C00080FFFF1F0CB5002001900090A3480068A6
:1098D00040F48030A149086000BFA048006800F44F
:1098E000003000900198401C0190009820B9019828
:1098F000A0F57F41FF39F0D19848006810F4003F8F
:1099000002D00120009001E0002000900098012882
:109910004BD1924840689149486008464068486089
:109920000846406840F480604860084640688C49BA
:1099300008408A4948600846406840F4E81048609A
:109940000846C06A874908408449C8620846C06A18
:10995000854908438149C8620846006840F0806034
:10996000086000BF7D48006810F0006FFAD07B48A7
:10997000006840F080707949086000BF774800684F
:1099800010F0007FFAD07548406820F0030073495A
:1099900048600846406840F00200486000BF6F48D9
:1099A000406800F00C000828F9D10CBD10B5FFF795
:1099B00089FF10BD10B56948006840F00100674993
:1099C000086008464068694908406449486008469C
:1099D000006867490840614908600846006820F44B
:1099E0008020086008464068624908405B4948603A
:1099F0000846006820F0A05008600020C8624FF4BC
:109A00007F008860FFF7D2FF10BD2DE9F0430022F0
:109A10000020002300250026002700248446002182
:109A2000DFF83881D8F8048008F00C0222B1042A4B
:109A300009D0082A72D10DE0DFF83C81DFF83C91B3
:109A4000C9F8008071E0DFF83881DFF83091C9F89B
:109A500000806AE0DFF80481D8F8048008F4701010
:109A6000DFF8F880D8F8048008F000534FEA537804
:109A7000C8EB081303EB90400D2801D0801C00E0D8
:109A80000620DFF8D880D8F8048008F4803545B97E
:109A9000DFF8F08000FB08F8DFF8E090C9F80080FC
:109AA0003AE0DFF8B880D8F82C8008F48037DFF887
:109AB000AC80D8F82C8008F00F0808F1010457B9E1
:109AC000DFF8BC80B8FBF4F808FB00F8DFF8AC90D6
:109AD000C9F8008020E0DFF88480D8F82C80C8F333
:109AE000031808F1010CDFF87480D8F82C80C8F353
:109AF00003210F2901D0891C00E0491DDFF8808077
:109B0000B8FBFCF808FB01F8B8FBF4F808FB00F818
:109B1000DFF86890C9F8008007E0FFE7DFF85880B9
:109B2000DFF85890C9F8008000BF00BFDFF82C8034
:109B3000D8F8048008F0F0021209DFF84C8018F819
:109B40000260DFF83880D8F8008028FA06F8DFF8DD
:109B50002C90C9F80080BDE8F0830000001002409E
:109B6000FFFFC0DF00F0FEFF440A01000000FFE03D
:109B7000FFFFF6FEFFFF00DF00127A00300000203A
:109B800040787D0100093D003400002009488047ED
:109B900009480047FEE7FEE7FEE7FEE7FEE7FEE7CF
:109BA000FEE7FEE7FEE7FEE704480549054A064BE7
:109BB00070470000B599000851810008A8000020F6
:109BC000A8060020A8020020A802002070477047C5
:109BD0007047754600F028F8AE46050069465346C2
:109BE00020F00700854618B020B5FFF7DDFFBDE87F
:109BF00020404FF000064FF000074FF000084FF0F4
:109C0000000B21F00701AC46ACE8C009ACE8C00984
:109C1000ACE8C009ACE8C0098D4670470446AFF314
:109C200000802046FEF7DBFA004870474400002021
:109C300001491820ABBEFEE7260002007047000075
:109C40000000000000000000000000000000000014
:109C5000183C3C3C1818180018180000000000665A
:109C60006666240000000000000000000000000004
:109C7000006C6CFE6C6C6CFE6C6C000000001818C4
:109C80007CC6C2C07C0686C67C1818000000000096
:109C90000000C2C60C183060C6860000000000003C
:109CA000386C6C3876DCCCCCCC7600000000003010
:109CB00030306000000000000000000000000000E4
:109CC0000C18303030303030180C0000000000002C
:109CD00030180C0C0C0C0C0C1830000000000000AC
:109CE000000000663CFF3C66000000000000000031
:109CF00000000018187E1818000000000000000086
:109D000000000000000000181818300000000000DB
:109D10000000000000FE0000000000000000000045
:109D20000000000000000000181800000000000003
:109D3000000002060C183060C08000000000000027
:109D40007CC6C6CED6D6E6C6C67C000000000000A3
:109D50001838781818181818187E0000000000002D
:109D60007CC6060C183060C0C6FE00000000000073
:109D70007CC606063C060606C67C00000000000005
:109D80000C1C3C6CCCFE0C0C0C1E000000000000F7
:109D9000FEC0C0C0FC0E0606C67C0000000000002D
:109DA0003860C0C0FCC6C6C6C67C0000000000000B
:109DB000FEC606060C1830303030000000000000EF
:109DC0007CC6C6C67CC6C6C6C67C000000000000B5
:109DD0007CC6C6C67E0606060C78000000000000A1
:109DE0000000181800000018180000000000000013
:109DF00000001818000000181830000000000000D3
:109E000000060C18306030180C060000000000003E
:109E100000000000FE0000FE000000000000000046
:109E2000006030180C060C183060000000000000C4
:109E30007CC6C60C18181800181800000000000096
:109E4000007CC6C6DEDEDEDCC07C00000000000058
:109E500010386CC6C6FEC6C6C6C6000000000000AC
:109E6000FC6666667C66666666FC000000000000B4
:109E70003C66C2C0C0C0C0C2663C0000000000001A
:109E8000F86C6666666666666CF8000000000000A6
:109E9000FE6662687868606266FE0000000000008E
:109EA000FE6662687868606060F000000000000094
:109EB0003C66C2C0C0DEC6C6663A000000000000B4
:109EC000C6C6C6C6FEC6C6C6C6C60000000000009E
:109ED0003C18181818181818183C0000000000004A
:109EE0001E0C0C0C0C0CCCCCCC780000000000003C
:109EF000E6666C6C78786C6666E600000000000030
:109F0000F06060606060606266FE0000000000005B
:109F1000C6EEFEFED6C6C6C6C6C6000000000000DD
:109F2000C6E6F6FEDECEC6C6C6C6000000000000CD
:109F3000386CC6C6C6C6C6C66C3800000000000035
:109F4000FC6666667C60606060F0000000000000F7
:109F50007CC6C6C6C6C6C6D6DE7C0C0E0000000097
:109F6000FC6666667C6C666666E6000000000000C3
:109F70007CC6C660380C06C6C67C00000000000027
:109F80007E7E5A1818181818183C000000000000AF
:109F9000C6C6C6C6C6C6C6C6C67C0000000000004F
:109FA000C6C6C6C6C6C6C66C381000000000000093
:109FB000C6C6C6C6C6D6D6FE6C6C00000000000041
:109FC000C6C66C6C38386C6CC6C600000000000059
:109FD000666666663C181818183C00000000000011
:109FE000FEC6860C183060C2C6FE000000000000ED
:109FF0003C30303030303030303C00000000000069
:10A000000080C0E070381C0E060200000000000056
:10A010003C0C0C0C0C0C0C0C0C3C00000000103820
:10A020006CC60000000000000000000000000000FE
:10A030000000000000000000000000FF00003030C1
:10A0400018000000000000000000000000000000F8
:10A05000000000780C7CCCCCCC7600000000000026
:10A06000E06060786C66666666DC000000000000F8
:10A070000000007CC6C0C0C0C67C0000000000001C
:10A080001C0C0C3C6CCCCCCCCC760000000000004E
:10A090000000007CC6FEC0C0C67C000000000000BE
:10A0A000386C6460F060606060F0000000000000E8
:10A0B00000000076CCCCCCCCCC7C0CCC7800000062
:10A0C000E060606C7666666666E600000000000090
:10A0D0001818003818181818183C00000000000064
:10A0E0000606000E06060606060666663C0000002A
:10A0F000E06060666C78786C66E600000000000046
:10A100003818181818181818183C0000000000001B
:10A11000000000ECFED6D6D6D6D600000000000027
:10A12000000000DC666666666666000000000000EF
:10A130000000007CC6C6C6C6C67C00000000000049
:10A14000000000DC66666666667C6060F000000009
:10A1500000000076CCCCCCCCCC7C0C0C1E000000DB
:10A16000000000DC7662606060F00000000000002B
:10A170000000007CC660380CC67C000000000000B7
:10A18000103030FC30303030361C00000000000051
:10A19000000000CCCCCCCCCCCC7600000000000081
:10A1A00000000066666666663C180000000000005D
:10A1B000000000C6C6C6D6D6FE6C00000000000037
:10A1C000000000C66C3838386CC600000000000083
:10A1D000000000C6C6C6C6C6C67E060CF800000053
:10A1E000000000FECC183060C6FE00000000000039
:10A1F0000E18181870181818180E0000000000002B
:10A200001818181800181818181800000000000076
:10A21000701818180E1818181870000000000000A8
:10A2200076DC0000000000000000000000000000DC
:10A23000000010386CC6C6C6FE000000000000100A
:10A24000A0005700011BFFFFFFFFFFFFFFFFFFFF05
:10A25000FFFFFFFFFFFFFFFFFFFFFFFFFFFFFFFF0E
:10A26000FFFFFFFFFFFFFFFFFFFFFFFFFFFFFFFFFE
:10A27000FFFFFFFFFFFFFFFFFFFFFFFFFFFFFFFFEE
:10A28000FFFFFFFFFFFFFFFFFFFFFFFFFFFFFFFFDE
:10A29000FFFFFFFFFFFFFFFFFFFFFFFFFFFFFFFFCE
:10A2A000FFFFFFFFFFFFFFFFFFFFFFFFFFFFFFFFBE
:10A2B000FFFFFFFFFFFFFFFFFFFFFFFFFFFFFFFFAE
:10A2C000FFFFFFFFFFFFFFFFFFFFFFFFFFFFFFFF9E
:10A2D000FFFFFFFFFFFFFFFFFFFFFFFFFFFFFFFF8E
:10A2E000FFFFFFFFFFFFFFFFFFFFFFFFFFFFFFFF7E
:10A2F000FFFFFFFFFFFFFFFFFFFFFFFFFFFFFFFF6E
:10A30000FFFFFFFFFFFFFFFFFFFFFFFFFFFFFFFF5D
:10A31000FFFFFFFFFFFFFFFFFFFFFFFFFFFFFFFF4D
:10A32000FFFFFFFFFFFFFFFFFFFFFFFFFFFFFFFF3D
:10A33000FFFFFFFFFFFFFFFFFFFFFFFFFFFFFFFF2D
:10A34000FFFFFFFFFFFFFFFFFFFFFFFFFFFFFFFF1D
:10A35000FFFFFFFFFFFFFFFFFFFFFFFFFFFFFFFF0D
:10A36000FFFFFFFFFFFFFFFFFFFFFFFFFFFFFFFFFD
:10A37000FFFFFFFFFFFFFFFFFFFFFFFFFFFFFFFFED
:10A38000FFFFFFFFFFFFFFFFFFFFFFFFFFFFFFFFDD
:10A39000FFFFFFFFFFFFFFFFFFFFFFFFFFFFFFFFCD
:10A3A000FFFFFFFFFFFFFFFFFFFFFFFFFFFFFFFFBD
:10A3B000FFFFFFFFFFFFFFFFFFFFFFFFFFFFFFFFAD
:10A3C000FFFFFFFFFFFFFFFFFFFFFFFFFFFFFFFF9D
:10A3D000FFFFFFFFFFFFFFFFFFFFFFFFFFFFFFFF8D
:10A3E000FFFFFFFFFFFFFFFFFFFFFFFFFFFFFFFF7D
:10A3F000FFFFFFFFFFFFFFFFFFFFFFFFFFFFFFFF6D
:10A40000FFFFFFFFFFFFFFFFFFFFFFFFFFFFFFFF5C
:10A41000FFFFFFFFFFFFFFFFFFFFFFFFFFFFFFFF4C
:10A42000FFFFFFFFFFFFFFFFFFFFFFFFFEFFFEFF3E
:10A43000FEFFFEFFFEFFFEFFFEFFFEFFFFFFFFFF32
:10A44000FFFFFFFFFFFFFFFFFFFFFFFFFFFFFFFF1C
:10A45000FFFFFFFFFFFFFFFFFFFFFFFFFFFFFFFF0C
:10A46000FFFFFFFFFFFFFFFFFFFFFFFFFFFFFFFFFC
:10A47000FFFFFFFFFFFFFFFFFFFFFFFFFFFFFFFFEC
:10A69000FFFFFFFFFFFFFFFFFFFFFEFFFEFFFEFFCD
:10A6A000FFFFFFFFFEFFFFFFFEFFDFFFDFFFDFFF1C
:10A6B000FFFFFFFFDFFFFFFFDFFFDFFFFFFFFFFF0A
:10A6C000DEFFDEFFFFFFDEFFFEFFFFFFFFFFFEFFFF
:10A6D000FEFFFEFFFEFFFEFFFEFFFEFFFEFFFEFF92
:10A6E000FEFFFEFFFEFFFFFFFEFFFEFFFFFFFFFF7F
:10A6F000FFFFDFFFFFFFFFFFFFFFFFFFFFFFFFFF8A
:10A70000FFFFFFFFFFFFFFFFFFFFFFFFFFFFFFFF59
:10A71000FFFFFFFFFFFFFFFFFFFFFFFFFFFFFFFF49
:10A72000FFFFFFFFFFFFFFFFFFFFFFFFFFFFFFFF39
:10A73000FFFFFFFFFFFFFFFFFFFFFFFFFFFFFFFF29
:10A74000FFFFFFFFFFFFFFFFFFFFFFFFFFFFFFFF19
:10A75000FFFFFFFFFFFFFFFFFFFFFFFFFFFFFFFF09
:10A76000FFFFFFFFFFFFFFFFFFFFFFFFFFFFFFFFF9
:10A77000FFFFFFFFFFFFFFFFFFFFFFFFFFFFFFFFE9
:10A78000FFFFFFFFFFFFFFFFFFFFFFFFFFFFFFFFD9
:10A79000FFFFFFFFFFFFFFFFFFFFFFFFFFFFFFFFC9
:10A7A000FFFFFFFFFFFFFFFFFFFFFFFFFFFFFFFFB9
:10A7B000FFFFFFFFFFFFFFFFFFFFFFFFFFFFFFFFA9
:10A7C000FFFFFFFFFFFFFFFFFFFFFFFFFFFFFFFF99
:10A7D000FFFFFFFFFFFFFFFFFFFFFEFFFEFFFFFF8B
:10A7E000FFFFFFFFFFFFFFFFDFFFFEFFFEFFFEFF9C
:10A7F000FEFFFEFFFEFFFEFFFDFFFEFFFEFFFEFF72
:10A80000FEFFFEFFFEFFFEFFFEFFFEFFFEFFFDFF61
:10A81000FDFFFDFFFDFFFDFFFDFFFDFFFDFFFDFF58
:10A82000DFFFFFFFFFFFFFFFFFFFFFFFFFFFFFFF58
:10A83000FFFFFFFFFFFFFFFFFFFFFFFFFFFFFFFF28
:10A84000FFFFFFFFFFFFFFFFFFFFFFFFFFFFFFFF18
:10A85000FFFFFFFFFFFFFFFFFFFFFFFFFFFFFFFF08
:10A86000FFFFFFFFFFFFFFFFFFFFFFFFFFFFFFFFF8
:10A87000FFFFFFFFFFFFFFFFFFFFFFFFFFFFFFFFE8
:10A88000FFFFFFFFFFFFFFFFFFFFFFFFFFFFFFFFD8
:10A89000FFFFFFFFFFFFFFFFFFFFFFFFFFFFFFFFC8
:10A8A000FFFFFFFFFFFFFFFFFFFFFFFFFFFFFFFFB8
:10A8B000FFFFFFFFFFFFFFFFFFFFFFFFFFFFFFFFA8
:10A8C000FFFFFFFFFFFFFFFFFFFFFFFFFFFFFFFF98
:10A8D000FFFFFFFFFFFFFFFFFFFFFFFFFFFFFFFF88
:10A8E000FFFFFFFFFFFFFFFFFFFFFFFFFFFFFFFF78
:10A8F000FFFFFFFFFFFFFFFFFFFFFFFFFFFFFFFF68
:10A90000FFFFFFFFFFFFFFFFFFFFFFFFFFFFFFFF57
:10A91000FFFFFFFFFFFFFFFFFFFFFFFFFFFFDFF76F
:10A92000DFF7DFF7FFFFDFF7FFFFFFF7FEF7FEF7C9
:10A93000FEF7FFF7FEF7FEF7FFFFDEEF5EE77FE7CC
:10A940007FE75EE75EDF5EE75FE77FE75FE77EE783
:10A950009EE7FFF7FFF7FFF7FFF7FFF7FFF7FFF7B8
:10A96000DFF7FFFFDFF7DFF7FFF7DFF7FFFFFFFF9F
:10A97000DFF7FFFFFFFFFFFFFFFFFFFFFFFFFFFF0F
:10A98000FFFFFFFFFFFFFFFFFFFFFFFFFFFFFFFFD7
:10A99000FFFFFFFFFFFFFFFFFFFFFFFFFFFFFFFFC7
:10A9A000FFFFFFFFFFFFFFFFFFFFFFFFFFFFFFFFB7
:10A9B000FFFFFFFFFFFFFFFFFFFFFFFFFFFFFFFFA7
:10A9C000FFFFFFFFFFFFFFFFFFFFFFFFFFFFFFFF97
:10A9D000FFFFFFFFFFFFFFFFFFFFFFFFFFFFFFFF87
:10A9E000FFFFFFFFFFFFFFFFFFFFFFFFFFFFFFFF77
:10A9F000FFFFFFFFFFFFFFFFFFFFFFFFFFFFFFFF67
:10AA0000FFFFFFFFFFFFFFFFFFFFFFFFFFFFFFFF56
:10AA1000FFFFFFFFFFFFFFFFFFFFFFFFFFFFFFFF46
:10AA2000FFFFFFFFFFFFFFFFFFFFFFFFFFFFFFFF36
:10AA3000FFFFFFFFFFFFFFFFFFFFFFFFFFFFFFFF26
:10AA4000FFFFFFFFFFFFFFFFFFFFFFFFFFFFFFFF16
:10AA5000FFFFFFFFFFFFFFFFFFFF9EEF5DE71CDF34
:10AA6000BBCE9BCE5BC699AD58A5B78C377CF67331
:10AA7000F673F673F673D56BB56B9463335B335B28
:10AA80001253F2521353535B13531353335B11534B
:10AA9000525BB363B363B363B363B363F46B1574B3
:10AAA000B794189D38A51BBE7BCEBBD6DBD61CDF6A
:10AAB0007DEFBEF7FFFFFFFFFFFFFFFFFFFFFFFF81
:10AAC000FFFFFFFFFFFFFFFFFFFFFFFFFFFFFFFF96
:10AAD000FFFFFFFFFFFFFFFFFFFFFFFFFFFFFFFF86
:10AAE000FFFFFFFFFFFFFFFFFFFFFFFFFFFFFFFF76
:10AAF000FFFFFFFFFFFFFFFFFFFFFFFFFFFFFFFF66
:10AB0000FFFFFFFFFFFFFFFFFFFFFFFFFFFFFFFF55
:10AB1000FFFFFFFFFFFFFFFFFFFFFFFFFFFFFFFF45
:10AB2000FFFFFFFFFFFFFFFFFFFFFFFFFFFFFFFF35
:10AB3000FFFFFFFFFFFFFFFFFFFFFFFFFFFFFFFF25
:10AB4000FFFFFFFFFFFFFFFFFFFFFFFFFFFFFFFF15
:10AB5000FFFFFFFFFFFFFFFFFFFFFFFFFFFFFFFF05
:10AB6000FFFFFEFFFFFFFFFFFFFFFFFFFFFFFFFFF6
:10AB7000FFFFFFFFFFFFDDFFFEFFFEFFFEFFFEFF0B
:10AB8000FEFFDDF7FEF7FEF7FFF7DFEFBEE77EDF44
:10AB90005EDF3CB618951674B463765B55539563C7
:10ABA000B5631674167415743574D373B273926BDF
:10ABB000716BF27B127C127C327C738497ADD7B5BB
:10ABC000D7B5D8B5F8B519BEF8B59ACE5DE77DEF23
:10ABD0007DEF7DEF7DEF7DEF1CE738C6F7BDF7BD5C
:10ABE000D8B5D9B556A55384F27BD173B16B916BAF
:10ABF000EE5A2F63D273B59499AD5CC63EE73EE73B
:10AC0000BFF7BFF7BFF7BFFFBFF7DFFFDFFFFFFFF4
:10AC1000FFFFFFFFFFFFFFFFFFFFFFFFFFFFFFFF44
:10AC2000FFFFFFFFFFFFFFFFFFFFFFFFFFFFFFFF34
:10AC3000FFFFFFFFFFFFFFFFFFFFFFFFFFFFFFFF24
:10AC4000FFFFFFFFFFFFFFFFFFFFFFFFFFFFFFFF14
:10AC5000FFFFFFFFFFFFFFFFFFFFFFFFFFFFFFFF04
:10AC6000FFFFFFFFFFFFFFFFFFFFFFFFFFFFFFFFF4
:10AC7000FFFFFFFFFFFFFFFFFFFFFFFFFFFFFFFFE4
:10AC8000FFFFFFFFFFFFFFFFFFFFFFFFFFFFFFFFD4
:10AC9000FFFFFFFFFEFFFEFFFFFFFFFFFFFFFFFFC6
:10ACA000FFFFFFFFFFFFFFFFFFFFFFFFFFFFFFFFB4
:10ACB000FEFFFEFFFEFFDDFFFEFFFEFFFFFFFFFFCB
:10ACC000FFF7BFEFFFD699A5368473637363B5733F
:10ACD000B573387C387CF773B66B9363115372632A
:10ACE00014741895DBB55CC67FE79FEFBFF7DFF7FD
:10ACF000DFF7DFF7DFF7FFFFFFFFDFF7DFF7DFF754
:10AD0000DFF7FFFFDFF7DFF7DFF7DFF79EEFFFFF8C
:10AD1000FFFFFFFFFFFFBEF7BEF7DFFFDFFFBEF75E
:10AD2000DFF7DFF7DFF7FFF7FFF7FFFFDFF7FFF7EB
:10AD3000BFEFDFF7DFF7BEF77EE77BC6D8B5F59C40
:10AD4000D1731184728C97B5DBDE7EEFFFFFFFFFBE
:10AD5000FFFFBEF7FFFFFFFFFFFFFFFFFFFFFFFF4C
:10AD6000FFFFFFFFFFFFFFFFFFFFFFFFFFFFFFFFF3
:10AD7000FFFFFFFFFFFFFFFFFFFFFFFFFFFFFFFFE3
:10AD8000FFFFFFFFFFFFFFFFFFFFFFFFFFFFFFFFD3
:10AD9000FFFFFFFFFFFFFFFFFFFFFFFFFFFFFFFFC3
:10ADA000FFFFFFFFFFFFFFFFFFFFFFFFFFFFFFFFB3
:10ADB000FFFFFFFFFFFFFFFFFFFFFFFFFFFFFFFFA3
:10ADC000FFFFFFFFFFFFFFFFFFFFFFFFFFFFFFFF93
:10ADD000FFFFFFFFFFFFFFFFFFFFFFFFFFFFFFFF83
:10ADE000FFFFFFFFDFFFFFFFFFFFFFFFFFFFDFFFB3
:10ADF000FFFFFFFFFFFFFFF7FDD6D9ADF694357CCF
:10AE0000D46BB56B377C387C3784B573546B746BFB
:10AE1000B473F99C9BAD7DCEDDD65DE7BFF7FFFF38
:10AE2000DFF7FFFFFFFFFFFFFFFFDFFFFFFFFFFF7A
:10AE3000FFFFDFFFFFFFFFFFFFFFFFFFFFFFFFFF42
:10AE4000FFFFFFFFFFFFFFFFFFFFFFFFFFFFFFFF12
:10AE5000FFFFFFFFFFFFFFFFFFFFDFFFFFFFFFFF22
:10AE6000FEFFFFFFFFFFFFFFFFFFFFFFFFFFFFFFF3
:10AE7000FFFFFFFFDFFFFFFFFFFFFFFFDFF7DFF752
:10AE8000DFF7DFFF7EF71CE7DBDE9AD618C6D7BDFB
:10AE900038C659CEDFFFFFFFFFFFFFFFFFFFFFFFB9
:10AEA000FFFFFFFFFFFFFFFFFFFFFFFFFFFFFFFFB2
:10AEB000FFFFFFFFFFFFFFFFFFFFFFFFFFFFFFFFA2
:10AEC000FFFFFFFFFFFFFFFFFFFFFFFFFFFFFFFF92
:10AED000FFFFFFFFFFFFFFFFFFFFFFFFFFFFFFFF82
:10AEE000FFFFFFFFFFFFFFFFFFFFFFFFFFFFFFFF72
:10AEF000FFFFFFFFFFFFFFFFFFFFFFFFFFFFFFFF62
:10AF0000FFFFFFFFFFFFFFFFFFFFFFFFFFFFFFFF51
:10AF1000FFFFFFFFDFFFDFFFFFFFFFFFFEFFFEFF83
:10AF2000FFFFFFFFFEFFFEFFFFFFFFFFDFF7DFF783
:10AF30001FDFBAAD978CD56BF56B1674157415744D
:10AF4000D46BB363357CF894D9AD7BC6FDD67EEF68
:10AF5000DEF7FEFFFEF7FDFFFDFFDEFFFEFFFEFF5B
:10AF6000FEFFFEFFDEFFFEFFDEFFFEFFFEFFFEFF39
:10AF7000FFFFFEFFFFFFFFFFFFFFFFFFFFFFFFFFE2
:10AF8000FFFFFFFFFFFFDFFFFFFFFFFFFFFFFFFFF1
:10AF9000FFFFFFFFFFFFDFFFDFFFFFFFDFFFDFFF41
:10AFA000FEFFFEFFFEFFFEFFFEFFFEFFFEFFFEFFB9
:10AFB000FEFFFEFFFFFFFEFFFEFFDEFFFFFFDEFFE7
:10AFC000FEFFDFFFDFFFFFFFDFFFDFFFDFFFDFFF52
:10AFD000BEF77DEFFFFFFFFFFFFFFFFFFFFFFFFF5C
:10AFE000FFFFFFFFFFFFFFFFFFFFFFFFFFFFFFFF71
:10AFF000FFFFFFFFFFFFFFFFFFFFFFFFFFFFFFFF61
:10B00000FFFFFFFFFFFFFFFFFFFFFFFFFFFFFFFF50
:10B01000FFFFFFFFFFFFFFFFFFFFFFFFFFFFFFFF40
:10B02000FFFFFFFFFFFFFFFFFFFFFFFFFFFFFFFF30
:10B03000FFFFFFFFFFFFFFFFFFFFFFFFFFFFFFFF20
:10B04000FFFFFFFFFFFFFFFFFFFFFFFFFFFFFFFF10
:10B05000FFFFDFFFDFFFFFFFFFFFFEFFFEFFFEFF43
:10B06000FEFFFEFFFFF7DFF75EE75BC6589D357C0E
:10B070007463D673187CD66BF6731674F894B9ADF6
:10B080007BC69FE7FFF7FFF7FFFFFFF7FFF7FEFF26
:10B09000FEFFFDFFFDFFFDFFFDFFFEFFFEFFFEFFCC
:10B0A000FEFFFEFFFEFFFEFFFFFFFEFFFEFFFEFFB7
:10B0B000DEFFFFFFFFFFFFFFFFFFFFFFFFFFFFFFC1
:10B0C000FFFFFFFFFFFFFFFFFFFFFFFFFFFFFFFF90
:10B0D000FFFFFFFFFFFFFFFFFFFFFFFFFFFFFFFF80
:10B0E000FEFFFEFFFFFFFFFFFFFFFEFFFFFFFFFF73
:10B0F000FEFFFFFFFFFFFFFFFFFFDFFFFFFFFFFF81
:10B10000FFFFFFFFFFFFFFFFFFFFFFFFFFFFFFFF4F
:10B11000FFFFFFFFFFFFFFFFFFFFFFFFFFFFFFFF3F
:10B12000FFFFFFFFFFFFFFFFFFFFFFFFFFFFFFFF2F
:10B13000FFFFFFFFFFFFFFFFFFFFFFFFFFFFFFFF1F
:10B14000FFFFFFFFFFFFFFFFFFFFFFFFFFFFFFFF0F
:10B15000FFFFFFFFFFFFFFFFFFFFFFFFFFFFFFFFFF
:10B16000FFFFFFFFFFFFFFFFFFFFFFFFFFFFFFFFEF
:10B17000FFFFFFFFFFFFFFFFFFFFFFFFFFFFFFFFDF
:10B18000FFFFFFFFFFFFFFFFFFFFBEF7FFFFFFFF18
:10B19000FFFFFFFFFEFFDEF7DEF7FFFFFFFFDFF73A
:10B1A000BFEF5DE7BBAD367C7263D46B567C357404
:10B1B000D46BD46BF88C5BC65FE7FFF7FFF7FFF744
:10B1C000FFFFFFFFFEFFFEFFFFFFFFFFFFFFFFFF91
:10B1D000FFFFFFFFFFFFFFFFFFFFFFFFFFFFFFFF7F
:10B1E000FFFFFFFFFFFFFFFFFFFFFFFFFFFFFFFF6F
:10B1F000FFFFFFFFFFFFFFFFFFFFFFFFFFFFFFFF5F
:10B20000FFFFFFFFFFFFFFFFFFFFFFFFFFFFFFFF4E
:10B21000FFFFFFFFFFFFFFFFFFFFFFFFFFFFFFFF3E
:10B22000FFFFFFFFFFFFFFFFFFFFFFFFFFFFFFFF2E
:10B23000FFFFFFFFFFFFFFFFFFFFFFFFFFFFFFFF1E
:10B24000FFFFFFFFFFFFFFFFFFFFFFFFFFFFFFFF0E
:10B25000FFFFFFFFFFFFFFFFFFFFFFFFFFFFFFFFFE
:10B26000FFFFFFFFFFFFFFFFFFFFFFFFFFFFFFFFEE
:10B27000FFFFFFFFFFFFFFFFFFFFFFFFFFFFFFFFDE
:10B28000FFFFFFFFFFFFFFFFFFFFFFFFFFFFFFFFCE
:10B29000FFFFFFFFFFFFFFFFFFFFFFFFFFFFFFFFBE
:10B2A000FFFFFFFFFFFFFFFFFFFFFFFFFFFFFFFFAE
:10B2B000FFFFFFFFFFFFFFFFFFFFFFFFFFFFFFFF9E
:10B2C000FFFFFFFFFFFFFFFFFFFFFFFFFFFFFFFF8E
:10B2D000FFFFFEFFFCFFFDF7DFF7FFF75FE7D79407
:10B2E000F15A946B387C7984956B535B96849DC638
:10B2F000FFF7DFEFFFF7FCF7FDF7DDF7FDFFFEFFE0
:10B30000FFFFFFFFFFFFFFFFFFFFFFFFFFFFFFFF4D
:10B31000FFFFFFFFFFFFFFFFFFFFFFFFFFFFFFFF3D
:10B32000FFFFFFFFFFFFFFFFFFFFFFFFFFFFFFFF2D
:10B33000FFFFFFFFFFFFFFFFFFFFFFFFFFFFFFFF1D
:10B34000FFFFFFFFFFFFFFFFFFFFFFFFFFFFFFFF0D
:10B35000FFFFFFFFFFFFFFFFFFFFFFFFFFFFFFFFFD
:10B36000FFFFFFFFFFFFFFFFFFFFFFFFFFFFFFFFED
:10B37000FFFFFFFFFFFFFFFFFFFFFFFFFFFFFFFFDD
:10B38000FFFFFFFFFFFFFFFFFFFFFFFFFFFFFFFFCD
:10B39000FFFFFFFFFFFFFFFFFFFFFFFFFFFFFFFFBD
:10B3A000FFFFFFFFFFFFFFFFFFFFFFFFFFFFFFFFAD
:10B3B000FFFFFFFFFFFFFFFFFFFFFFFFFFFFFFFF9D
:10B3C000FFFFFFFFFFFFFFFFFFFFFFFFFFFFFFFF8D
:10B3D000FFFFFFFFFFFFFFFFFFFFFFFFFFFFFFFF7D
:10B3E000FFFFFFFFFFFFFFFFFFFFFFFFFFFFFFFF6D
:10B3F000FFFFFFFFFFFFFFFFFFFFFFFFFFFFFFFF5D
:10B40000FFFFFFFFFFFFFFFFFFFFDFFFFFFFDFFF8C
:10B41000DFFFFFF7FFF73EDF7584936BD57357842B
:10B42000D46B7263147C3CBE5EE7BFEFDFF7DFF7DF
:10B43000BEF7DEF7FEFFFEFFFEFFDDFFFEFFFFFFB4
:10B44000FFFFFFFFFFFFFFFFFFFFFFFFFFFFFFFF0C
:10B45000FFFFFFFFFFFFFFFFFFFFFFFFFFFFFFFFFC
:10B46000FFFFFFFFFFFFFFFFFFFFFFFFFFFFFFFFEC
:10B47000FFFFFFFFFFFFFFFFFFFFFFFFFFFFFFFFDC
:10B48000FFFFFFFFFFFFFFFFFFFFFFFFFFFFFFFFCC
:10B49000FFFFFFFFFFFFFFFFFFFFFFFFFFFFFFFFBC
:10B4A000FFFFFFFFFFFFFFFFFFFFFFFFFFFFFFFFAC
:10B4B000FFFFFFFFFFFFFFFFFFFFFFFFFFFFFFFF9C
:10B4C000FFFFFFFFFFFFFFFFFFFFFFFFFFFFFFFF8C
:10B4D000FFFFFFFFFFFFFFFFFFFFFFFFFFFFFFFF7C
:10B4E000FFFFFFFFFFFFFFFFFFFFFFFFFFFFFFFF6C
:10B4F000FFFFFFFFFFFFFFFFFFFFFFFFFFFFFFFF5C
:10B50000FFFFFFFFFFFFFFFFFFFFFFFFFFFFFFFF4B
:10B51000FFFFFFFFFFFFFFFFFFFFFFFFFFFFFFFF3B
:10B52000FFFFFFFFFFFFFFFFFFFFFFFFFFFFFFFF2B
:10B53000FFFFFFFFFFFFFFFFFFFFFFFFFFFFFFFF1B
:10B54000FFFFFFFFFFFFFFFFFFFFFFFFBEF7FFFF54
:10B550001CE778ADF57BB673187CD873966B77844F
:10B560005BBE5EDFFDF7FDFFFDFFFEFFDEFFFEFFC2
:10B57000DFFFDFFFBFFFDFFFDFFFDFFFFFFFFFFFBB
:10B58000FFFFFFFFFEFFFEFFFFFFFFFFFFFFFFFFCD
:10B59000FFFFFFFFFFFFFFFFFFFFFFFFFFFFFFFFBB
:10B5A000FFFFFFFFFFFFFEFFFEFFFFFFFFFFFFFFAD
:10B5B000FFFFFFFFFFFFFFFFFFFFFFFFFFFFFFFF9B
:10B5C000FFFFFFFFFFFFFFFFFFFFFFFFFFFFFFFF8B
:10B5D000FFFFFFFFFFFFFFFFFFFFFFFFFFFFFFFF7B
:10B5E000FFFFFFFFFFFFFFFFFFFFFFFFFEFFFEFF6D
:10B5F000FEFFFFFFFFFFFFFFFFFFFFFFFFFFFFFF5C
:10B60000FFFFFFFFFFFFFFFFFFFFFFFFFFFFFFFF4A
:10B61000FFFFFFFFFFFFFFFFFFFFFFFFFFFFFFFF3A
:10B62000FFFFFFFFFFFFFFFFFFFFFFFFFFFFFFFF2A
:10B63000FFFFFFFFFFFFFFFFFFFFFFFFFFFFFFFF1A
:10B64000FFFFFFFFFFFFFFFFFFFFFFFFFFFFFFFF0A
:10B65000FFFFFFFFFFFFFFFFFFFFFFFFFFFFFFFFFA
:10B66000FFFFFFFFFFFFFFFFFFFFFFFFFFFFFFFFEA
:10B67000FFFFFFFFFFFFFFFFDFFFDFFFDFFFFFFF3A
:10B68000FFFFDFFFDFFFFFFFDFF79EE77BC6557C95
:10B69000B563F773387CF673F47377A53DE7FFFF66
:10B6A000DEFFDEFFFFFFFFFFFFFFFFFFFFFFFFFFEC
:10B6B000FFFFFFFFFFFFFFFFFFFFFFFFFFFFFFFF9A
:10B6C000FFFFFFFFFFFFFFFFFFFFFFFFFFFFFFFF8A
:10B6D000FFFFFFFFFFFFFFFFFFFFFFFFFFFFFFFF7A
:10B6E000FFFFFFFFFFFFFFFFFFFFFFFFFFFFFFFF6A
:10B6F000FFFFFFFFFFFFFFFFFFFFFFFFFFFFFFFF5A
:10B70000FFFFFFFFFFFFFFFFFFFFFFFFFFFFFFFF49
:10B71000FFFFFFFFFFFFFFFFFFFFFFFFFFFFFFFF39
:10B72000FFFFFFFFFFFFFFFFFFFFFFFFFFFFFFFF29
:10B73000FFFFFFFFFFFFFFFFFFFFFFFFFFFFFFFF19
:10B74000FFFFFFFFFFFFFFFFFFFFFFFFFFFFFFFF09
:10B75000FFFFFFFFFFFFFFFFFFFFFFFFFFFFFFFFF9
:10B76000FFFFFFFFFFFFFFFFFFFFFFFFFFFFFFFFE9
:10B77000FFFFFFFFFFFFFFFFFFFFFFFFFFFFFFFFD9
:10B78000FFFFFFFFFFFFFFFFFFFFFFFFFFFFFFFFC9
:10B79000FFFFFFFFFFFFFFFFFFFFFFFFFFFFFFFFB9
:10B7A000FFFFFFFFFFFFFFFFFFFFFFFFFFFFFFFFA9
:10B7B000FFFFFFFFFFFFFFFFBEFFFFFFFFFFFFFFDA
:10B7C000FEFFFDFFDEF75DE778A5B36BB46B788411
:10B7D000377CF5735584FAB5FFF7DFF7FFFFDFFF1E
:10B7E000DFFFFFFFFFFFFFFFFFFFFFFFFFFFFFFF89
:10B7F000FFFFFFFFFFFFFFFFFFFFFFFFFFFFFFFF59
:10B80000FFFFFFFFFFFFFFFFFFFFFFFFFFFFFFFF48
:10B81000FFFFFFFFFFFFFFFFFFFFFFFFFFFFFFFF38
:10B82000FFFFFFFFFFFFFFFFFFFFFFFFFFFFFFFF28
:10B83000FFFFFFFFFFFFFFFFFFFFFFFFFFFFFFFF18
:10B84000FFFFFFFFFFFFFFFFFFFFFFFFFFFFFFFF08
:10B85000FFFFFFFFFFFFFFFFFFFFFFFFFFFFFFFFF8
:10B86000FFFFFFFFFFFFFFFFFFFFFFFFFFFFFFFFE8
:10B87000FFFFFFFFFFFFFFFFFFFFFFFFFFFFFFFFD8
:10B88000FFFFFFFFFFFFFFFFFFFFFFFFFFFFFFFFC8
:10B89000FFFFFFFFFFFFFFFFFFFFFFFFFFFFFFFFB8
:10B8A000FFFFFFFFFFFFFFFFFFFFFFFFFFFFFFFFA8
:10B8B000FFFFFFFFFFFFFFFFFFFFFFFFFFFFFFFF98
:10B8C000FFFFFFFFFFFFFFFFFFFFFFFFFFFFFFFF88
:10B8D000FFFFFFFFFFFFFFFFFFFFFFFFFFFFFFFF78
:10B8E000FFFFFFFFFFFFFFFFFFFFFFFFFFFFFFFF68
:10B8F000FFFFFFFFFEFFFEFFFEFFFEFFFFFFBEEFAD
:10B90000FFF7BEEF97A53063F6735884F67B336379
:10B91000F89C9FEFFFFFDEF7FFFFFEFFFFFFFFFF3B
:10B92000DFFFFFFFFFFFFFFFFFFFFFFFFFFFFFFF47
:10B93000FFFFFFFFFFFFFFFFFFFFFFFFFFFFFFFF17
:10B94000FFFFFFFFFFFFFFFFFFFFFFFFFFFFFFFF07
:10B95000FFFFFFFFFFFFFFFFFFFFFFFFFFFFFFFFF7
:10B96000FFFFFFFFFFFFFFFFFFFFFFFFFFFFFFFFE7
:10B97000FFFFFFFFFFFFFFFFFFFFFFFFFFFFFFFFD7
:10B98000FFFFFFFFFFFFFFFFFFFFFFFFFFFFFFFFC7
:10B99000FFFFFFFFFFFFFFFFFFFFFFFFFFFFFFFFB7
:10B9A000FFFFFFFFFFFFFFFFFFFFFFFFFFFFFFFFA7
:10B9B000FFFFFFFFFFFFFFFFFFFFFFFFFFFFFFFF97
:10B9C000FFFFFFFFFFFFFFFFFFFFFFFFFFFFFFFF87
:10B9D000FFFFFFFFFFFFFFFFFFFFFFFFFFFFFFFF77
:10B9E000FFFFFFFFFFFFFFFFFFFFFFFFFFFFFFFF67
:10B9F000FFFFFFFFFFFFFFFFFFFFFFFFFFFFFFFF57
:10BA0000FFFFFFFFFFFFFFFFFFFFFFFFFFFFFFFF46
:10BA1000FFFFFFFFFFFFFFFFFFFFFFFFFFFFFFFF36
:10BA2000FFFFFFFFFFFFFFFFFFFFFFFFFFFFFFFF26
:10BA3000FFFFFEFFFEFFFEFFFEFFDEF7DFF79EE7E4
:10BA4000F694B363367C998CF6733363DBB5BFF73A
:10BA5000FFFFFEFFFEFFFEFFFEFFFEFFDEFFFFFF1C
:10BA6000FFFFFFFFFFFFFFFFFFFFFFFFFFFFFFFFE6
:10BA7000FFFFFFFFFFFFFFFFFFFFFFFFFFFFFFFFD6
:10BA8000FFFFFFFFFFFFFFFFFFFFFFFFFFFFFFFFC6
:10BA9000FFFFFFFFFFFFFFFFFFFFFFFFFFFFFFFFB6
:10BAA000FFFFFFFFFFFFFFFFFFFFFFFFFFFFFFFFA6
:10BAB000FFFFFFFFFFFFFFFFFFFFFFFFFFFFFFFF96
:10BAC000FFFFFFFFFFFFFFFFFFFFFFFFFFFFFFFF86
:10BAD000FFFFFFFFFFFFFFFFFFFFFFFFFFFFFFFF76
:10BAE000FFFFFFFFFFFFFFFFFFFFFFFFFFFFFFFF66
:10BAF000FFFFFFFFFFFFFFFFFFFFFFFFFFFFFFFF56
:10BB0000FFFFFFFFFFFFFFFFFFFFFFFFFFFFFFFF45
:10BB1000FFFFFFFFFFFFFFFFFFFFFFFFFFFFFFFF35
:10BB2000FFFFFFFFFFFFFFFFFFFFFFFFFFFFFFFF25
:10BB3000FFFFFFFFFFFFFFFFFFFFFFFFFFFFFFFF15
:10BB4000FFFFFFFFFFFFFFFFFFFFFFFFFFFFFFFF05
:10BB5000FFFFFFFFFFFFFFFFFFFFFFFFFFFFFFFFF5
:10BB6000FFFFFFFFFFFFFFFFFFFFFFFFFFFFFFFFE5
:10BB7000FEFFFEFFFEFFFFFFFFFF7FE7179DD47371
:10BB8000167C5A7CF773B46BFAB57FEFFFF7FEFFB4
:10BB9000FDFFFEFFFFFFFFFFFFFFFEFFFFFFFFFFB9
:10BBA000FFFFFFFFFFFFFFFFFFFFFFFFFFFFFFFFA5
:10BBB000FFFFFFFFFFFFFFFFFFFFFFFFFFFFFFFF95
:10BBC000FFFFFFFFFFFFFFFFFFFFFFFFFFFFFFFF85
:10BBD000FFFFFFFFFFFFFFFFFFFFFFFFFFFFFFFF75
:10BBE000FFFFFFFFFFFFFFFFFFFFFFFFFFFFFFFF65
:10BBF000FFFFFFFFFFFFFFFFFFFFFFFFFFFFFFFF55
:10BC0000FFFFFFFFFFFFFFFFFFFFFFFFFFFFFFFF44
:10BC1000FFFFFFFFFFFFFFFFFFFFFFFFFFFFFFFF34
:10BC2000FFFFFFFFFFFFFFFFFFFFFFFFFFFFFFFF24
:10BC3000FFFFFFFFFFFFFFFFFFFFFFFFFFFFFFFF14
:10BC4000FFFFFFFFFFFFFFFFFFFFFFFFFFFFFFFF04
:10BC5000FFFFFFFFFFFFFFFFFFFFFFFFFFFFFFFFF4
:10BC6000FFFFFFFFFFFFFFFFFFFFFFFFFFFFFFFFE4
:10BC7000FFFFFFFFFFFFFFFFFFFFFFFFFFFFFFFFD4
:10BC8000FFFFFFFFFFFFFFFFFFFFFFFFFFFFFFFFC4
:10BC9000FFFFFFFFFFFFFFFFFFFFFFFFFFFFFFFFB4
:10BCA000FFFFFFFFFFFFFFFFFFFFFFFFFFFFFFFFA4
:10BCB000DEFFFFFFDFF7BFEFB9ADF473167C377C13
:10BCC0003884D5739AA57EE7DEF7FEF7FEFFFFFF07
:10BCD000FFFFDFFFFFFFFFFFFFFFFFFFFFFFFFFF94
:10BCE000FFFFFFFFFFFFFFFFFFFFFFFFFFFFFFFF64
:10BCF000FFFFFFFFFFFFFFFFFFFFFFFFFFFFFFFF54
:10BD0000FFFFFFFFFFFFFFFFFFFFFFFFFFFFFFFF43
:10BD1000FFFFFFFFFFFFFFFFFFFFFFFFFFFFFFFF33
:10BD2000FFFFFFFFFFFFFFFFFFFFFFFFFFFFFFFF23
:10BD3000FFFFFFFFFFFFFFFFFFFFFFFFFFFFFFFF13
:10BD4000FFFFFFFFFFFFFFFFFFFFFFFFFFFFFFFF03
:10BD5000FFFFFFFFFFFFFFFFFFFFFFFFFFFFFFFFF3
:10BD6000FFFFFFFFFFFFFFFFFFFFFFFFFFFFFFFFE3
:10BD7000FFFFFFFFFFFFFFFFFFFFFFFFFFFFFFFFD3
:10BD8000FFFFFFFFFFFFFFFFFFFFFFFFFFFFFFFFC3
:10BD9000FFFFFFFFFFFFFFFFFFFFFFFFFFFFFFFFB3
:10BDA000FFFFFFFFFFFFFFFFFFFFFFFFFFFFFFFFA3
:10BDB000FFFFFFFFFFFFFFFFFFFFFFFFFFFFFFFF93
:10BDC000FFFFFFFFFFFFFFFFFFFFFFFFFFFFFFFF83
:10BDD000FFFFFFFFFFFFFFFFFFFFFFFFFFFFFFFF73
:10BDE000FFFFFFFFFFFFFFFFFFFFFFFFFFFFFFFF63
:10BDF000DFF7DFF7DDD6968CD47337843784D573BD
:10BE0000978C3EE7FFFFFEF7FDFFFDFFFFFFDFFF23
:10BE1000DFFFDFFFFFFFFFFFFFFFFFFFFFFFFFFF72
:10BE2000FFFFFFFFFFFFFFFFFFFFFFFFFFFFFFFF22
:10BE3000FFFFFFFFFFFFFFFFFFFFFFFFFFFFFFFF12
:10BE4000FFFFFFFFFFFFFFFFFFFFFFFFFFFFFFFF02
:10BE5000FFFFFFFFFFFFFFFFFFFFFFFFFFFFFFFFF2
:10BE6000FFFFFFFFFFFFFFFFFFFFFFFFFFFFFFFFE2
:10BE7000FFFFFFFFFFFFFFFFFFFFFFFFFFFFFFFFD2
:10BE8000FFFFFFFFFFFFFFFFFFFFFFFFFFFFFFFFC2
:10BE9000FFFFFFFFFFFFFFFFFFFFFFFFFFFFFFFFB2
:10BEA000FFFFFFFFFFFFFFFFFFFFFFFFFFFFFFFFA2
:10BEB000FFFFFFFFFFFFFFFFFFFFFFFFFFFFFFFF92
:10BEC000FFFFFFFFFFFFFFFFFFFFFFFFFFFFFFFF82
:10BED000FFFFFFFFFFFFFFFFFFFFFFFFFFFFFFFF72
:10BEE000FFFFFFFFFFFFFFFFFFFFFFFFFFFFFFFF62
:10BEF000FFFFFFFFFFFFFFFFFFFFFFFFFFFFFFFF52
:10BF0000FFFFFFFFFFFFFFFFFFFFFFFFFFFFFFFF41
:10BF1000FFFFFFFFFFFFFFFFFFFFFFFFFFFFFFFF31
:10BF2000FFFFFFFFFFFFFFFFFFFFFFFFFFFFFFFF21
:10BF30009EEF1AB692639884377C167C147CFDDEE3
:10BF4000FFF7FEFFDEFFDEFFDEFFFFFFFFFFFFFF6D
:10BF5000FFFFFFFFFFFFFFFFFFFFFFFFFFFFFFFFF1
:10BF6000FFFFFFFFFFFFFFFFFFFFFFFFFFFFFFFFE1
:10BF7000FFFFFFFFFFFFFFFFFFFFFFFFFFFFFFFFD1
:10BF8000FFFFFFFFFFFFFFFFFFFFFFFFFFFFFFFFC1
:10BF9000FFFFFFFFFFFFFFFFFFFFFFFFFFFFFFFFB1
:10BFA000FFFFFFFFFFFFFFFFFFFFFFFFFFFFFFFFA1
:10BFB000FFFFFFFFFFFFFFFFFFFFFFFFFFFFFFFF91
:10BFC000FFFFFFFFFFFFFFFFFFFFFFFFFFFFFFFF81
:10BFD000FFFFFFFFFFFFFFFFFFFFFFFFFFFFFFFF71
:10BFE000FFFFFFFFFFFFFFFFFFFFFFFFFFFFFFFF61
:10BFF000FFFFFFFFFFFFFFFFFFFFFFFFFFFFFFFF51
:10C00000FFFFFFFFFFFFFFFFFFFFFFFFFFFFFFFF40
:10C01000FFFFFFFFFFFFFFFFFFFFFFFFFFFFFFFF30
:10C02000FFFFFFFFFFFFFFFFFFFFFFFFFFFFFFFF20
:10C03000FFFFFFFFFFFFFFFFFFFFFFFFFFFFFFFF10
:10C04000FFFFFFFFFFFFFFFFFFFFFFFFFFFFFFFF00
:10C05000FFFFFFFFFFFFFFFFFFFFFFFFFFFFFFFFF0
:10C06000FFFFFFFFFFFFFFFFFFFFDFFFBEF7BEF792
:10C07000127C147C7784577C95635AA5DFF7DFF731
:10C08000FFFFFFFFFFFFDFFFDFFFFFFFFFFFFEFF01
:10C09000FDFFFDFFFEFFFEFFFEFFFFFFFFFFFFFFB7
:10C0A000FFFFFFFFFFFFFFFFFFFFFFFFFFFFFFFFA0
:10C0B000FFFFFFFFFFFFFFFFFFFFFFFFFFFFFFFF90
:10C0C000FFFFFFFFFFFFFFFFFFFFFFFFFFFFFFFF80
:10C0D000FFFFFFFFFFFFFFFFFFFFFFFFFFFFFFFF70
:10C0E000FFFFFFFFFFFFFFFFFFFFFFFFFFFFFFFF60
:10C0F000FFFFFFFFFFFFFFFFFFFFFFFFFFFFFFFF50
:10C10000FFFFFFFFFFFFFFFFFFFFFFFFFFFFFFFF3F
:10C11000FFFFFFFFFFFFFFFFFFFFFFFFFFFFFFFF2F
:10C12000FFFFFFFFFFFFFFFFFFFFFFFFFFFFFFFF1F
:10C13000FFFFFFFFFFFFFFFFFFFFFFFFFFFFFFFF0F
:10C14000FFFFFFFFFFFFFFFFFFFFFFFFFFFFFFFFFF
:10C15000FFFFFFFFFFFFFFFFFFFFFFFFFFFFFFFFEF
:10C16000FFFFFFFFFFFFFFFFFFFFFFFFFFFFFFFFDF
:10C17000FFFFFFFFFFFFFFFFFFFFFFFFFFFFFFFFCF
:10C18000FFFFFFFFFFFFFFFFFFFFFFFFFFFFFFFFBF
:10C19000FFFFFFFFFFFFFFFFFFFFFFFFFFFFFDFFB1
:10C1A000FFFFDFFFFFFFDEF7FEFFDFF77CC6B573A3
:10C1B000597C3774567CD273DCD6FFFFDFF7FFFF64
:10C1C000DEFFFFFFFFFFFFFFFFFFFFFFFFFFFFFFA0
:10C1D000FFFFFFFFFFFFFFFFFFFFFFFFFFFFFFFF6F
:10C1E000FFFFFFFFFFFFFFFFFFFFFFFFFFFFFFFF5F
:10C1F000FFFFFFFFFFFFFFFFFFFFFFFFFFFFFFFF4F
:10C20000FFFFFFFFFFFFFFFFFFFFFFFFFFFFFFFF3E
:10C21000FFFFFFFFFFFFFFFFFFFFFFFFFFFFFFFF2E
:10C22000FFFFFFFFFFFFFFFFFFFFFFFFFFFFFFFF1E
:10C23000FFFFFFFFFFFFFFFFFFFFFFFFFFFFFFFF0E
:10C24000FFFFFFFFFFFFFFFFFFFFFFFFFFFFFFFFFE
:10C25000FFFFFFFFFFFFFFFFFFFFFFFFFEFFFEFFF0
:10C26000DDF7FEFFBEF7FFFFDFFFFFFFFFFFFFFF72
:10C27000FFFFFFFFFFFFFFFFFFFFFFFFFFFFFFFFCE
:10C28000FFFFFFFFFFFFFFFFFFFFFFFFFFFFFFFFBE
:10C29000FFFFFFFFFFFFFFFFFFFFFFFFFFFFFFFFAE
:10C2A000FFFFFFFFFFFFFFFFFFFFFFFFFFFFFFFF9E
:10C2B000FFFFFFFFFFFFFFFFFFFFFFFFFFFFFFFF8E
:10C2C000FFFFFFFFFFFFFFFFFFFFFFFFFFFFFFFF7E
:10C2D000FFFFFFFFFFFFFFFFFFFFFFFFFFFFFFFF6E
:10C2E000FFFFFFFFFFFFDEF7DFF778ADD573388480
:10C2F000577C1574D794DFF7FFFFDFF7FFFFFFFFD1
:10C30000FFFFFFFFFFFFFFFFFFFFFFFFFFFFFFFF3D
:10C31000FFFFFFFFFFFFFFFFFFFFFFFFFFFFFFFF2D
:10C32000FFFFFFFFFFFFFFFFFFFFFFFFFFFFFFFF1D
:10C33000FFFFFFFFFFFFFFFFFFFFFFFFFFFFFFFF0D
:10C34000FFFFFFFFFFFFFFFFFFFFFFFFFFFFFFFFFD
:10C35000FFFFFFFFFFFFFFFFFFFFFFFFFFFFFFFFED
:10C36000FFFFFFFFFFFFFFFFFFFFFFFFFFFFFFFFDD
:10C37000FFFFFFFFFFFFFFFFFFFFFFFFFFFFFFFFCD
:10C38000FFFFFFFFFFFFFFFFFFFFFFFFFFFFFFFFBD
:10C39000FFFFFFFFFFFFFFFFFFFFFFFFFFFFFFFFAD
:10C3A000DFF7DFF7DFF7FFFFDFFFFFFFFFFFFFFF35
:10C3B000FFFFFFFFFFFFFFFFFFFFFFFFFFFFFFFF8D
:10C3C000FFFFFFFFFFFFFFFFFFFFFFFFFFFFFFFF7D
:10C3D000FFFFFFFFFFFFFFFFFFFFFFFFFFFFFFFF6D
:10C3E000FFFFFFFFFFFFFFFFFFFFFFFFFFFFFFFF5D
:10C3F000FFFFFFFFFFFFFFFFFFFFFFFFFFFFFFFF4D
:10C40000FFFFFFFFFFFFFFFFFFFFFFFFFFFFFFFF3C
:10C41000FFFFFFFFFFFFFFFFFFFFFFFFFFFFDFFF4C
:10C42000FFFFDEF7FEFFBEEF379DF573588459849A
:10C43000147499ADDFF7DFF7DFF7FFFFFFFFFFFFB2
:10C44000DFFFFFFFFFFFFFFFFFFFFFFFFFFFFFFF1C
:10C45000FFFFFFFFFFFFFFFFFFFFFFFFFFFFFFFFEC
:10C46000FFFFFFFFFFFFFFFFFFFFFFFFFFFFFFFFDC
:10C47000FFFFFFFFFFFFFFFFFFFFFFFFFFFFFFFFCC
:10C48000FFFFFFFFFFFFFFFFFFFFFFFFFFFFFFFFBC
:10C49000FFFFFFFFFFFFFFFFFFFFFFFFFFFFFFFFAC
:10C4A000FFFFFFFFFFFFFFFFFFFFFFFFFFFFFFFF9C
:10C4B000FFFFFFFFFFFFFFFFFFFFFFFFFFFFFFFF8C
:10C4C000FFFFFFFFFFFFFFFFFFFFFFFFFFFFFFFF7C
:10C4D000FFFFFFFFFFFFFFFFFFFFFFFFFFFFFFFF6C
:10C4E000BFEF7BC677ADD394BEF7FFFFFFFFFFFF23
:10C4F000FFFFFFFFFFFFFFFFFFFFFFFFFFFFFFFF4C
:10C50000FFFFFFFFFFFFFFFFFFFFFFFFFFFFFFFF3B
:10C51000FFFFFFFFFFFFFFFFFFFFFFFFFFFFFFFF2B
:10C52000FFFFFFFFFFFFFFFFFFFFFFFFFFFFFFFF1B
:10C53000FFFFFFFFFFFFFFFFFFFFFFFFFFFFFFFF0B
:10C54000FFFFFFFFFFFFFFFFFFFFFFFFFFFFFFFFFB
:10C55000FFFFFFFFFFFFFFFFFFFFFFFFFFFFDFFF0B
:10C56000FFFFFEF75DDF337C377C387C1774D46BBC
:10C57000DCD6DFF7FFFFFFFFFFFFFFFFDFFFFFFF5F
:10C58000FFFFFFFFFFFFFFFFFFFFFFFFFFFFFFFFBB
:10C59000FFFFFFFFFFFFFFFFFFFFFFFFFFFFFFFFAB
:10C5A000FFFFFFFFFFFFFFFFFFFFFFFFFFFFFFFF9B
:10C5B000FFFFFFFFFFFFFFFFFFFFFFFFFFFFFFFF8B
:10C5C000FFFFFFFFFFFFFFFFFFFFFFFFFFFFFFFF7B
:10C5D000FFFFFFFFFFFFFFFFFFFFFFFFFFFFFFFF6B
:10C5E000FFFFFFFFFFFFFFFFFFFFFFFFFFFFFFFF5B
:10C5F000FFFFFFFFFFFFFFFFFFFFFFFFFFFFFFFF4B
:10C60000FFFFFFFFFFFFFFFFFFFFFFFFFFFFFFFF3A
:10C61000FFFFFFFFFFFFFFFFFFFFDFFFDFF7DFF79A
:10C620001674315B4F5BFCD6DEF7FEFFFFFFFFFFAA
:10C63000FFFFFFFFFFFFFFFFFFFFFFFFFFFFFFFF0A
:10C64000FFFFFFFFFFFFFFFFFFFFFFFFFFFFFFFFFA
:10C65000FFFFFFFFFFFFFFFFFFFFFFFFFFFFFFFFEA
:10C66000FFFFFFFFFFFFFFFFFFFFFFFFFFFFFFFFDA
:10C67000FFFFFFFFFFFFFFFFFFFFFFFFFFFFFFFFCA
:10C68000FFFFFFFFFFFFFFFFFFFFFFFFFFFFFFFFBA
:10C69000FFFFFFFFFFFFFFFFFFFFDFFFFFFFDFF7F2
:10C6A000FFF7DFF7347C387C3A7C397C9363DCCE4F
:10C6B000DFFFFFFFFFFFFFFFFFFFFFFFFFFFFFFFAA
:10C6C000FFFFFFFFFFFFFFFFFFFFFFFFFFFFFFFF7A
:10C6D000FFFFFFFFFFFFFFFFFFFFFFFFFFFFFFFF6A
:10C6E000FFFFFFFFFFFFFFFFFFFFFFFFFFFFFFFF5A
:10C6F000FFFFFFFFFFFFFFFFFFFFFFFFFFFFFFFF4A
:10C70000FFFFFFFFFFFFFFFFFFFFFFFFFFFFFFFF39
:10C71000FFFFFFFFFFFFFFFFFFFFFFFFFFFFFFFF29
:10C72000FFFFFFFFFFFFFFFFFFFFFFFFFFFFFFFF19
:10C73000FFFFFFFFFFFFFFFFFFFFFFFFFFFFFFFF09
:10C74000FFFFFFFFFFFFFFFFFFFFFFFFFFFFFFFFF9
:10C75000FFFFFFFFFFFFFFFFDFFFBFF7FFFF948C2F
:10C76000545B315BFED69FEFFFFFFEFFFFFFFFFF35
:10C77000FFFFFFFFFFFFFFFFFFFFFFFFFFFFFFFFC9
:10C78000FFFFFFFFFFFFFFFFFFFFFFFFFFFFFFFFB9
:10C79000FFFFFFFFFFFFFFFFFFFFFFFFFFFFFFFFA9
:10C7A000FFFFFFFFFFFFFFFFFFFFFFFFFFFFFFFF99
:10C7B000FFFFFFFFFFFFFFFFFFFFFFFFFFFFFFFF89
:10C7C000FFFFFFFFFFFFFFFFFFFFFFFFFFFFFFFF79
:10C7D000FFFFFFFFFFFFFFFFFFFFFFFFFFFFDEF792
:10C7E000DFF71374D56B5B843A7C54637EE7FEF706
:10C7F000FEFFFEFFFEFFFFFFFFFFFFFFFFFFFFFF4C
:10C80000FFFFFFFFFFFFFFFFFFFFFFFFFFFFFFFF38
:10C81000FFFFFFFFFFFFFFFFFFFFFFFFFFFFFFFF28
:10C82000FFFFFFFFFFFFFFFFFFFFFFFFFFFFFFFF18
:10C83000FFFFFFFFFFFFFFFFFFFFFFFFFFFFFFFF08
:10C84000FFFFFFFFFFFFFFFFFFFFFFFFFFFFFFFFF8
:10C85000FFFFFFFFFFFFFFFFFFFFFFFFDFFFFFFF08
:10C86000FFFFFFFFFFFFFFFFFFFFFFFFFFFFFFFFD8
:10C87000FFFFFFFFFFFFFFFFFFFFFFFFFFFFFFFFC8
:10C88000FFFFFFFFFFFFFFFFFFFFFFFFFFFFFFFFB8
:10C89000FFFFDFFFDFFFDFF7FFFF9FEFFAB50F5B63
:10C8A0007263FED6DFF7FFFFFFFFFFFFFFFFFFFF13
:10C8B000FFFFFFFFFFFFFFFFFFFFFFFFFFFFFFFF88
:10C8C000FFFFFFFFFFFFFFFFFFFFFFFFFFFFFFFF78
:10C8D000FFFFFFFFFFFFFFFFFFFFFFFFFFFFFFFF68
:10C8E000FFFFFFFFFFFFFFFFFFFFFFFFFFFFFFFF58
:10C8F000FFFFFFFFFFFFFFFFFFFFFFFFFFFFFFFF48
:10C90000FFFFFFFFFFFFFFFFFFFFFFFFFFFFFFFF37
:10C91000FFFFFFFFFFFFFFFFDFFFDFFFDFFFBFEFD7
:10C92000147C16747984397CB56B9CCE7DE7DDF779
:10C93000FFFFFFFFFFFFFFFFFFFFFFFFFFFFFFFF07
:10C94000FFFFFFFFFFFFFFFFFFFFFFFFFFFFFFFFF7
:10C95000FFFFFFFFFFFFFFFFFFFFFFFFFFFFFFFFE7
:10C96000FFFFFFFFFFFFFFFFFFFFFFFFFFFFFFFFD7
:10C97000FFFFFFFFFFFFFFFFFFFFFFFFFFFFFFFFC7
:10C98000FFFFFFFFFFFFFFFFFFFFFFFFFFFFFFFFB7
:10C99000FFFFFFFFFFFFFFFFFFFFFFFFFFFFFFFFA7
:10C9A000DFF7FFFFFFFFFFFFFFFFFFFFFFFFFFFFBF
:10C9B000FFFFFFFFFFFFFFFFFFFFFFFFFFFFFFFF87
:10C9C000FFFFFFFFFFFFFFFFFFFFFFFFFFFFFFFF77
:10C9D000FFFFFFFFFFFFFFFFDFF77BC6305B9263C8
:10C9E000FDD6BFEFDFF7DFF7FFFFFFFFFFFFFFFF22
:10C9F000FFFFFFFFFFFFFFFFFFFFFFFFFFFFFFFF47
:10CA0000FFFFFFFFFFFFFFFFFFFFFFFFFFFFFFFF36
:10CA1000FFFFFFFFFFFFFFFFFFFFFFFFFFFFFFFF26
:10CA2000FFFFFFFFFFFFFFFFFFFFFFFFFFFFFFFF16
:10CA3000FFFFFFFFFFFFFFFFFFFFFFFFFFFFFFFF06
:10CA4000FFFFFFFFFFFFFFFFFFFFFFFFFFFFFFFFF6
:10CA5000FFFFFFFFFFFFFFFFFFFFBEF7BEF756849C
:10CA60001774597C387CF46B97A5DFF7FFFFDFFF65
:10CA7000FFF7FFFFFFFFFFFFFFFFFFFFFFFFFFFFCE
:10CA8000FFFFFFFFFFFFFFFFFFFFFFFFFFFFFFFFB6
:10CA9000FFFFFFFFFFFFFFFFFFFFFFFFFFFFFFFFA6
:10CAA000FFFFFFFFFFFFFFFFFFFFFFFFFFFFFFFF96
:10CAB000FFFFFFFFFFFFFFFFFFFFFFFFFFFFFFFF86
:10CAC000FFFFFFFFFFFFFFFFDFFFDFFFDFFFDFFFF6
:10CAD000DFFFDFFFDFFFDFFFDFFFFFF7FFF7FFF71E
:10CAE000FFF7FFFFFFFFFFFFFFFFFFFFFFF7FFF76E
:10CAF000FFF7FFF7FFF7FFF7FFF7FFF7FFF7FFFF7E
:10CB0000FFFFFFFFFFF7FFF7FFF7FFF7FFF7FFF765
:10CB1000FFFFFFFFDFF7DFF79CCE505B31533ED7BF
:10CB2000FEF7FFFFDFFFDFFFFFFFFFFFFFFFFFFF5E
:10CB3000FFFFFFFFFFFFFFFFFFFFFFFFFFFFFFFF05
:10CB4000FFFFFFFFFFFFFFFFFFFFFFFFFFFFFFFFF5
:10CB5000FFFFFFFFFFFFFFFFFFFFFFFFFFFFFFFFE5
:10CB6000FFFFFFFFFFFFFFFFFFFFFFFFFFFFFFFFD5
:10CB7000FFFFFFFFFFFFFFFFFFFFFFFFFFFFFFFFC5
:10CB8000FFFFFFFFFFFFFFFFFFFFFFFFFFFFFFFFB5
:10CB9000FFFFFFFFFFFFDEFFBEF7FFFF57A5F773A5
:10CBA0005A84187C367CD58CFEF7BDF7DFFFDFFF9B
:10CBB000FFFFFFFFFFFFFFFFFFFFFFFFFFFFFFFF85
:10CBC000FFFFFFFFFFFFFFFFFFFFFFFFFFFFFFFF75
:10CBD000FFFFFFFFFFFFFFFFFFFFFFFFFFFFFFFF65
:10CBE000FFFFFFFFFFFFFFFFFFFFFFFFFFFFFFFF55
:10CBF000FFFFFFFFFFFFFFFFFFFFFFFFFFFFFFF74D
:10CC0000FFFFFFFFFFFFFFFFFFF7DFF79EEF9EE74E
:10CC10003DDF1CDF1CD71CDF1CD7FCCE9AC639B603
:10CC200039B639B639B639B639B639B639B619B6AC
:10CC300039B63AB63AB63AB63AB63AB639B639B677
:10CC400039B639B639B659B639B63AB63AB61BAE70
:10CC50007CBEDECE1ED7FED67163B2635FD7BFE760
:10CC6000DEF7DEF7FFFFFFFFFFFFDFFFDFFFFFFF66
:10CC7000FFFFFEFFFEFFFFFFFFFFFFFFFFFFFFFFC6
:10CC8000FFFFFFFFFFFFFFFFFFFFFFFFFFFFFFFFB4
:10CC9000FFFFFFFFFFFFFFFFFFFFFFFFFFFFFFFFA4
:10CCA000FFFFFFFFFFFFFFFFFFFFFFFFFFFFFFFF94
:10CCB000FFFFFFFFFFFFFFFFFFFFFFFFFFFFFFFF84
:10CCC000FFFFFFFFFFFFFFFFFFFFFFFFFFFFFFFF74
:10CCD000FFFFFFFFFEFFFEFFFFF77CC6D56B597C11
:10CCE0001774167CD3733DE7DFFFFEFFFFFFFFFFE6
:10CCF000FFFFFFFFFFFFFFFFFFFFFFFFFFFFFFFF44
:10CD0000FFFFFFFFFFFFFFFFFFFFBEF7FFFFFFFF7C
:10CD1000FFFFFFFFFFFFFFFFFFFFFFFFFFFFFFFF23
:10CD2000FFFFDFF7DEF7DFF7DFF7FFFFDFFFFFFFD4
:10CD3000DFF79EEF9EEF9EEF1CD75DDFFCCE7ABE45
:10CD400059BEF8B5B7AD559D779D77955695779DAA
:10CD500019AED8A5D8A5F9ADF9A51AA61AA619A68F
:10CD600019A61AA61AA61AA61AA61AA61AA61AA6C4
:10CD70001AA61AA698959895989598959895778D4E
:10CD8000778D788D988D788D998D998D9A8D9A8DD6
:10CD9000BB9539853A8D735BB4631A959042535BAA
:10CDA000915B136C17955CBEFDD67EE7BFF7DFF78E
:10CDB000BFF7FEFFFEFFFEFFFFFFDFFFFFFFFFFFEE
:10CDC000DFFFFEFFFFFFFFFFFFFFFFFFFFFFFFFF94
:10CDD000FFFFFFFFFFFFFFFFFFFFFFFFFFFFFFFF63
:10CDE000FFFFFFFFFFFFFFFFFFFFFFFFFFFFFFFF53
:10CDF000FFFFFFFFFFFFFFFFFFFFFFFFFFFFFFFF43
:10CE0000FFFFFFFFFFFFFFFFFFFFFFFFFFFFFFFF32
:10CE1000FFFFFFFFFFFFFFFFBFEFD373587C397C9D
:10CE2000587CF5735BC6FFFFFFFFFEFFFFFFFFFFB0
:10CE3000FFFFFFFFFFFFFFFFFFFFFFFFFFFFFFFF02
:10CE4000FFFFFFFFFFFFFFFFFFFFFFFFFFFFFFFFF2
:10CE5000FFFFFFFFFFFFFFFFFFFFFFFFDFFFBEF74B
:10CE60003CE77DEF18BE38C69ACE59C6D7B5D7B5C0
:10CE700059C69ACEFBDEFCD6DFF7BFEFDFF7FFF730
:10CE8000DFF7DFF7FFF7FFF7FFF7FFF7DFEFFFF75A
:10CE9000FFF7FFF7FFF7FFF7FFF7FFF7FFF7FFF7E2
:10CEA000FFF7FFF7FFF7FFF7FFF7FFF7FFF7FFF7D2
:10CEB000FFF7FFF7FFF7FFF7FFF7DFEFFFEFDFE722
:10CEC000DFE7FFEFDFE73DD7FCC63AAEB8A5F79D39
:10CED000B6959795D2639363577C1453F4521553C8
:10CEE000365316531553545B325310530F4BD163C3
:10CEF0001695BDCE9FEFDFF7FFFFDFF7FFFFFEFFC9
:10CF0000FEFFFEFFFEFFFFFFFFFFFFFFFFFFFFFF34
:10CF1000FFFFFFFFFFFFFFFFFFFFFFFFFFFFFFFF21
:10CF2000FFFFFFFFFFFFFFFFFFFFFFFFFFFFFFFF11
:10CF3000FFFFFFFFFFFFFFFFFFFFFFFFFFFFFFFF01
:10CF4000FFFFFFFFFFFFFFFFFFFFFFFFFFFFFFFFF1
:10CF5000FFFFFFFFDFFFDFFFF373367C587C587C59
:10CF6000577CF373DFF7FFFFFFFFFEFFFFFFFFFFBD
:10CF7000FFFFFFFFFFFFFFFFFFFFFFFFFFFFFFFFC1
:10CF8000FFFFFFFFFFFFFFFFFFFFDFFFBEF7DFFF3A
:10CF90007DEF5DE71BDF1CDF3CE7FBDE1CDF9DEF69
:10CFA0007DEFBEF7BEF7DFF7FFFFFFFFFFFFFFFFDD
:10CFB000FFFFFFFFFFFFFFFFFFFFFFFFFFFFDFF7A9
:10CFC000FFFFFFFFFFFFFFFFFFFFFFFFFFFFFFFF71
:10CFD000FFFFFFFFFFFFFFFFFFFFFFFFFFFFFFFF61
:10CFE000FFFFFFFFFFFFFFFFFFFFFFFFFFFFFFFF51
:10CFF000FFFFFFFFFFFFFFFFFFFFFFFFFFFFFFFF41
:10D00000FFFFDEF7DEF7FFF7FFFFDFF7DFF7FFEFEA
:10D01000FFEF517412741ED79AA55684B56B125B3C
:10D02000D54AF652365335535553334B1343334396
:10D03000534B13531253B46B389DFED6FFF7FEF7D4
:10D04000DDF7FEFFFFFFFFFFFFFFFFFFFFFFFFFF1B
:10D05000FFFFFFFFFFFFFFFFFFFFFFFFFFFFFFFFE0
:10D06000FFFFFFFFFFFFFFFFFFFFFFFFFFFFFFFFD0
:10D07000FFFFFFFFFFFFFFFFFFFFFFFFFFFFFFFFC0
:10D08000FFFFFFFFFFFFFFFFFFFFFFFFFFFFFFFFB0
:10D09000FFFFDFFFDFF7FABDD373587C397C377CA5
:10D0A000B46BFDD6DFF7FFFFFFFFFFFFFFFFFFFFC2
:10D0B000FFFFFFFFFFFFFFFFFFFFFFFFFFFFFFFF80
:10D0C000FFFFFFFFFFFFDFFFBEF79EF77DEFDFFFF4
:10D0D000BEF7DFF7DFF7FFFFDFFFFFFFDFFFDFF761
:10D0E000FFFFFFFFFFFFFFFFFFFFFFFFDFFFFFFF70
:10D0F000FFFFFFFFFFFFFFFFFFFFFFFFFFFFFFFF40
:10D10000FFFFFFFFFFFFFFFFFFFFFFFFFFFFFFFF2F
:10D11000FFFFFEFFFFFFFFFFFEFFFFFFFFFFFEFF22
:10D12000FEFFFFFFFFFFFFFFFFFFFFFFFFFFFFFF10
:10D13000FFFFFFFFFFFFFFFFFEFFFEFFDFFFDFFF41
:10D14000FFFFFEFFDEFFFEFFFEFFFEFFFEFFBFEF65
:10D15000169D948C7FEFDFF7DFF7FFF7DEEF9EE79A
:10D16000BDCE9AA5156C3253134B354B364B374B0E
:10D17000374B3653365315531353525BF3733AB64A
:10D18000BFEFFFFFFFFFFFFFFEFFFEFFFFFFFFFF01
:10D19000FFFFFFFFFFFFFFFFFFFFFFFFFFFFFFFF9F
:10D1A000FFFFFFFFFFFFFFFFFFFFFFFFFFFFFFFF8F
:10D1B000FFFFFFFFFFFFFFFFFFFFFFFFFFFFFFFF7F
:10D1C000FFFFFFFFFFFFFFFFFFFFFFFFFFFFFFFF6F
:10D1D000DFFFFFFF9FEF3163167C7984397C577C3A
:10D1E000315BDFEFFFFFFEFFFFFFFFFFFFFFFEFFF3
:10D1F000FFFFFFFFFFFFFFFFFFFFFFFFFFFFFFFF3F
:10D20000FFFFFFFFFFFFFFFFFFFFFFFFFFFFFFFF2E
:10D21000FFFFFFFFFFFFFFFFFFFFFFFFFFFFFFFF1E
:10D22000FFFFFFFFFFFFFFFFFFFFFFFFFFFFFFFF0E
:10D23000FFFFFFFFFFFFFFFFFFFFFFFFFFFFFFFFFE
:10D24000FFFFFFFFFFFFFFFFFFFFFFFFFFFFFFFFEE
:10D25000FFFFFFFFFFFFFFFFFFFFFFFFFFFFFFFFDE
:10D26000FFFFFFFFFFFFFFFFFFFFFFFFFFFFFFFFCE
:10D27000FFFFFFFFFFFFFFFFFFFFFFFFFFFFFFFFBE
:10D28000FFFFFFFFFEFFFEFFDEF7FFFFBEF717A564
:10D29000D37B9FF7BFFFDFFFFEFFFDFFFDF7FDF72D
:10D2A000FEF7FEF7FFF73EDFB9A5F56B3453154BDC
:10D2B000164B364B36533653165315533453F24AE6
:10D2C00036741EDFDFFFFFFFFEFFFEFFFFFFFFFFE5
:10D2D000FFFFFFFFFFFFFFFFFFFFFFFFFFFFFFFF5E
:10D2E000FFFFFFFFFFFFFFFFFFFFFFFFFFFFFFFF4E
:10D2F000FFFFFFFFFFFFFFFFFFFFFFFFFFFFFFFF3E
:10D30000FFFFFFFFFFFFFFFFFFFFFFFFDFFFDFFF6D
:10D31000FFFFFFF75CC6B46B5884387C5874167CEA
:10D32000589DFFF7DDF7FEFFFFFFFFFFFFFFFEFF4A
:10D33000FFFFFFFFFFFFFFFFFFFFFFFFFFFFFFFFFD
:10D34000FFFFFFFFFFFFFFFFFFFFFFFFFFFFFFFFED
:10D35000FFFFFFFFFFFFFFFFFFFFFFFFFFFFFFFFDD
:10D36000FFFFFFFFFFFFFFFFFFFFFFFFFFFFFFFFCD
:10D37000FFFFFFFFFFFFFFFFFFFFFFFFFFFFFFFFBD
:10D38000FFFFFFFFFFFFFFFFFFFFFFFFFFFFFFFFAD
:10D39000FFFFFFFFFFFFFFFFFFFFFFFFFFFFFFFF9D
:10D3A000FFFFFFFFFFFFFFFFFFFFFFFFFFFFFFFF8D
:10D3B000FFFFFFFFFFFFFFFFFFFFFFFFFFFFFFFF7D
:10D3C000FFFFFFFFFFFFFFFFFFFFBEEFB7B5738C4F
:10D3D000BFFFFFFFDEFFDEFFFEFFFEFFFFFFFFFFE1
:10D3E000FEFFFEFFFEFFFEFFDFF7FFF73BBEB26B67
:10D3F00031537553F44A164B164B3753F64A1653AE
:10D40000F44AB56BFEDEDFF7FEFFFEFFFFFFFFFF16
:10D41000FFFFFFFFFFFFFFFFFFFFFFFFFFFFFFFF1C
:10D42000FFFFFFFFFFFFFFFFFFFFFFFFFFFFFFFF0C
:10D43000FFFFFFFFFFFFFFFFFFFFFFFFFFFFFFFFFC
:10D44000FFFFFFFFFFFFFFFFFFFFFFFFFFFFFFFFEC
:10D45000DEF7FFF7D2737884597C3874587CD57323
:10D46000BFEFFEF7FDFFFEFFFFFFFFFFFFFFFEFF29
:10D47000FFFFFFFFFFFFFFFFFFFFFFFFFFFFFFFFBC
:10D48000FFFFFFFFFFFFFFFFFFFFFFFFFFFFFFFFAC
:10D49000FFFFFFFFFFFFFFFFFFFFFFFFFFFFFFFF9C
:10D4A000FFFFFFFFFFFFFFFFFFFFFFFFFFFFFFFF8C
:10D4B000FFFFFFFFFFFFFFFFFFFFFFFFFFFFFFFF7C
:10D4C000FFFFFFFFFFFFFFFFFFFFFFFFFFFFFFFF6C
:10D4D000FFFFFFFFFFFFFFFFFFFFFFFFFFFFFFFF5C
:10D4E000FFFFFFFFFFFFFFFFFFFFFFFFFFFFFFFF4C
:10D4F000FFFFFFFFFFFFFFFFFFFFFFFFFFFFFFFF3C
:10D50000FFFFFFFFFFFFFFF79EEF59C6D494FFFF19
:10D51000FFFFDEFFFEFFFEFFFFFFFFFFDFFFFFFF5E
:10D52000DFFFDFFFFEFFFEFFBDF7FEFFDEF7BEF70A
:10D5300077A56F32545335531653F64A5753164B4B
:10D5400035533453F473FFF7FDF7FEFFFFFFFFFF82
:10D55000FFFFFEFFFFFFFFFFFFFFFFFFFFFFFFFFDC
:10D56000FFFFFFFFFFFFFFFFFFFFFFFFFFFFFFFFCB
:10D57000FFFFFFFFFFFFFFFFFFFFFFFFFFFFFFFFBB
:10D58000FFFFFFFFFFFFFFFFFFFFFFFFFFFFFFFFAB
:10D59000FFFF7EE7505B377C597C587C5774736B78
:10D5A000FFFFFEF7FDFFFEFFFFFFFFFFFFFFFEFF98
:10D5B000FFFFFFFFFFFFFFFFFFFFFFFFFFFFFFFF7B
:10D5C000FFFFFFFFFFFFFFFFFFFFFFFFFFFFFFFF6B
:10D5D000FFFFFFFFFFFFFFFFFFFFFFFFFFFFFFFF5B
:10D5E000FFFFFFFFFFFFFFFFFFFFFFFFFFFFFFFF4B
:10D5F000FFFFFFFFFFFFFFFFFFFFFFFFFFFFFFFF3B
:10D60000FFFFFFFFFFFFFFFFFFFFFFFFFFFFFFFF2A
:10D61000FFFFFFFFFFFFFFFFFFFFFFFFFFFFFFFF1A
:10D62000FFFFFFFFFFFFFFFFFFFFFFFFFFFFFFFF0A
:10D63000FFFFFFFFFFFFFFFFFFFFFFFFFFFFFFFFFA
:10D64000FFFFFFFFFFFFBEEF7EE7F494BFEFFFF7A2
:10D65000FFFFFFFFDEFFFEFFFFFFFFFFFFFFFFFFFC
:10D66000DFFFFFFFFFFFFEFFFEFFDEFFFFFFBFF755
:10D67000BFF7F88C32533453154B3653154B144BBC
:10D680005553F34A535B9FE7FEF7FEFFFFFFFFFF93
:10D69000FFFFFEFFFFFFFFFFFFFFFFFFFFFFFFFF9B
:10D6A000FFFFFFFFFFFFFFFFFFFFFFFFFFFFFFFF8A
:10D6B000FFFFFFFFFFFFFFFFFFFFFFFFFFFFFFFF7A
:10D6C000FFFFFFFFFFFFFFFFFFFFFFFFDFFFFFFF8A
:10D6D000FFFF5BC6B46B387C587C577C577CF37B70
:10D6E000DFF7FFFFFEFFFFFFFFFFFFFFFFFFFFFF73
:10D6F000FFFFFFFFFFFFFFFFFFFFFFFFFFFFFFFF3A
:10D70000FFFFFFFFFFFFFFFFFFFFFFFFFFFFFFFF29
:10D71000FFFFFFFFFFFFFFFFFFFFFFFFFFFFFFFF19
:10D72000FFFFFFFFFFFFFFFFFFFFFFFFFFFFFFFF09
:10D73000FFFFFFFFFFFFFFFFFFFFFFFFFFFFFFFFF9
:10D74000FFFFFFFFFFFFFFFFFFFFFFFFFFFFFFFFE9
:10D75000FFFFFFFFFFFFFFFFFFFFFFFFFFFFFFFFD9
:10D76000FFFFFFFFFFFFFFFFFFFFFFFFFFFFFFFFC9
:10D77000FFFFFFFFFFFFFFFFFFFFFFFFDFFFFFFFD9
:10D78000FFFFDFFFDFF73CE755ADBEF7DFFFFFFF31
:10D79000FFFFDFFFFFFFFFFFFFFFFFFFFFFFFFFFB9
:10D7A000FFFFFFFFFFFFFFFFFFFFFFFFDFFFFFFFA9
:10D7B000DFF79FEF335B365B164B154B7553354BDD
:10D7C000154B345351535FDFFFF7FFFFFFFFFFFFA0
:10D7D000FFFFFFFFFFFFFFFFFFFFFFFFFFFFFFFF59
:10D7E000FFFFFFFFFFFFFFFFFFFFFFFFFFFFFFFF49
:10D7F000FFFFFFFFFFFFFFFFFFFFFFFFFFFFFFFF39
:10D80000FFFFFFFFFFFFFFFFFFFFFFFFFFFFFEFF29
:10D81000FEFFFAB5F77B397C577C577C577CF37B4E
:10D82000FFFFFFFFFFFFFFFFFFFFFFFFFFFFFFFF08
:10D83000FFFFFFFFFFFFFFFFFFFFFFFFFFFFFFFFF8
:10D84000FFFFFFFFFFFFFFFFFFFFFFFFFFFFFFFFE8
:10D85000FFFFFFFFFFFFFFFFFFFFFFFFFFFFFFFFD8
:10D86000FFFFFFFFFFFFFFFFFFFFFFFFFFFFFFFFC8
:10D87000FFFFFFFFFFFFFFFFFFFFFFFFFFFFFFFFB8
:10D88000FFFFFFFFFFFFFFFFFFFFFFFFFFFFFFFFA8
:10D89000FFFFFFFFFFFFFFFFFFFFFFFFFFFFFFFF98
:10D8A000FFFFFFFFFFFFFFFFFFFFFFFFFFFFFFFF88
:10D8B000FFFFFFFFFFFFFFFFFFFFFFFFFFFFFFFF78
:10D8C000DFFFFFFF5DEFD7BDBEF7FFFFDFFFFFFF0D
:10D8D000FFFFFFFFFFFFFFFFFFFFFFFFFFFFFFFF58
:10D8E000FFFFFFFFFFFFFFFFFFFFFFFFFFFFFFFF48
:10D8F000FFF7DFF7325B1653174B354B344B144BA6
:10D90000565333533474FFF7DFF7BFFFFFFFFFFFBA
:10D91000FFFFFFFFFFFFFFFFFFFFFFFFFFFFFFFF17
:10D92000FFFFFFFFFFFFFFFFFFFFFFFFFFFFFFFF07
:10D93000FFFFFFFFFFFFFFFFFFFFFFFFFFFFFFFFF7
:10D94000FFFFFFFFFFFFFFFFFFFFFFFFFFFFFEFFE8
:10D95000FEFF98AD177C397C577C577C587CF2735E
:10D96000DFF7FFFFFEFFFFFFFFFFFFFFFFFFFFFFF0
:10D97000FFFFFFFFFFFFFFFFFFFFFFFFFFFFFFFFB7
:10D98000FFFFFFFFFFFFFFFFFFFFFFFFFFFFFFFFA7
:10D99000FFFFFFFFFFFFFFFFFFFFFFFFFFFFFFFF97
:10D9A000FFFFFFFFFFFFFFFFFFFFFFFFFFFFFFFF87
:10D9B000FFFFFFFFFFFFFFFFFFFFFFFFFFFFFFFF77
:10D9C000FFFFFFFFFFFFFFFFFFFFFFFFFFFFFFFF67
:10D9D000FFFFFFFFFFFFFFFFFFFFFFFFFFFFFFFF57
:10D9E000FFFFFFFFFFFFFFFFFFFFFFFFFFFFFFFF47
:10D9F000FFFFFFFFFFFFFFFFFFFFFFFFDFFFFFFF57
:10DA0000FFFFBEF71CE7DFFFFFFF9EF7FFFFFFFFF3
:10DA1000FFFFFFFFFFFFFFFFFFFFFFFFFFFFFFFF16
:10DA2000FFFFFFFFFFFFFFFFFFFFFFFFFFFFFFFF06
:10DA3000FEF7DFEF31531553164B354B344B545330
:10DA4000F44A525BFCCE9FEFDFF7FFFFFFFFFFFFC3
:10DA5000FFFFFFFFFFFFFFFFFFFFFFFFFFFFFFFFD6
:10DA6000FFFFFFFFFFFFFFFFFFFFFFFFFFFFFFFFC6
:10DA7000FFFFFFFFFFFFFFFFFFFFFFFFFFFFFFFFB6
:10DA8000FFFFFFFFFFFFFFFFFFFFFFFFFFFFFFFFA6
:10DA9000FFFFB9AD177C397C577C577C597CD2731A
:10DAA000FFF7FFFFFEFFFEFFFFFFFFFFFFFFFFFF90
:10DAB000FFFFFFFFFFFFFFFFFFFFFFFFFFFFFFFF76
:10DAC000FFFFFFFFFFFFFFFFFFFFFFFFFFFFFFFF66
:10DAD000FFFFFFFFFFFFFFFFFFFFFFFFFFFFFFFF56
:10DAE000FFFFFFFFFFFFFFFFFFFFFFFFFFFFFFFF46
:10DAF000FFFFFFFFFFFFFFFFFFFFFFFFFFFFFFFF36
:10DB0000FFFFFFFFFFFFFFFFFFFFFFFFFFFFFFFF25
:10DB1000FFFFFFFFFFFFFFFFFFFFFFFFFFFFFFFF15
:10DB2000FFFFFFFFFFFFFFFFFFFFFFFFFFFFFFFF05
:10DB3000FFFFFFFFFFFFFFFFFFFFFFFFDFFFFFFF15
:10DB4000DFFFFFFFFFFFFFFF7DEFFFFFDFFFFFFFB7
:10DB5000FFFFFFFFFFFFFFFFFFFFFFFFFFFFFFFFD5
:10DB6000FFFFFFFFFFFFFFFFFEFFFEFFFEFFFEFFC9
:10DB7000FEFFDCC6324BF44A164B154B135332539F
:10DB8000535BBDCEBFEFFFFFDFFFDFFFFFFFFFFFF8
:10DB9000FFFFFFFFFFFFFFFFFFFFFFFFFFFFFFFF95
:10DBA000FFFFFFFFFFFFFFFFFFFFFFFFFFFFFFFF85
:10DBB000FFFFFFFFFFFFFFFFFFFFFFFFFFFFFFFF75
:10DBC000FFFFFFFFFFFFFFFFFFFFFFFFFFFFFFFF65
:10DBD000FEF7D9B5177C397C387C587C597C916329
:10DBE000FFF7FFFFFEFFFEFFFFFFFFFFFFFFFFFF4F
:10DBF000FFFFFFFFFFFFFFFFFFFFFFFFFFFFFFFF35
:10DC0000FFFFFFFFFFFFFFFFFFFFFFFFFFFFFFFF24
:10DC1000FFFFFFFFFFFFFFFFFFFFFFFFFFFFFFFF14
:10DC2000FFFFFFFFFFFFFFFFFFFFFFFFFFFFFFFF04
:10DC3000FFFFFFFFFFFFFFFFFFFFFFFFFFFFFFFFF4
:10DC4000FFFFFFFFFFFFFFFFFFFFFFFFFFFFFFFFE4
:10DC5000FFFFFFFFFFFFFFFFFFFFFFFFFFFFFFFFD4
:10DC6000FFFFFFFFFFFFFFFFFFFFFFFFFFFFFFFFC4
:10DC7000FFFFFFFFFFFFFFFFFFFFFFFFDFFFFFFFD4
:10DC8000FFFFFFFFFFFFFFFFFFFFFFFFDFFFFFFFC4
:10DC9000FFFFFFFFFFFFFFFFFFFFFFFFFFFFFFFF94
:10DCA000FFFFFFFFFFFFFFFFFEFFFEFFFFFFFFFF86
:10DCB000BFEF935B144B365316531453325B505BD8
:10DCC0005EE7BFEFFFFFBEF7FFFFFFFFFFFFFFFFB6
:10DCD000FFFFFFFFFFFFFFFFFFFFFFFFFFFFFFFF54
:10DCE000FFFFFFFFFFFFFFFFFFFFFFFFFFFFFFFF44
