:020000040800F2
:108000009006002075860008EB810008ED810008CD
:10801000F1810008F5810008F981000800000000E6
:10802000000000000000000000000000FD810008CA
:10803000FF810008000000000182000803820008A0
:108040008F8600088F8600088F8600088F860008BC
:108050008F8600088F8600088F8600088F860008AC
:108060008F8600088F8600088F8600088F8600089C
:108070008F8600088F8600088F8600088F8600088C
:108080008F8600088F8600088F8600088F8600087C
:108090008F8600088F8600088F8600088F8600086C
:1080A0008F8600088F8600088F8600088F8600085C
:1080B0008F8600088F8600088F8600088F8600084C
:1080C0008F8600088F8600088F8600088F8600083C
:1080D0008F8600088F8600088F8600088F8600082C
:1080E0008F8600088F8600088F8600088F8600081C
:1080F0008F8600088F8600088F8600080000000029
:108100008F860008000000008F8600088F86000818
:108110008F8600088F8600088F8600088F860008EB
:108120008F8600088F8600088F8600088F860008DB
:108130008F8600088F8600088F8600088F860008CB
:108140008F8600088F8600088F8600088F860008BB
:1081500000F002F800F03AF80AA090E8000C82441F
:108160008344AAF10107DA4501D100F02FF8AFF2FC
:10817000090EBAE80F0013F0010F18BFFB1A43F005
:10818000010318477410000094100000103A24BF37
:1081900078C878C1FAD8520724BF30C830C144BF6C
:1081A00004680C60704700000023002400250026AE
:1081B000103A28BF78C1FBD8520728BF30C148BF4A
:1081C0000B6070471FB51FBD10B510BD00F0DDFF7F
:1081D0001146FFF7F7FF00F044F800F0FBFF03B48F
:1081E000FFF7F2FF03BC00F0FFFF704700BFFEE7A0
:1081F00000BFFEE700BFFEE700BFFEE77047704725
:10820000704710B500F024F810BD000008B501213A
:10821000502000F085FE0520ADF8000010208DF8FC
:10822000030003208DF8020069463F4800F0A2FADF
:108230000320ADF8000069463C4800F09BFA08BDF9
:108240003B49086000BF3A4909680029FBD17047E3
:108250003748006820B136480068401E344908603D
:1082600070474FF40041080300F056FFFFF7CEFFC0
:1082700000F070F857E001212B4800F026FB0421A4
:10828000294800F022FB0121284800F01EFB0221B2
:10829000264800F01AFB4FF47A70FFF7D1FF012156
:1082A000214800F014FB04211F4800F010FB0121BD
:1082B0001E4800F00CFB02211C4800F008FB4FF4A4
:1082C0007A70FFF7BDFF0121174800F0FEFA022186
:1082D000164800F0FCFA4FF47A70FFF7B1FF042162
:1082E000114800F0F2FA01210F4800F0F0FA4FF4C3
:1082F0007A70FFF7A5FF01210C4800F0E6FA04218F
:10830000094800F0E4FA4FF47A70FFF799FF022170
:10831000064800F0DAFA0121044800F0D8FA4FF4D8
:108320007A70FFF78DFFA6E70010014000180140AA
:108330000000002010B5002807DA0A07140E184ABA
:1083400000F00F031B1FD45403E00A07130E154A55
:10835000135410BD10B5144800684FF47A71B0FB87
:10836000F1F4601EB0F1807F01D301200FE0601EA8
:108370004FF0E02148610F214FF0FF30FFF7DAFFA7
:1083800000204FF0E021886107200861002008B13B
:1083900000BFFEE70021481EFFF7CCFF10BD000024
:1083A00018ED00E000E400E0040000200CB500201F
:1083B00001900090A348006840F48030A149086013
:1083C00000BFA048006800F4003000900198401CF5
:1083D0000190009820B90198A0F57F41FF39F0D1B4
:1083E0009848006810F4003F02D00120009001E09E
:1083F00000200090009801284BD192484068914994
:1084000048600846406848600846406840F480601C
:108410004860084640688C4908408A4948600846D8
:10842000406840F4E81048600846C06A8749084040
:108430008449C8620846C06A854908438149C862C0
:108440000846006840F08060086000BF7D48006812
:1084500010F0006FFAD07B48006840F080707949D6
:10846000086000BF7748006810F0007FFAD07548B8
:10847000406820F00300734948600846406840F0B7
:108480000200486000BF6F48406800F00C000828F8
:10849000F9D10CBD10B5FFF789FF10BD10B56948C3
:1084A000006840F001006749086008464068694973
:1084B00008406449486008460068674908406149C7
:1084C00008600846006820F480200860084640687C
:1084D000624908405B4948600846006820F0A050A7
:1084E00008600020C8624FF47F008860FFF7D2FF69
:1084F00010BD2DE9F04300220020002300250026B6
:108500000027002484460021DFF83881D8F8048051
:1085100008F00C0222B1042A09D0082A72D10DE019
:10852000DFF83C81DFF83C91C9F8008071E0DFF8AA
:108530003881DFF83091C9F800806AE0DFF8048103
:10854000D8F8048008F47010DFF8F880D8F80480B8
:1085500008F000534FEA5378C8EB081303EB904040
:108560000D2801D0801C00E00620DFF8D880D8F864
:10857000048008F4803545B9DFF8F08000FB08F886
:10858000DFF8E090C9F800803AE0DFF8B880D8F86A
:108590002C8008F48037DFF8AC80D8F82C8008F005
:1085A0000F0808F1010457B9DFF8BC80B8FBF4F8F4
:1085B00008FB00F8DFF8AC90C9F8008020E0DFF895
:1085C0008480D8F82C80C8F3031808F1010CDFF878
:1085D0007480D8F82C80C8F303210F2901D0891C9E
:1085E00000E0491DDFF88080B8FBFCF808FB01F8CB
:1085F000B8FBF4F808FB00F8DFF86890C9F80080D1
:1086000007E0FFE7DFF85880DFF85890C9F80080EE
:1086100000BF00BFDFF82C80D8F8048008F0F0021B
:108620001209DFF84C8018F80260DFF83880D8F8BB
:10863000008028FA06F8DFF82C90C9F80080BDE821
:10864000F083000000100240FFFFC0DF00F0FEFFDB
:10865000440A01000000FFE0FFFFF6FEFFFF00DF1D
:1086600000127A000400002040787D0100093D00DE
:10867000080000200948804709480047FEE7FEE758
:10868000FEE7FEE7FEE7FEE7FEE7FEE7FEE7FEE7C2
:1086900004480549054A064B704700009D840008C0
:1086A00051810008900000209006002090020020D8
:1086B0009002002010B50446E748844208D1012109
:1086C000042000F054FC0021042000F050FC46E09F
:1086D000E248844208D10121082000F048FC002132
:1086E000082000F044FC3AE0DD48844208D1012132
:1086F000102000F03CFC0021102000F038FC2EE09F
:10870000D848844208D10121202000F030FC00210B
:10871000202000F02CFC22E0D348844208D1012123
:10872000402000F024FC0021402000F020FC16E056
:10873000CE48844208D10121802000F018FC00219D
:10874000802000F014FC0AE0C948844207D10121CE
:10875000801500F00CFC0021A01500F008FC10BDF5
:1087600010B50121084600F002FC0021012000F0B4
:10877000FEFB10BD2DE9F041024600250026002039
:1087800000230024002791F803C00CF00F0591F896
:1087900003C01CF0100F03D091F802C04CEA05058D
:1087A00091F800C0BCF1000F31D0146800202BE01C
:1087B0004FF0010C0CFA00F3B1F800C00CEA03060C
:1087C0009E4220D183004FF00F0C0CFA03F7BC43FC
:1087D00005FA03FC4CEA040491F803C0BCF1280F2D
:1087E00006D14FF0010C0CFA00FCC2F814C00AE0EC
:1087F00091F803C0BCF1480F05D14FF0010C0CFA01
:1088000000FCC2F810C0401C0828D1D31460B1F895
:1088100000C0BCF1FF0F34D9546800202EE000F1F5
:10882000080C4FF0010808FA0CF3B1F800C00CEA8C
:1088300003069E4221D183004FF00F0C0CFA03F780
:10884000BC4305FA03FC4CEA040491F803C0BCF1F4
:10885000280F05D100F1080C08FA0CF8C2F81480B2
:1088600091F803C0BCF1480F07D100F1080C4FF09C
:10887000010808FA0CF8C2F81080401C0828CED372
:108880005460BDE8F0814FF6FF71018002218170D4
:108890000421C17070470246002093680B4201D04A
:1088A000012000E0002070470146886880B27047D0
:1088B00002460020D3680B4201D0012000E00020D6
:1088C00070470146C86880B27047016170474161D6
:1088D00070470AB1016100E041617047C1607047B3
:1088E0004FF480320A4382618161826182698269C8
:1088F0007047024600205F4B18684FF6807318409F
:1089000040EA021008435B4B1860704731B1594A86
:10891000126842F08002574B1A6005E0554A12680F
:1089200022F08002534B1A607047F0B50A460023CC
:1089300000240021002500F00046B6F1004F02D1CE
:108940004C4EF16901E04B4E7168C0F3034583B2B0
:1089500000F44016B6F5401F08D121F07061454E75
:10896000766826F07066434F7E6012E000F4801651
:10897000B6F5801F06D1032606FA05F4A14341F09F
:10898000706106E0460D360103FA06F6B14341F088
:10899000706122B1460D360103FA06F6314300F04C
:1089A0000046B6F1004F02D1324EF16101E0314E86
:1089B0007160F0BD10B500228B071C0F0F2303FA66
:1089C00004F204290EDA2B4B9B689343294CA360D5
:1089D00023469B688C07240F00FA04F42343254C9C
:1089E000A3602FE008290EDA224BDB689343214C69
:1089F000E3602346DB688C07240F00FA04F423436A
:108A00001C4CE3601EE00C290EDA1A4B1B699343E1
:108A1000184C236123461B698C07240F00FA04F4C9
:108A20002343144C23610DE0124B5B699343114CBB
:108A3000636123465B698C07240F00FA04F4234327
:108A40000C4C636110BD014600200A4A506820F4B6
:108A5000000008435060704700080140000C0140CE
:108A6000001001400014014000180140001C0140AA
:108A70000020014000000140FE48006840F0010075
:108A8000FC49086008464068FB490840F9494860CD
:108A900008460068F9490840F64908600846006839
:108AA00020F48020086008464068F5490840F149F4
:108AB00048600846006820F0A05008600020C862A6
:108AC0004FF47F0088607047EA49096821F4A021CB
:108AD000E84A116011460968014311607047014678
:108AE000002200234A11012A02D1E248036806E06D
:108AF000022A02D1DF48036A01E0DE48436A01F03E
:108B00001F0201209040184201D001207047002030
:108B1000FCE718B500200090002406E03120FFF7A4
:108B2000DEFF04460098401C00900098A0F57F41AD
:108B3000FF3901D0002CF1D03120FFF7D0FF08B170
:108B4000012018BD0020FCE701460020C94A10683A
:108B500020F0F80040EAC1001060704730B1C5490C
:108B6000096841F00101C34A116005E0C149096883
:108B700021F00101BF4A1160704702460020BD4B41
:108B80005868C04B184042EA01031843B94B58607B
:108B9000704730B1B749096841F08071B54A11603A
:108BA00005E0B449096821F08071B24A116070474C
:108BB00002460020AF4BD86AB34B184041EA02038B
:108BC0001843AC4BD862704701460020A94AD06ACE
:108BD00020F0F0000843D062704701460020A54A0B
:108BE000D06A20F470600843D062704730B1A14968
:108BF000096841F080619F4A116005E09D4909685C
:108C000021F080619B4A1160704701460020994A1B
:108C1000D06A20F470400843D062704730B1954963
:108C2000096841F08051934A116005E09149096853
:108C300021F080518F4A11607047014600208D4A13
:108C4000506820F00300084350607047894840682E
:108C500000F00C00704701460020864A506820F062
:108C6000F00008435060704701460020814A506878
:108C700020F4E060084350607047014600207D4AC0
:108C8000506820F460500843506070477949496843
:108C900021F44001774A516011464968014351600F
:108CA000704774494968794A1140724A51601146C7
:108CB00049680143516070476E49C96A21F4003127
:108CC0006C4AD1621146C96A0143D1627047694951
:108CD000C96A21F48021674AD1621146C96A0143F9
:108CE000D16270476349096A21F00101614A11624A
:108CF0001146096A21F0040111621146096A014313
:108D00001162704730B15B49496A41F00101594A2B
:108D1000516205E05749496A21F00101554A516203
:108D200070475449096A21F44071524A1162114650
:108D3000096A01431162704730B14E49096A41F432
:108D400000414C4A116205E04A49096A21F4004198
:108D5000484A116270472DE9F047002100220026A1
:108D60008C4600258846002789460024414B5B68D5
:108D700003F00C0121B1042905D008294DD105E0EB
:108D8000434B03604CE0434B036049E0394B5B6865
:108D900003F47012374B5B6803F00056730FC3EB9C
:108DA000031606EB92420D2A01D0921C00E0062227
:108DB000304B5B6803F4803CBCF1000F03D1364BB1
:108DC0005343036028E02B4BDB6A03F48038294BC4
:108DD000DB6A03F00F035F1CB8F1000F05D12D4BC8
:108DE000B3FBF7F35343036016E0224BDB6AC3F394
:108DF000031303F101091F4BDB6AC3F303240F2C98
:108E000001D0A41C00E0641D224BB3FBF9F36343C3
:108E1000B3FBF7F35343036002E01D4B036000BF55
:108E200000BF144B5B6803F0F00109091B4B5D5C4C
:108E30000368EB4043600F4B5B6803F4E061090A91
:108E4000174B5D5C4368EB4083600A4B5B6803F43F
:108E50006051C90A124B5D5C4368EB40C360054B2F
:108E60005B6803F08053990E024B5B68C3F3813358
:108E7000194417E0001002400000FFE0FFFFF6FE7B
:108E8000FFFF00DFFFFFC2DFF0FFFEFFFF3FFFEF4E
:108E900000127A0040787D0100093D001800002092
:108EA0002800002008292BD2DFE801F004080C1369
:108EB000171B2226C3685B08036121E0C3689B0877
:108EC00003611DE04FF0060AC368B3FBFAF30361C8
:108ED00016E0C368DB08036112E0C3685B08036146
:108EE0000EE04FF00C0AC368B3FBFAF3036107E02E
:108EF000C368DB08036103E0C3681B09036100BFAB
:108F000000BFBDE8F08729B14F4A526902434E4B7A
:108F10005A6104E04C4A526982434B4B5A61704794
:108F200029B1494A92690243474B9A6104E0464A93
:108F300092698243444B9A61704729B1424AD2698F
:108F40000243414BDA6104E03F4AD26982433E4B1F
:108F5000DA61704729B13C4A926A02433A4B9A62FD
:108F600004E0394A926A8243374B9A62704729B1CA
:108F7000354AD2680243344BDA6004E0324AD268A0
:108F80008243314BDA60704729B12F4A126902439C
:108F90002D4B1A6104E02C4A126982432A4B1A6154
:108FA000704730B12849096A41F48031264A11627C
:108FB00005E02549096A21F48031234A116270478E
:108FC00030B12149096841F400211F4A116005E0D0
:108FD0001D49096821F400211B4A116070470146B0
:108FE0000020194A506820F07060084350607047B4
:108FF00029B1154A527A0243134B5A7204E0124ABD
:10900000527A8243104B5A7270470F48406A40F0C0
:1090100080700D494862704701460B4880680842DD
:1090200001D0012070470020FCE707498872704793
:109030000549496B21F00301034A51631146496B0D
:10904000014351637047000000100240484901434A
:10905000484A1160704770B5002100220023C4788F
:10906000002C4ED0434C246804F4E064B4F5E06F67
:1090700002D100BF042326E03E4C246804F4E064DF
:10908000B4F5C06F02D1012203231CE0394C2468DF
:1090900004F4E064B4F5A06F02D10222022312E0CE
:1090A000344C246804F4E064B4F5806F02D10322E8
:1090B000012308E02F4C246804F4E064B4F5407FF9
:1090C00001D1042200234478C2F1040504FA05F119
:1090D0008478C3F104060F2535412C402143090152
:1090E000254C0678A155047804F01F050124AC40F6
:1090F00005786D114FF0E02606EB8505C5F80041B7
:1091000009E0047804F01F050124AC401B4D0678EB
:10911000761145F8264070BD194A0A400243154BA6
:109120001B1F1A60704739B1124A121D12680243A0
:10913000104B1B1D1A6006E00E4A121D1268824376
:109140000C4B1B1D1A607047042808D14FF0E0211A
:10915000096941F004014FF0E022116107E04FF08E
:10916000E021096921F004014FF0E022116170470C
:109170000000FA050CED00E000E400E080E100E012
:1091800080FFFF1F704770477047754600F028F852
:10919000AE4605006946534620F00700854618B0E4
:1091A00020B5FFF775FABDE820404FF000064FF0FC
:1091B00000074FF000084FF0000B21F00701AC460C
:1091C000ACE8C009ACE8C009ACE8C009ACE8C0092B
:1091D0008D4670470446AFF300802046FEF7FFFF40
:1091E000004870473000002001491820ABBEFEE760
:1091F00026000200704700001892000800000020BE
:10920000300000008C8100084892000830000020E7
:1092100060060000A88100080000000000F36F064F
:109220000000000000000000010203040607080916
:109230000000000000000000010203040607080906
:0892400000000000010203041C
:04000005080081511D
:00000001FF
