:020000040800F2
:10000000F80D00206501000875180008E1130008CC
:100010007118000819020008ED3D000800000000FA
:10002000000000000000000000000000411C00086B
:10003000550E000800000000091A00080D1D0008F8
:100040007F0100087F0100087F0100087F01000890
:100050007F0100087F0100087F0100087F01000880
:100060007F0100087F0100087F0100087F01000870
:100070007F0100087F0100087F0100087F01000860
:100080007F0100087F0100087F0100087F01000850
:100090001D0200087F0100087F0100087F010008A1
:1000A0007F0100087F0100087F0100087F01000830
:1000B000791D00087F0100087F0100087F0100080A
:1000C0007F0100087F0100087F0100087F01000810
:1000D0007F0100087F0100087F0100087F01000800
:1000E0007F0100087F010008811900087F010008D6
:1000F0007F0100087F0100087F0100080000000068
:100100007F010008000000007F0100087F01000857
:100110007F0100087F0100087F0100087F010008BF
:100120007F0100087F0100087F0100087F010008AF
:100130007F0100087F0100087F0100087F0100089F
:100140007F0100087F0100087F0100087119000885
:10015000DFF80CD000F020F8004800477D4100088F
:10016000F80D00200648804706480047FEE7FEE7F6
:10017000FEE7FEE7FEE7FEE7FEE7FEE7FEE7FEE757
:10018000111D000851010008421C10F8011B002934
:10019000FBD1801A70470000064C074D06E0E0686E
:1001A00040F0010394E8070098471034AC42F6D3BE
:1001B000FFF7D2FF785B0008985B000870B501EB91
:1001C000020410F8015B15F0070301D110F8013BA0
:1001D0002A1106D110F8012B03E010F8016B01F889
:1001E000016B5B1EF9D12B0705D40023521E0FD4DF
:1001F00001F8013BFAE710F8013B02F10202A1EB22
:10020000030303E013F8015B01F8015B521EF9D50B
:10021000A142D6D3002070BD00BFFEE710B500207C
:1002200012498872486008724872C8740860C872BF
:1002300000210E48017341738173C17301744174CD
:10024000817402210A4800F0B5F870B1074A002114
:10025000074800F0D1F90548007A30B90348006832
:10026000022802D1012001F0F1FA10BDA4060020FD
:100270000064004010B504460B48844209D10121B6
:10028000480601F0E3FB00214FF0007001F0DEFBB7
:1002900008E00121880601F0D9FB00214FF08060C1
:1002A00001F0D4FB10BD00000064004010B5002137
:1002B000837A012202FA03F13D4A126842F00102F8
:1002C0003B4B1A603A4A1C3212688A43384B1C3343
:1002D0001A60027BCAB9364A0C3212688A43344B20
:1002E0000C331A604288C38842EA0343304A4032E2
:1002F000847A42F834300288838842EA03432C4AE5
:100300004032847A02EBC4025360027B012A19D185
:10031000274A0C3212680A43254B0C331A60428874
:10032000038842EA0343224A4032847A42F8343056
:10033000C288838842EA03431D4A4032847A02EB32
:10034000C4025360C27A3AB9194A121D12688A432C
:10035000174B1B1D1A6006E0154A121D12680A434E
:10036000134B1B1D1A60028932B9114A14321268EC
:100370008A430F4B14331A600289012A06D10C4AB2
:10038000143212680A430A4B14331A60427B012A62
:1003900006D1074A1C3212680A43054B1C331A6007
:1003A000034A126822F00102014B1A6010BD0000DE
:1003B0000066004070B504460D460026606928427C
:1003C00071D0B5F5807F5CD010DC082D35D006DC0F
:1003D000012D20D0022D24D0042D72D127E0102D24
:1003E00031D0202D35D0402D6BD138E0B5F5004F00
:1003F00060D009DCB5F5007F49D0B5F5806F4CD0F1
:10040000B5F5006F5DD14FE0B5F5803F2DD0B5F566
:10041000003F56D12FE0A0682D4900F075F906463F
:1004200051E0E068032100F06FF906464BE0E06818
:10043000082100F069F9064645E0E068102100F067
:1004400063F906463FE02069032100F05DF90646A6
:1004500039E02069082100F057F9064633E02069A9
:10046000102100F051F906462DE06068082100F0E7
:100470004BF9064627E06068102100F045F9064672
:1004800021E0A069012100F03FF906461BE0A069C8
:10049000022100F039F9064615E0A069042100F0B8
:1004A00033F906460FE00FE0A069702100F02CF947
:1004B000064608E06068042100F026F9064602E0DE
:1004C000FFE7002600BF00E00026304670BD0000B8
:1004D000010101001AB143690B43436102E0436922
:1004E0008B434361704710B502460023106820F02B
:1004F00002001060106840F00100106000E05B1C1A
:10050000506810F0010F03D1A3F57F40FF38F6D1FA
:10051000506810F0010F01D1002010BD887901282A
:1005200004D1106840F08000106003E0106820F0F3
:1005300080001060C879012804D1106840F04000A4
:10054000106003E0106820F040001060087A012875
:1005500004D1106840F02000106003E0106820F023
:1005600020001060487A012804D1106840F0100083
:10057000106003E0106820F010001060887A0128F5
:1005800004D1106840F00800106003E0106820F00B
:1005900008001060C87A012804D1106840F00400F7
:1005A000106003E0106820F0040010608878800775
:1005B000CC7840EA04600C7940EA04404C7940EA87
:1005C00004500C88641E2043D061106820F00100A4
:1005D0001060002300E05B1C506810F0010F03D096
:1005E000A3F57F40FF38F6D1506810F0010F01D01D
:1005F000002092E7012090E710B500F5D87303EBD7
:1006000001131B6803F004031372137A53B900F546
:10061000D87303EB01131B6840F2FF7404EA5353D1
:10062000136009E000F5D87303EB01131B686FF04A
:10063000604404EAD303536000F5D87303EB01135D
:100640001B6803F00203537200F5D87303EB011328
:100650005B6803F00F03937200F5D87303EB01138B
:100660005B681B0AD37400F5D87303EB01139B6816
:10067000D37200F5D87303EB01139B681C0A147343
:1006800000F5D87303EB01139B681C0C547300F541
:10069000D87303EB01139B681B0E937300F5D8739B
:1006A00003EB0113DB68D37300F5D87303EB01137D
:1006B000DB681C0A147400F5D87303EB0113DB68C4
:1006C0001C0C547400F5D87303EB0113DB681B0E8C
:1006D000937421B9C36843F02003C36003E0036946
:1006E00043F02003036110BD00218171C1710172CB
:1006F00041728172C1728170C17003210171022146
:10070000417101210180704702460A4201D0012057
:1007100070470020FCE770B506460C46E01108D093
:1007200004F07F0000EBC00106F1180000EB81052A
:1007300005E004EBC40106F50D7000EB8105002017
:10074000A8702946304602F09DFF002070BD70B5AC
:1007500005460C46E01108D004F07F0000EBC00114
:1007600005F1180000EB810605E004EBC40105F576
:100770000D7000EB81063146284602F0C5FF0020CF
:1007800070BD2DE9F04106460D4617469846E81122
:100790000AD005F07F0000EBC00106F1180000EB65
:1007A00081042078E08005E005EBC50106F50D70B9
:1007B00000EB8104C4F80880E770022F01D100200B
:1007C00020712146304602F0EDFE0020BDE8F081A8
:1007D0002DE9F04705460E461746984606F07F0974
:1007E00009EBC90105F50D7000EB8104E760C4F861
:1007F000108000206061207820B92146284602F050
:1008000015FE03E02146284602F0ECFF0020BDE87B
:10081000F0870000034A126842EA0112014B1A6095
:10082000704700000008005070B506460C46E01105
:1008300008D004F07F0000EBC00106F1180000EBC7
:10084000810505E004EBC40106F50D7000EB8105A0
:100850000120A8702946304602F08EFF002070BDAE
:100860002DE9F04705460E461746984606F07F09E3
:1008700009EBC90105F1180000EB8104E760C4F839
:10088000108000206061207820B92146284602F0BF
:10089000CDFD03E02146284602F0A4FF0020BDE87C
:1008A000F08701464FF0A040806920F480604FF04F
:1008B000A04290614FF4806050610120704710B5F4
:1008C0000446204602F084FD204603F0FDF803288C
:1008D00002D10020A07003E00120A0704020A08081
:1008E0004FF0A040C06820F4705040F4A0504FF08A
:1008F000A041C8604FF400504861012010BD0000C5
:10090000F8B50746002000900024384603F0AAF905
:10091000054657E015F0010F52D0E1B2384603F01A
:10092000B9F90090009810F0010F13D0012000FADF
:1009300004F626480068B043244908600120234A91
:10094000D43202EB44110860E1B2214800684268E9
:1009500038469047009810F0080F05D008201B4A31
:10096000D43202EB44110860009810F0100F05D04B
:100970001020164AD43202EB44110860009810F09F
:10098000400F05D04020114AD43202EB44110860D8
:10099000009810F0020F05D002200C4AD43202EB6E
:1009A00044110860009810F0800F09D021463846A5
:1009B00000F00AFA8020054AD43202EB44110860A4
:1009C000641C6D08002DA5D10120F8BD340800502D
:1009D000B80000202DE9F04106460F463946304662
:1009E00003F094F90121B17300213174002511E065
:1009F00005EBC50106F1180000EB810401206070D1
:100A00002570E5800020E0704020A0600020E060BC
:100A100020616D1C7078A842EAD8002510E005EB33
:100A2000C50106F50D7000EB810400206070257093
:100A3000E580E0704020A0600020E06020616D1C37
:100A40007078A842EBD84FF0A040806820F00100F9
:100A50004FF0A0418860304602F049FB002130464B
:100A600003F068F9304602F06BFB4FF0A04080685D
:100A700040F001004FF0A0418860BDE8F081000027
:100A800010B5044605480068C169204688474FF400
:100A900080104FF0A0414861012010BDB800002037
:100AA00010B5044605480068016A204688474FF49F
:100AB00000104FF0A0414861012010BDB800002097
:100AC00010B504464FF0A040406810F0040F04D069
:100AD00007480068816A204688474FF0A040406878
:100AE00040F004004FF0A0414860012010BD00001C
:100AF000B80000207CB5064600240020019000903C
:100B0000304603F0BBF8054641E015F0010F3CD03C
:100B1000E1B2304603F0D6F80190019810F0010FD1
:100B20000AD001201C4A02EB44110860E1B21B48C4
:100B30000068026830469047019810F0020F04D018
:100B40000220154A02EB44110860019810F0080FCA
:100B500009D01248006881683046884708200E4A4C
:100B600002EB44110860019810F0100F04D010201F
:100B7000094A02EB44110860019810F0400F04D0BC
:100B80004020054A02EB44110860641C6D08002DEA
:100B9000BBD101207CBD0000080B0050B800002034
:100BA000F8B506460025002000904FF0A04080696F
:100BB00020F010004FF0A04188610846006A0090C4
:100BC000009800F00F0000EBC00106F50D7000EB7F
:100BD00081040098C0F3434007282BD2DFE800F0DF
:100BE0002A040515162A170025E00098C0F30A15F7
:100BF00055B1AAB23046E16803F072F8E0682844C3
:100C0000E06060692844606115E014E013E00F487B
:100C1000006840F400300D490860082206F58A613A
:100C2000304603F05DF80098C0F30A156069284467
:100C3000606100E000BF00BF4FF0A040806940F05D
:100C400010004FF0A04188610120F8BD1C08005041
:100C500010B5044605480068C1682046884708204A
:100C60004FF0A0414861012010BD0000B8000020F5
:100C700010B5044605480068416A204688474FF091
:100C800080404FF0A0414861012010BDB800002015
:100C90002DE9F0410546002600272548006820F090
:100CA0000100234908600021284602F0D9FE0024F3
:100CB00009E0FF201F4A02EB441108601E4A02EBC4
:100CC00044110860641C6878A042F2D84FF0FF30ED
:100CD0001749143108600020091D0860401E086093
:100CE0000B27134810300068B843384310491031BF
:100CF00008600B26081F0068B0433043091F0860D6
:100D00000B48001F006820F4FE600949091F0860B5
:100D1000284602F025FC4FF480504FF0A041486176
:100D2000064800680169284688470120BDE8F0812F
:100D30000408005008090050080B0050B8000020BB
:100D400010B50446054800688169204688474FF081
:100D500000404FF0A0414861012010BDB8000020C4
:100D60001CB5044600200190A07B00901348006849
:100D7000416920468847124800680190A07AB0B1C6
:100D8000019810F0010F12D09DF8000003280ED139
:100D90000C48006840F001000A49086008460068F5
:100DA00040F0020008600121084600F00BFE4FF4FD
:100DB00000604FF0A041486101201CBDB800002038
:100DC00008080050000E00502DE9F84307460E4673
:100DD0000025A8460020009006EBC60107F1180088
:100DE00000EB8104D4E90401451AA068A84200D2AE
:100DF000A568E81C4FEA9008154901EB4610006809
:100E000000901AE0D4E90401451AA068A84200D273
:100E1000A568E81C4FEA9008ABB2F2B23846E16828
:100E200002F0C6FFE0682844E06060692844606121
:100E3000074901EB461000680090009880B24045D9
:100E400003D9D4E904108842DCD30120BDE8F8833B
:100E500018090050704710B586B00446684600F087
:100E600015FE42F210710198B0FBF1F0604305905D
:100E700002E00598401E059005980028F9D106B0BB
:100E800010BD00B597B00121080200F0BFFD02209F
:100E90000790002006900520059000200490039004
:100EA00002900190012008900020149013901020CF
:100EB0001290002011900B9010900F900E904FF414
:100EC00080500D9000200C900A90099001A8159078
:100ED000169008A800F068F80121084600F002F812
:100EE00017B000BD71B3012806D002280DD0032829
:100EF00014D0042824D11AE04FF02042126842F0A6
:100F000001024FF020431A601BE04FF0204292682C
:100F100042F001024FF020439A6012E04FF020426D
:100F2000126942F001024FF020431A6109E04FF0CC
:100F30002042926942F001024FF020439A6100E0A2
:100F400000BF2EE0012806D002280DD0032814D0BF
:100F5000042824D11AE04FF020421268114B1A40A5
:100F60004FF020431A601BE04FF0204292680D4B77
:100F70001A404FF020439A6012E04FF0204212696D
:100F8000084B1A404FF020431A6109E04FF020420D
:100F90009269044B1A404FF020439A6100E000BF71
:100FA00000BF7047FEFF0F0030B500210022002374
:100FB000D0E90B542C43856A2C43456A2C43056ABF
:100FC0002C43C5692C4385692C4345692C4305692D
:100FD0002C4385682C43C5682C43456844EA0501C9
:100FE000446BA469456B6D6944EA0514456B2D6932
:100FF00044EA0524456BAD8944EA0544456B2D89D7
:1010000044EA0554456B2D7944EA0564456B2D6827
:1010100044EA0502C46A082C01D141F04001846809
:10102000B4F5804F16D1846BA469856B6D6944EA71
:101030000514856B2D6944EA0524856B2D8944EAE6
:101040000554856B2D7944EA0564856B2D6844EA67
:10105000050301E06FF070430468012C06D0022CF8
:101060000BD0032C10D0042C1CD114E04FF02044E2
:10107000216062600D4C236015E04FF02044A160B8
:10108000E2600B4C23600EE04FF02044216162616E
:10109000084C236007E04FF02044A161E261064C58
:1010A000236000E000BF00BF30BD0000040100A0CD
:1010B0000C0100A0140100A01C0100A0014908605F
:1010C000704700001404014008B500200090FFF7AD
:1010D000D8FE00F0A1F9322002F0AAFD002000F0B5
:1010E00041FB00900098A0F50941893902D100F038
:1010F000C9F900E000BF08BD38B504460D461F49D8
:1011000051F824101E4A52F82420114341F00100E6
:10111000012100F0ABFC2CB91A4951F8240001213F
:1011200000F084FC18208DF80300174830F81400F4
:10113000ADF8000003208DF80200144951F8240096
:10114000694600F02BF804208DF80300104830F8B1
:101150001400ADF800000F4951F82400694600F072
:101160001DF80D4951F82400294600F0D5FE0A4922
:1011700051F82400012100F09BFE38BD9C4300087B
:10118000A043000898430008A4430008D8010020A9
:10119000A6430008DC010020D40100202DE9F04125
:1011A000024600250026002000230024002791F895
:1011B00003C00CF00F0591F803C01CF0100F03D012
:1011C00091F802C04CEA050591F800C0BCF1000F8F
:1011D00031D0146800202BE04FF0010C0CFA00F322
:1011E000B1F800C00CEA03069E4220D183004FF004
:1011F0000F0C0CFA03F7BC4305FA03FC4CEA040499
:1012000091F803C0BCF1280F06D14FF0010C0CFA85
:1012100000FCC2F814C00AE091F803C0BCF1480F0A
:1012200005D14FF0010C0CFA00FCC2F810C0401CB4
:101230000828D1D31460B1F800C0BCF1FF0F34D935
:10124000546800202EE000F1080C4FF0010808FA65
:101250000CF3B1F800C00CEA03069E4221D18300D2
:101260004FF00F0C0CFA03F7BC4305FA03FC4CEAF1
:10127000040491F803C0BCF1280F05D100F1080C5B
:1012800008FA0CF8C2F8148091F803C0BCF1480FBA
:1012900007D100F1080C4FF0010808FA0CF8C2F869
:1012A0001080401C0828CED35460BDE8F0810000B7
:1012B000F0B50A46002300240021002500F0004676
:1012C000B6F1004F02D11D4EF16901E01B4E71686D
:1012D000C0F3034583B200F44016B6F5401F08D1B1
:1012E00021F07061154E766826F07066134F7E60AF
:1012F00012E000F48016B6F5801F06D1032606FA28
:1013000005F4A14341F0706106E0460D360103FA91
:1013100006F6B14341F0706122B1460D360103FA81
:1013200006F6314300F00046B6F1004F02D1034EFD
:10133000F16101E0014E7160F0BD0000000001406C
:1013400070B505460C4608480560204600F00EF8CA
:1013500000BF054800680028FBD100214FF0804005
:1013600000F07DFD70BD0000580000203EB5044631
:1013700000214FF0804000F072FD0022012188071B
:1013800000F089FD022C02D10B20019004E0012C19
:1013900002D142F6DF6001901048006880B2ADF8DB
:1013A00000000020ADF80800ADF8020069464FF0DB
:1013B000804000F0E5FC0121880700F04DFD01218F
:1013C000880700F03DFD01221146900700F063FD03
:1013D0000121880700F043FD3EBD000060000020B1
:1013E00005E0012000F032FA1E20FFF734FDF8E797
:1013F00030B5044600250021084600F0B8F900F099
:10140000F8F900BF03E04FF0C24004806D1CB5F551
:10141000963FF8D330BD000008B50121202000F030
:1014200025FB0121402000F021FB0121084600F0AE
:101430001DFB4CF23370ADF8000003208DF8020064
:1014400018208DF8030069460C48FFF7A7FE4FF6F9
:101450008070ADF8000069460948FFF79FFE8020C4
:10146000ADF8000069460548FFF798FE0420ADF886
:10147000000069460248FFF791FE08BD00140140D4
:101480000018014000B50121002000F0B7F94AF62C
:10149000A401032000F0B2F900210C2000F0AEF905
:1014A00040F60C010D2000F0A9F94FF42C510E204C
:1014B00000F0A4F9B0211E2000F0A0F942F63F315F
:1014C000012000F09BF94FF4C061022000F096F972
:1014D0000021102000F092F946F27001112000F076
:1014E0008DF90021052000F089F90021062000F087
:1014F00085F94EF61C71162000F080F903211720A3
:1015000000F07CF940F23321072000F077F9002148
:101510000B2000F073F900210F2000F06FF900217B
:10152000412000F06BF90021422000F067F9002112
:10153000482000F063F940F23F11492000F05EF9C5
:1015400000214A2000F05AF900214B2000F056F902
:101550004FF46F41442000F051F90021452000F084
:101560004DF940F23F11462000F048F940F2077172
:10157000302000F043F94FF40171312000F03EF9C2
:101580004FF40171322000F039F940F2025133205A
:1015900000F034F940F20751342000F02FF94FF4F5
:1015A0000171352000F02AF94FF40171362000F066
:1015B00025F940F20251372000F020F940F20231C3
:1015C0003A2000F01BF940F202313B2000F016F9FE
:1015D0000021232000F012F90021242000F00EF950
:1015E0004FF40041252000F009F900214E2000F0C1
:1015F00005F900214F2000F001F94CF2503301E0D1
:10160000581E83B2002BFBDC00BD10B50020FFF795
:10161000EFFE10BD2DE9F84305460E4617469846E5
:10162000144800881E280BDCBE20124908800020C8
:101630004FF4A073D222014600901E2000F0B8F8AB
:1016400000240DE0CDF8008015F8012BE0000A30F1
:1016500081B23B460748008800F052F8601C84B213
:10166000B442EFDB03480088143802490880BDE823
:10167000F883000080000020F8B5054600242846C5
:10168000FEF782FD06461F204FF4A0731E220021A4
:101690000090084600F08CF800BF0CE04FF4FC60AE
:1016A00000902A5DE000463081B24FF478430A2072
:1016B00000F026F8641CB442F0DBF8BDF8B505462E
:1016C00000242846FEF760FD06461F204FF4A07355
:1016D000F02200210090D22000F06AF800BF0CE058
:1016E0004FF4FC6000902A5DE000503081B24FF46E
:1016F0007843DC2000F004F8641CB442F0DBF8BD51
:101700002DE9F04F06460F4690469946DDF824B085
:1017100000240025A24600BF1EE0A8F1200004EB33
:1017200000100F4911F800A0002511E0C5F10700D5
:101730004AFA00F010F0010F08D07A1991B206F1C0
:101740000802121B90B24A4600F01DF8681C85B2D0
:10175000082DEBDB601C84B2102CDEDBBDE8F08FC3
:10176000A843000801464FF0C2421088704710B5E8
:1017700003460C4619464E2000F040F821464F2003
:1017800000F03CF810BD70B506460C461546F02E2C
:1017900002DCB4F5A07F00DD70BD21463046FFF7C6
:1017A000E6FF00F026F8284600F01FF800BFF3E738
:1017B0002DE9F04704460D4690469946DDF820A0F5
:1017C00026462F4600BF0CE02F4606E0524639461B
:1017D0003046FFF7D8FF781C87B24F45F6DB701C08
:1017E00086B24645F0DBBDE8F0874FF0C241088085
:1017F000704722204FF0C041088070474FF0C04230
:1018000010804FF0C24211807047000038B5044686
:101810000B4951F82400012100F028F9094830F85B
:101820001400ADF8000010208DF8030003208DF89F
:101830000200054951F824006946FFF7AFFC38BDA6
:101840003C4300083843000884000020064951F852
:101850002010C968054A32F810205140024A52F857
:101860002020D16070470000840000203843000829
:1018700000BFFEE77047000070B500210022002382
:10188000C478002C4ED02D4C246804F4E064B4F5E8
:10189000E06F02D100BF042326E0284C246804F442
:1018A000E064B4F5C06F02D1012203231CE0234C95
:1018B000246804F4E064B4F5A06F02D1022202238C
:1018C00012E01E4C246804F4E064B4F5806F02D189
:1018D0000322012308E0194C246804F4E064B4F501
:1018E000407F01D1042200234478C2F1040504FAA8
:1018F00005F18478C3F104060F2535412C402143BE
:1019000009010F4C0678A155047804F01F05012445
:10191000AC4005786D114FF0E02606EB8505C5F863
:10192000004109E0047804F01F050124AC40054D96
:101930000678761145F8264070BD00000CED00E0F9
:1019400000E400E080E100E002490143024A116046
:10195000704700000000FA050CED00E0024A0A4062
:101960000243024B1A60704780FFFF1F08ED00E042
:1019700010B5024801F052F810BD0000E00100204F
:1019800010B50D48807A90B10C48006820F0060030
:101990000A49086000F0BCF90948006800F042F903
:1019A0000121080300F032F8034802F0E5F94FF492
:1019B0008020FFF783FB10BDE001002010ED00E068
:1019C0005C00002010B5024600200D4B186820F086
:1019D0000300104318600B4B1B6843F00403094CD1
:1019E0002360012901D130BF02E040BF20BF20BFEA
:1019F000044B1B6823F00403024C236010BD00005D
:101A00000070004010ED00E07047000029B1064A68
:101A100052690243044B5A6104E0034A526982430B
:101A2000014B5A61704700000010024029B1064A7C
:101A3000D2690243044BDA6104E0034AD26982436B
:101A4000014BDA61704700000010024029B1064ADC
:101A500012690243044B1A6104E0034A126982438B
:101A6000014B1A61704700000010024029B1064A7C
:101A700092690243044B9A6104E0034A92698243EB
:101A8000014B9A6170470000001002402DE9F047B9
:101A90000021002200268C46002588460027894622
:101AA00000245A4B5B6803F00C0121B1042905D0D6
:101AB00008294DD105E0564B03604CE0554B0360BF
:101AC00049E0524B5B6803F47012504B5B6803F0C3
:101AD0000056730FC3EB031606EB92420D2A01D09A
:101AE000921C00E00622494B5B6803F4803CBCF189
:101AF000000F03D1484B5343036028E0434BDB6A9C
:101B000003F48038414BDB6A03F00F035F1CB8F12C
:101B1000000F05D13F4BB3FBF7F35343036016E0CF
:101B20003A4BDB6AC3F3031303F10109374BDB6A5A
:101B3000C3F303240F2C01D0A41C00E0641D354B1B
:101B4000B3FBF9F36343B3FBF7F35343036002E0E2
:101B50002F4B036000BF00BF2C4B5B6803F0F0010C
:101B600009092E4B5D5C0368EB404360274B5B68C3
:101B700003F4E061090A2A4B5D5C4368EB40836033
:101B8000224B5B6803F46051C90A254B5D5C4368D6
:101B9000EB40C3601D4B5B6803F08053990E1B4BF9
:101BA0005B68C3F38133194408292BD2DFE801F0C5
:101BB00004080C13171B2226C3685B08036121E08D
:101BC000C3689B0803611DE04FF0060AC368B3FBBE
:101BD000FAF3036116E0C368DB08036112E0C3682F
:101BE0005B0803610EE04FF00C0AC368B3FBFAF325
:101BF000036107E0C368DB08036103E0C3681B09F6
:101C0000036100BF00BFBDE8F08700000010024084
:101C100000127A00001BB70000093D00A40100205B
:101C2000B40100200549496821F44001034A51608C
:101C3000114649680143516070470000001002409E
:101C4000704710B500F002F810BD00000CB5002080
:101C5000019000902B48006840F4803029490860CA
:101C600000BF2848006800F4003000900198401C34
:101C70000190009820B90198A0F57F41FF39F0D17B
:101C80002048006810F4003F02D00120009001E0DD
:101C9000002000900098012833D11A484068194963
:101CA00048600846406848600846406840F48060E4
:101CB0004860084640681449084012494860084690
:101CC000406840F4102048600846006840F080708A
:101CD000086000BF0B48006810F0007FFAD0094888
:101CE000406820F00300074948600846406840F01B
:101CF0000200486000BF0348406800F00C0008285C
:101D0000F9D10CBD00100240FFFFC0DF704700009A
:101D100010B51548006840F00100134908600846F6
:101D20004068124908401049486008460068104958
:101D300008400D4908600846006820F480200860CB
:101D4000084640680B490840074948600846006853
:101D500020F0A05008600020C8624FF47F00886027
:101D6000FFF76FFF10BD0000001002400000FFE011
:101D7000FFFFF6FEFFFF00DF10B501F03DFF10BDD5
:101D800000220288214B984220D0214B98421DD03E
:101D9000B0F1804F1AD01F4B984217D01E4B98427B
:101DA00014D01E4B984211D01D4B98420ED01D4BA3
:101DB00098420BD01C4B984208D01C4B984205D03F
:101DC0001B4B984202D01B4B984204D14FF68F73A5
:101DD0001A404B881A43184B984202D1174B98422D
:101DE00004D04FF6FF431A400B891A4302808B88B8
:101DF00083850B880385054B984202D0044B98429B
:101E000001D18B7A0386012383827047002C014025
:101E1000003401400004004000080040000C004075
:101E2000004C0140005001400054014000180040A7
:101E3000001C004000200040001000400014004042
:101E400021B1028842F08002028004E002884FF64D
:101E50007F731A4002807047CA430282704721B1E3
:101E6000028842F00102028004E002884FF6FE730D
:101E70001A400280704710B5024600230024108AE1
:101E800000EA0103908900EA010413B10CB10120BA
:101E900010BD0020FCE71AB183890B43838102E067
:101EA00083898B4383817047C1F308028280704726
:101EB00021B1828942F40052828103E0828922F4B6
:101EC00000528281704702461088084201D00120EA
:101ED00070470020FCE7F0B50346002400250020F1
:101EE0001846C1F3421501F01F04012D01D10C3039
:101EF00004E0022D01D1103000E014302AB1066850
:101F00000127A7403E43066004E006680127A7407A
:101F1000BE430660F0BD00002DE9F04186B00546E5
:101F20000E460027B8460024A88920F40050A88156
:101F30002C8A24F44054F08804432C82AC8941F26A
:101F40000C608443B0883189084371890843044395
:101F5000AC81AC8A24F44074B0890443AC8201A8FB
:101F6000FFF794FD0C48854202D1DDF8108001E0B6
:101F7000DDF80C803068B8FBF0F73068B8FBF0F1A2
:101F800000FB11843068B4EB500F00D37F1C2F810D
:101F900006B0BDE8F08100000038014070B505468C
:101FA00026480078012846D0254800682549096858
:101FB000884200D170BD22480068224909688842E1
:101FC00006D91F480068C0F500701F49086006E088
:101FD0001C4800681A490968401A1B4908601A48D9
:101FE0000068402801D9402407E01748008884B2DF
:101FF000402C02D101201549086015481049096894
:102000004218234681212846FEF72AFC0C48006826
:1020100020440B4908600C480068001B0A4908600E
:1020200001200649087006480068B0F5007F02D11B
:1020300000200349086000BFBCE700000801002041
:1020400000010020FC00002004010020F800002016
:10205000F707002070B505460C46E088D8B1207817
:1020600010F0800F0BD0E28860780F498B680F4921
:102070009847E2880D49284600F025FA11E060787B
:102080000B490860E0880B490860E2880749284648
:1020900000F0F4F905E06078034900228B681146EE
:1020A0009847002070BD0000080000209C0100201F
:1020B0000C0100201001002070B505460E461F4897
:1020C0000078012837D11E48006888B91D4800688B
:1020D000012809D100201B49086000231A468121EC
:1020E0002846FEF7BDFB26E000201449087022E0D8
:1020F00013480068402801D9402409E010480088AE
:1021000084B20F480068402802D101200D490860C0
:102110000D480E4909684218234681212846FEF7DA
:102120009FFB0A480068204408490860044800688A
:10213000001B03490860002070BD0000080100205A
:1021400004010020F8000020F70700200001002013
:1021500070B504460D4605EBC50104F50D7000EBA6
:102160008100808A86B20748324607490369002009
:1021700098474023044A03212046FEF729FB00200C
:1021800070BD000008000020B707002070B50446AD
:102190000D4681212046FEF7DAFA03212046FEF79C
:1021A000D6FA82212046FEF7D2FA024948688047D3
:1021B000002070BD0800002010B504460A480068E1
:1021C000FF280ED0094909888AB2074908780849CA
:1021D0008B6808499847FF2003490860002003499D
:1021E0000860002010BD00000C010020100100203C
:1021F000080000209C01002002464320088001487E
:1022000070470000540100202DE9F04105460C46BE
:102210003A260B4F60882121B1EB202F08D1E088AE
:102220003A2801DD3A2000E0E0880646044F0937ED
:1022300032463946284600F046F90020BDE8F081D4
:102240005D01002070B504460D460122024920467A
:1022500000F039F9002070BDF400002070B504468C
:102260000D464023022281212046FEF78AFA4023B0
:10227000022203212046FEF784FA0823032282214A
:102280002046FEF77EFA0648016800208847402372
:10229000044A03212046FEF79BFA002070BD00008F
:1022A00008000020B707002010B504460748016861
:1022B0000068401C054A1060052905D10020114620
:1022C00008602046FFF76AFE002010BD980100203C
:1022D00070B505460C46A078012803DAA0780449B9
:1022E000086003E02146284600F0A9F8002070BDF0
:1022F000F400002070B504460D46D4F86804294661
:10230000426820469047002070BD70B504460D46D7
:102310000026287810F0030004D001282BD00228D2
:1023200068D13EE0A07B022802D003281CD100E047
:1023300000BF688801280FD100216161D4F86804CA
:10234000C06928B1D4F868042946C269204690477C
:10235000204600F0A8F806E06888022803D1294644
:10236000204600F06CF804E02946204600F067F8AB
:1023700000BF00BF43E0607B022802D003280DD1DC
:1023800004E02946204600F05AF808E028790128A0
:1023900003DD2946204600F052F800E000BF00BFF0
:1023A0002DE02E79A07B022802D003281FD107E060
:1023B0002EB1802E03D031462046FEF735FA17E0C5
:1023C000688880B97EB1802E0DD031462046FEF758
:1023D000A2F9D4F86804C06928B1D4F86804294681
:1023E000C26920469047204600F05DF800E000BF3B
:1023F00000BF04E02946204600F021F800BF00BFDE
:1024000070BD2DE9F04106460C46154600272B46C7
:10241000224600213046FEF7DBF93846BDE8F08160
:102420002DE9F04106460C46154600272B4622466C
:1024300000213046FEF714FA3846BDE8F08170B549
:1024400004460D4680212046FEF7EEF90021204685
:10245000FEF7EAF9204601F083F870BD70B5044636
:1024600000250521617300231A4619462046FEF710
:10247000AFF9204601F074F8284670BD2DE9F0410F
:1024800004460E4615460027C4F85052C4F84C5274
:10249000032161732B46324600212046FEF798F94E
:1024A0003846BDE8F08170B504460025042161730B
:1024B00000231A4619462046FEF7D2F9204601F0BD
:1024C0004FF8284670BD2DE9F04104460E461546EA
:1024D000002765632563022161732B463246002184
:1024E0002046FEF7BDF93846BDE8F08170B50546D7
:1024F0000E46002E42D105F11804687B022834D123
:10250000A168A06988420AD9A168A069401AA0619F
:10251000208B82B22846E168FFF782FF25E0A168A0
:10252000E069B0FBF1F201FB120078B9A168E06943
:1025300088420BD3D4E90701884207D20022114612
:102540002846FFF76DFF002020620EE0D5F86804F2
:10255000006A38B1A87B032804D1D5F86804016A61
:10256000284688472846FFF779FFA87C012812D122
:10257000284600F00FFB0021A9740CE0D5F8680490
:10258000806A40B1A87B032805D1D5F8680431469C
:10259000826A28469047002070BD70B505460E46F9
:1025A0004EBB05F50D74687B032831D1A168A06985
:1025B000884210D9A168A069401AA061A368A069E7
:1025C000984201D2A06900E0A06882B22846E16882
:1025D000FFF717FF1CE0D5F86804406A38B1A87B04
:1025E000032804D1D5F86804416A2846884728465C
:1025F000FFF759FF0CE0D5F86804C06A40B1A87B2A
:10260000032805D1D5F868043146C26A28469047A8
:10261000002070BD01460020704770B504460D468D
:102620000026A07B032819D12879012811DCD4F8D1
:102630006804C06830B1D4F868042946C2682046EE
:1026400090470646E88840B93EB92046FFF72BFF81
:1026500003E029462046FFF7F2FE04E02946204623
:10266000FFF7EDFE00BF00BF304670BD10B5044659
:10267000D4F86C144869804701216174002010BDB2
:1026800010B50446D4F86C1488698047D4F86804FF
:10269000002142682046904700216174002010BD4F
:1026A00038B504460D4600200090E888012804D083
:1026B00029462046FFF7C3FE18E0A07B022802D07F
:1026C00003280DD105E0012269462046FFF7FBFEF5
:1026D0000BE0012204F10C012046FFF7F4FE04E0B8
:1026E00029462046FFF7ABFE00BF00BF38BDF8B556
:1026F00004460E46307810F0030F71D17088001236
:10270000082868D2DFE800F06704161E67675D627C
:10271000A078D4F870140A68694690470546F08896
:10272000402802D0A07B012801D108200090C4F8E5
:10273000745456E0A078D4F86814CA6B6946904780
:1027400005464EE0B078062834D2DFE800F0030BEF
:10275000131B232BA078D4F870144A68694690475D
:1027600005462CE0A078D4F870148A686946904732
:10277000054624E0A078D4F87014CA6869469047EA
:1027800005461CE0A078D4F870140A6969469047A1
:10279000054614E0A078D4F870144A696946904759
:1027A00005460CE0A078D4F870148A696946904711
:1027B000054604E031462046FFF741FEF8BD00BF64
:1027C0000FE031462046FFF73AFEF7E73146204654
:1027D000FFF735FEF2E731462046FFF730FEEDE722
:1027E00016E000BFBDF8000088B1F08878B1F0882D
:1027F000BDF80010884202DDBDF8000000E0F0885E
:102800000090BDF8002029462046FFF75CFE0EE050
:10281000307800F00300012809D1D4F868048068FA
:1028200028B1D4F86804314682682046904700BF3A
:10283000C4E770B504460D46A07B022802D00328E9
:1028400018D104E029462046FFF7F9FD13E0287966
:1028500001280ADCD4F86804006950B1D4F868048F
:10286000294602692046904703E029462046FFF7A3
:10287000E6FD00E000BF00BF70BD7CB504460E461B
:10288000002001900090307810F0030004D001285F
:102890001FD002286CD138E0A07B022802D0032888
:1028A00010D100E000BF01200190606920B1BDF8A7
:1028B000040040F002000190022201A92046FFF727
:1028C00002FE04E031462046FFF7B9FD00BF00BF1D
:1028D00053E0A07B022802D0032813D104E0314644
:1028E0002046FFF7ACFD0EE03079012805DC02221E
:1028F00001A92046FFF7E7FD03E031462046FFF738
:102900009EFD00E000BF00BF37E03579A07B0228C4
:1029100002D0032829D107E02DB1802D03D029460C
:102920002046FDF781FF21E005F0800080280CD1D2
:1029300005F07F0000EBC00104F1180000EB8100FE
:10294000807860B10120009009E005EBC50104F535
:102950000D7000EB8100807808B101200090022208
:1029600069462046FFF7AFFD00E000BF00BF04E06E
:1029700031462046FFF763FD00BF00BF7CBD70B548
:1029800013460122B0B103261446551CEAB20E5577
:102990000AE010F8016B1446551CEAB20E550026E9
:1029A0001446551CEAB20E550478002CF1D11A8059
:1029B0001C780C7070BD2DE9F04104460F46154699
:1029C0001E46DDF81880204601F0AEF82046FFF7DD
:1029D00021FEC4F86864C4F86C84C4F870543946A5
:1029E0002046FDF7F7FFD4F86C14086880472046AE
:1029F00001F084F8BDE8F08110B50446D4F868040D
:102A0000416B20468847002010BD10B50446D4F81D
:102A10006804816B20468847002010BD70B50646CB
:102A200000250024304601F011F900286CD04FF049
:102A3000A04040694FF0A041896900EA01040CB947
:102A4000002070BD14F4002F03D03046FEF752F87A
:102A5000054314F4802F03D03046FDF751FF0543A2
:102A600014F0020F03D002204FF0A041486114F48B
:102A7000806F03D03046FDF714FF054314F4006F58
:102A800003D03046FEF76CF9054314F0004F03D035
:102A90003046FEF755F9054314F0080F03D03046D1
:102AA000FEF7D6F8054314F0100F03D03046FEF7BA
:102AB00077F8054314F4805F03D03046FEF7E8F85A
:102AC000054314F4005F03D03046FDF7F8FE0543DC
:102AD00014F4801F03D03046FDF7D2FF054314F4F1
:102AE000001F03D03046FDF7DBFF054314F0804F95
:102AF00003D03046FEF7BCF8054314F0040F03D0B2
:102B00003046FDF7DDFF054328469AE790F850244C
:102B10000A7090F851244A7090F8523490F8532477
:102B200003EB02224A8090F8543490F8552403EBCA
:102B300002228A8090F8563490F8572403EB022240
:102B4000CA80CB888363012343737047704710B5F5
:102B500004464023002211462046FDF712FE402382
:102B6000002280212046FDF70CFE0121A173A078F0
:102B7000D4F86C2451688847002010BD10B5044675
:102B8000D4F86C1408698047E17BA1730321A17319
:102B9000002010BD01460020704710B50446D4F84F
:102BA0006804006B20B1D4F86804016B20468847A4
:102BB000002010BD70B504460D46A888D8B9E88835
:102BC000C8B9A87800F07F06A07B032804D1294665
:102BD0002046FFF734FC12E0267431462046FDF70C
:102BE00019FE2046FFF75FFC16B10221A17306E033
:102BF0000121A17303E029462046FFF720FC70BDA8
:102C000070B504460D46D4F868042946026820468B
:102C10009047D4F86C1488688047002070BD00008D
:102C200070B504460D46A8782B4908700846007810
:102C3000012804DD29462046FFF701FC4AE0A07B7D
:102C4000022802D003283FD114E02348007868B15D
:102C50002148007820730321A1731F480178204682
:102C6000FFF7CEFF2046FFF71EFC02E02046FFF7ED
:102C70001AFC2EE01848007868B90221A1731648A2
:102C800000782073144801782046FFF733FB204674
:102C9000FFF709FC17E0207B0F49097888420FD025
:102CA000217B2046FFF726FB0B48007820730A485B
:102CB00001782046FFF7A4FF2046FFF7F4FB02E06F
:102CC0002046FFF7F0FB04E029462046FFF7B7FB5C
:102CD00000BF00BF70BD0000F00000207047000082
:102CE000F8B504460D4600260027287810F060004D
:102CF00004D001283CD0022879D14FE0A07B0228E3
:102D000002D0032831D100E000BF688801280FD12C
:102D100001216161D4F86804806928B1D4F868049D
:102D200029468269204690472046FFF7BCFB1BE0FE
:102D30006888022818D12879B0B930480068009016
:102D4000A8880712062F09D2DFE807F00803040558
:102D5000060703E002E001E000E000BF00BF012140
:102D6000A1742046FFF79FFB00E000BF00BF43E0D7
:102D7000607B022802D003280DD104E029462046BA
:102D8000FFF75DFB08E02879012803DD294620468E
:102D9000FFF755FB00E000BF00BF2DE0A07B02283D
:102DA00002D0032820D107E02EB1802E03D0314677
:102DB0002046FDF739FD18E0688830B92EB1802E25
:102DC00003D031462046FDF72FFDD4F86804806912
:102DD00028B1D4F8680429468269204690472046E5
:102DE000FFF761FB01E002E000BF00BF04E02946FD
:102DF0002046FFF724FB00BF00BFF8BD04080050C9
:102E000070B504460D46A07B022802D0032818D1D5
:102E100004E029462046FFF712FB13E02879012839
:102E20000ADCD4F86804406950B1D4F86804294633
:102E300042692046904703E029462046FFF7FFFA03
:102E400000E000BF00BF70BD1CB5044669462046C7
:102E5000FFF75CFE9DF8000010F0600004D0202811
:102E600007D040280FD109E06946204600F016F847
:102E700011E069462046FFF7D0FB0CE0694620468A
:102E800000F032F907E09DF8000000F080012046D4
:102E9000FDF7CAFC00BF00BF00201CBD70B5054691
:102EA0000C466078034951F8202021462846904777
:102EB000002070BDBC00002010B50446A17BE1736A
:102EC0000421A173D4F86C14C8688047002010BD99
:102ED0007047000070B504460D4634B1012C04D192
:102EE0002A46034903A0FFF74AFD014870BD0000D0
:102EF000B80600205669727475616C20436F6D507E
:102F00006F727420436F6E6669670000024612207C
:102F100008800148704700003800002010B50023E9
:102F20004FF6FF7218210248FEF774FB10BD000037
:102F30006D42000810B500234FF6FF7217210248BA
:102F4000FEF768FB10BD00008642000810B50023A4
:102F50004FF6FF721A210248FEF75CFB10BD00001D
:102F60009E42000810B5FEF7AFF8FEF74EFB07488B
:102F7000FEF7A4FB00234FF6FF721D210448FEF765
:102F800049FB0448FEF778FB10BD0000E041000853
:102F900002430008F641000810B5044614B1012CA4
:102FA00008D103E00648FEF767FB07E00548FEF797
:102FB00063FB03E00448FEF75FFB00BF00BF10BDEA
:102FC000104200082F4200084E42000810B50023AE
:102FD0004FF6FF721A210248FEF71CFB10BD0000DD
:102FE000D742000810B500234FF6FF721D2102489A
:102FF000FEF710FB10BD0000B942000870B5044692
:103000000D4634B1012C04D12A46034903A0FFF731
:10301000B6FC014870BD0000B80600205669727405
:1030200075616C20436F6D506F727420496E7465CA
:103030007266616365000000024604200880014852
:10304000704700005400002070B505460C4622462B
:10305000024903A0FFF793FC004870BDB8060020AA
:1030600047443332204D6963726F656C65637472D7
:103070006F6E69637300000070B504460D4634B18D
:10308000012C04D12A46034903A0FFF778FC01482C
:1030900070BD0000B80600204744333220566972E4
:1030A0007475616C20436F6D506F727420696E206F
:1030B0004653204D6F64650070B504460D4634B12B
:1030C000012C04D12A46034903A0FFF758FC01480C
:1030D00070BD0000B8060020303030303030303065
:1030E000303232420000000002460020704770B5C6
:1030F00004460025204600F037F94FF0A040806BD1
:1031000040F480304FF0A04188630846806B40F463
:10311000802088630846806B40F40020886308465E
:10312000806820F080008860607A20B10846806B5B
:1031300040F480108863142000F07AFD284670BDAA
:103140002DE9F04106460027002580480068002050
:103150007E4908607E48006820F4C0507C490860C1
:10316000F07A012851D10846006820F00300C01C05
:1031700008604FF0A040406A6FF30F0040F08000FD
:103180004FF0A04148620846806A80B240F40010C7
:1031900088620846806A6FF30F0040F08000886202
:1031A000802520356B48006880B240F40000C1F8EB
:1031B0000401684800686FF30F0040EA0500C1F899
:1031C000040105F180056448006880B240F40010F5
:1031D000C1F80801604800686FF30F0040EA05007D
:1031E0005D49086005F120054FF0A040D0F80C01C2
:1031F00080B24FF0A041C1F80C01584800686FF34D
:103200000F0040EA0500C1F80C014FF010013046F4
:1032100000F026FC304600F001FC4D4810300068FC
:1032200000204B4910310860081D00680020091D6E
:103230000860081D00684FF0FF30091D0860081D78
:1032400000680020091D0860002438E0444901EBB3
:103250004410006810F0004F12D001EB44100068D9
:1032600040F080400A4602EB44110860114601EB31
:103270004410006840F0006002EB4411086008E070
:10328000374901EB4410006800200A4602EB441164
:1032900008603349103101EB4410006800200A46F1
:1032A00002EB441108602E49083101EB441000681C
:1032B00040F0FF000A4602EB44110860641C70787D
:1032C000A042C3D8002438E0264901EB441000682E
:1032D00010F0004F12D001EB4410006840F0804025
:1032E0000A4602EB44110860114601EB44100068E5
:1032F00040F0006002EB4411086008E0184901EB5F
:103300004410006800200A4602EB44110860154989
:10331000103101EB4410006800200A4602EB441112
:1033200008601049083101EB4410006840F0FF00CC
:103330000A4602EB44110860641C7078A042C3D8AE
:10334000304600F047FB3846BDE8F081000E0050E3
:103350000008005004010050080100500C0100500A
:1033600000090050000B005070B5064600250024EF
:1033700000BF032000F063FC601C04461349884230
:1033800001D9002070BD4FF0A040006910F0004F3F
:10339000EFD04FF0A040006940F001004FF0A04195
:1033A0000861002400BF601C04460849884200D917
:1033B00005E04FF0A040006910F0010FF3D100BF0D
:1033C000032000F03CFC2846DCE70000400D030031
:1033D00008B50146002000220092134A12680092AC
:1033E000114AF83A1268C2F3410232B1012A05D0FB
:1033F000022A07D0032A0AD101E000BF00BF009AC9
:10340000009204E0009A42F00302009200BF00BF65
:10341000054B009A1A60044AFC3A126842F4807222
:10342000014BFC3B1A6008BD000900507CB5044606
:10343000002000220023019300934B78012B4AD1F6
:10344000454B1B680193444B10331B6800930B6979
:1034500023B9009B23F07F03009316E08D680B696E
:10346000AB420AD98B680B61009B23F07F0300936A
:103470008B68009D2B43009307E0009B23F07F03A4
:1034800000930B69009D2B430093009B23F4C01312
:103490000093009B43F4002300932F4D1035009BB5
:1034A0002B60019B43F080630193019B43F0004339
:1034B0000193294D019B2B600B69002B4AD00D789D
:1034C0000123AB401A43244BCC3B1B681343224DD2
:1034D000CC3D2B603EE00B78204D05EB43131B6881
:1034E00001930B781D4D103505EB43131B680093BA
:1034F0000B6943B9009B23F07F0300938B68009D09
:103500002B43009309E08B680B61009B23F07F0342
:1035100000938B68009D2B430093009B23F40023B2
:103520000093009B43F4002300930D780B4E10365C
:1035300006EB4515009B2B60019B43F080630193D4
:10354000019B43F0004301930D78044E06EB4515B3
:10355000019B2B607CBD000000090050000B005057
:1035600008B500210091009921F07F010091009998
:1035700041F018010091009921F400210091009977
:1035800041F400210091009921F0C041009100997F
:1035900041F0C0410091024A0099116008BD00004D
:1035A000100B00503CB5034600200022019200920F
:1035B0004A78012A2BD10C78A240019C2243019227
:1035C0000A782E4C04EB421212680092009A12F410
:1035D000004F49D18A68009C22430092CA78009C1F
:1035E00044EA82420092CA88009C44EA82520092D5
:1035F000009A42F080520092009A42F400420092F7
:103600000C781E4D05EB4414009A22602CE00C78D7
:103610000122A240019C44EA024201920A78184C1D
:1036200004EB421212680092009A12F4004F1BD170
:103630008A68009C22430092CA78009C44EA824235
:103640000092CA88009C44EA82520092009A42F09A
:1036500080520092009A42F4004200920C78084D89
:1036600005EB4414009A2260044AE43A1268019C73
:103670002243024CE43C22603CBD000000090050A3
:10368000000B005038B502460020002300934B7811
:10369000012B1AD10B781A4C04EB43131B680093CF
:1036A000009B23F400130093CB78032B02D0CB783C
:1036B000022B03D1009B43F0805300930C78104DF4
:1036C00005EB4414009B236019E00B780D4C04EBD0
:1036D00043131B680093009B23F400130093CB78E3
:1036E000032B02D0CB78022B03D1009B43F08053F5
:1036F00000930C78034D05EB4414009B236038BD08
:1037000000090050000B00503CB503460020002289
:10371000019200924A78012A0FD10C78A240019CB4
:1037200022430192009A22F4004200920C78104D3C
:1037300005EB4414009A226010E00C780122A240AC
:10374000019C44EA02420192009A22F40042009253
:103750000C78084D05EB4414009A2260044AE43AC0
:103760001268019CA243024CE43C22603CBD000074
:1037700000090050000B005038B50246002000231D
:1037800000934B78012B18D10B78144C04EB4313A6
:103790001B680093009B13F0004F03D0009B43F085
:1037A00080430093009B43F4001300930C780B4D6F
:1037B00005EB4414009B23600FE00B78084C04EBEE
:1037C00043131B680093009B43F4001300930C7891
:1037D000034D05EB4414009B236038BD00090050E5
:1037E000000B0050FCB505460C46002600270020C3
:1037F000019000906078012877D120786B4901EB27
:1038000040100068019020786849103101EB4010A9
:1038100000680090206960B900986FF31200009072
:103820006349009808400090009840F40020009000
:1038300016E000986FF31200009020690099084389
:1038400000905B490098084000902069401EA168E4
:103850000844B0FBF1F0009941EAC040009000BF7D
:103860002178524A103202EB411100980860E0784A
:10387000012810D14D48F8380068C0F30D2010F031
:10388000010F04D1019840F00050019003E001982D
:1038900040F080500190019840F0806001900198C4
:1038A00040F0004001902178404A02EB411101981C
:1038B0000860E07801280CD0206950B121780120FF
:1038C00000FA01F73948CC38006838433749CC3919
:1038D0000860E078012866D1208A83B222782846E1
:1038E000E16800F065FA5EE0FFE72078314901EB1E
:1038F00040100068019020782E49103101EB4010F3
:1039000000680090206980B900986FF31200009061
:10391000A06800990843009025490098084000904D
:10392000009840F4002000901AE0214900980840D7
:103930000090A068401E21690844A168B0FBF1F026
:10394000009941EAC040009000986FF31200009087
:10395000A0680099C1F3C941484300990843009009
:103960002178144A103202EB411100980860E07887
:1039700001280AD1607920B1019840F000500190EF
:1039800003E0019840F080500190019840F0806081
:103990000190019840F0004001902178054A02EB27
:1039A0004111019808603046FCBD0000000900503C
:1039B000FFFF07E0000B00504FF0FF314FF0A04237
:1039C00051606FF080415161014991617047000081
:1039D0000008008070B50546002600244FF0A04086
:1039E000806900204FF0A04188616FF080404861FD
:1039F0002846FFF7E1FF1024064804430648044325
:103A00004FF0A0408069A04320434FF0A04188615F
:103A1000304670BD083C3C000400004070B50646CE
:103A2000002400254FF0A040006940F010004FF046
:103A3000A041086100BF681C05460849884200D9BA
:103A400005E04FF0A040006910F0100FF3D100BF67
:103A5000032000F0F4F8204670BD0000400D030084
:103A60002DE9F04107460C46002500264FF0A04006
:103A7000006920F4F86040EA84104FF0A04108612A
:103A80000846006940F02000086100BF701C06462F
:103A90000849884200D905E04FF0A040006910F0C5
:103AA000200FF3D100BF032000F0C9F82846BDE87D
:103AB000F0810000400D030001464FF0A040406936
:103AC00000F0010070470000014600200A4A126819
:103AD000C2F3410232B1012A06D0022A07D0032ADA
:103AE00007D102E0032004E000BF022001E0012032
:103AF00000BF00BF704700000808005038B50446FA
:103B00004FF4A060FDF720FF43208DF80000022055
:103B10008DF8010000208DF8020001208DF80300CF
:103B20006846FDF7A9FE38BD10B586B0044601A869
:103B3000FDF7ACFF1C490198884207D14FF4800083
:103B40001A49086003201A49086021E019490198C0
:103B5000884206D1002015490860052014490860F4
:103B600016E015490198884207D14FF440000F49EB
:103B7000086007200E4908600AE010490198884251
:103B800006D14FF40000094908600920084908607F
:103B900006480068FEF746F801210803FDF736FFE6
:103BA00000F00EF806B010BD006CDC025C000020D6
:103BB0006000002000A24A0400D8B805000E2707C4
:103BC00008B500214FF00060FDF7C8FE4FF4A0607B
:103BD000FDF7BAFE1C208DF8000001208DF80100D1
:103BE0008DF802008DF803006846FDF745FE0121BF
:103BF0000846FDF71BFF08BD10B501218807FEF739
:103C00003AF988B101218807FEF726F907480068CC
:103C100028B106480068401E0449086004E00021FD
:103C20004FF08040FEF71BF910BD00005800002047
:103C300010B5044601212046FDF782FB10BD10B5EA
:103C4000044602212046FDF77BFB10BD00B502466D
:103C50001046FFF731FF012801D0012000BD0020F0
:103C6000FCE70000014604480068034A121D126880
:103C7000104080B270470000180800500146044808
:103C80000068034A121D12681040000C70470000C3
:103C90001808005030B50446002300220848026886
:103CA00007482430036823FA01F000F0010042EADB
:103CB000C012034DF83505EB41100068104030BDCF
:103CC000100800500246044B03EB41100068034B00
:103CD0001B68184070470000080B00501408005083
:103CE000F0B506460023D01CC71700EB9777BC1031
:103CF000054D00BF03E0286808605B1C091DA34256
:103D0000F9D30846F0BD0000001000500246002024
:103D1000012393704023938001290AD10123D37298
:103D200008231370042353704FF4A073D38002232D
:103D30001372704770B506460C460025012C0AD157
:103D40004FF0A040C06820F0804040F000504FF09D
:103D5000A041C8600AE04CB94FF0A040C06820F014
:103D6000005040F080404FF0A041C8603220FFF783
:103D70005FFF284670BD000008B5817A99B10A49F5
:103D8000096811F0010F0DD00849096800910099E8
:103D900021F002010091009921F001010091034AF4
:103DA0000099116000BF08BD08080050000E0050C7
:103DB0002DE9F0418446002700250024D81C4FEA55
:103DC000E07800EB98784FEAA805DFF81C8008EB54
:103DD000023600BF03E008683060641C091DAC4275
:103DE000F9D33846BDE8F0810010005000BFFEE76F
:103DF00070B50446012C5FD13048C588068930482B
:103E0000007920B1012806D002280ED108E0002058
:103E10002A49C8800BE04FF440502849C88006E08A
:103E20004FF400502549C88001E0022070BD00BF5A
:103E30002348407920B1012806D002280ED108E09D
:103E400000201E4908810DE04FF480601B49088165
:103E500008E04FF4C0601949088103E01749CD809C
:103E60000220E3E700BF16488079072802D008281F
:103E700010D103E000201149888010E00F4800892C
:103E800018B900200D49888003E04FF480500B4999
:103E9000888004E009490E81CD800220C6E700BF7A
:103EA0000748006805490860002088810C20488187
:103EB0000020FDF721F900BF0020B7E76C060020C5
:103EC0000000002070B505460C461646042D15D09E
:103ED00007DC7DB1012D0ED0022D0DD0032D3FD179
:103EE0000BE0202D0BD0212D1FD0222D36D0232DDD
:103EF00036D134E035E034E033E032E031E02078B0
:103F0000617840EA0120A17840EA0140E17840EA86
:103F10000160154908602079087160794871A079BD
:103F200088710120FFF764FF1BE00F4800782070C4
:103F30000D480088000A60700B480068000CA070F3
:103F400009480068000EE0700748007920710648B3
:103F50004079607104488079A07102E001E000E0DE
:103F600000BF00BF002070BD000000202DE9F0411F
:103F700004460E46174600250FE0715D094A52F8C7
:103F80002400FDF791FF00BF064951F8240080216D
:103F9000FDF799FF0028F7D06D1CBD42EDD300203E
:103FA000BDE8F081D401002030B502460B46002167
:103FB0000BE0505C0B4C0C4D2D6860550A480068B6
:103FC000401C094C2060481CC1B29942F1DB0648F4
:103FD0000068B0F5007F02D10020034C2060002073
:103FE00030BD0000F7070020FC00002000207047D3
:103FF00038B504461CBB4FF4E1301249086000207C
:104000008880C880088188810C2048810020FDF7C5
:1040100073F8012240F225510B48FDF75CFF262082
:104020008DF8000000208DF801008DF802000120BD
:104030008DF803006846FDF71FFC002038BD022004
:10404000FCE700006C0600200044004002E008C8C5
:10405000121F08C1002AFAD170477047002001E002
:1040600001C1121F002AFBD17047000000B589B0C2
:1040700001210846FDF7FAFC01210820FDF7F6FCB6
:1040800001214806FDF7D2FC4FF48070ADF8200006
:1040900048208DF8230003208DF8220008A9354818
:1040A000FDF77CF84FF40070ADF8200018208DF873
:1040B000230003208DF8220008A92E48FDF76EF892
:1040C00001214FF4EA10FDF7F3F82B48FCF7D2F882
:1040D00005A8FCF709FB00208DF81A008DF81B00DD
:1040E0008DF81C0001208DF81D0000208DF81E00A9
:1040F0008DF81F008DF816008DF8170009208DF837
:10410000180004208DF819000520ADF8140005A949
:104110001948FCF7E8F901208DF80E0000208DF811
:104120000F0001208DF810000020ADF80400ADF85C
:104130000600ADF80800ADF80A00ADF80C0001204B
:104140008DF8110001A8FCF7B1F8012202210A48FC
:10415000FCF7C0F914208DF8000000208DF8010054
:104160008DF8020001208DF803006846FDF784FBFE
:1041700009B000BD000C01400064004008B51348C0
:10418000FDF784FC1248134B134A01210090134899
:10419000FEF711FCFFF76AFF0020FDF737FB012057
:1041A000FDF734FB0120FDF751FB0020FDF74EFB2E
:1041B0003220FCF750FE0120FDF748FB0020FDF700
:1041C00045FB3220FCF747FE00BFFEE75806002003
:1041D00064000020140100201C000020E0010020E9
:1041E000555342204F5447204653204344432044D4
:1041F0006576696365005553422044657669636559
:10420000204C6962726172792076312E302E300036
:1042100055534220446576696365204C696272613A
:1042200072792076312E302E30205B48535D005558
:10423000534220446576696365204C6962726172FD
:10424000792076312E302E30205B46535D00555359
:104250004220446576696365204C696272617279B7
:104260002076312E302E30205B3F3F5D003E2043D4
:10427000444320496E74657266616365207374619E
:10428000727465642E003E20555342204465766961
:10429000636520436F6E6E65637465642E003E2017
:1042A0005553422044657669636520446973636FA2
:1042B0006E6E65637465642E003E20555342204443
:1042C000657669636520696E2053757370656E64E9
:1042D000204D6F64652E003E205553422044657684
:1042E00069636520696E2049646C65204D6F646563
:1042F0002E003E20446576696365206661756C74A6
:104300002E003E2055534220446576696365206C3B
:1043100069627261727920737461727465642E00CF
:104320003E20446576696365206E6F7420737570F6
:10433000706F727465642E0020001000040000008D
:1043400004000000010000200040010000200040A7
:10435000040000001000000008000000040000003D
:1043600010000000080000000100002000400100D3
:1043700000200040000002000100000002000100D7
:1043800000000D000E0000000D000E0006002800C9
:104390002800060028002800000002000400000099
:1043A00004000000040008000000000000000000FD
:1043B00000000000000000000000183C3C3C181801
:1043C000180018180000000000666666240000004F
:1043D00000000000000000000000006C6CFE6C6C2F
:1043E0006CFE6C6C0000000018187CC6C2C07C0615
:1043F00086C67C181800000000000000C2C60C1819
:104400003060C686000000000000386C6C3876DC36
:10441000CCCCCC76000000000030303060000000D2
:10442000000000000000000000000C1830303030A8
:104430003030180C00000000000030180C0C0C0C80
:104440000C0C1830000000000000000000663CFF6B
:104450003C66000000000000000000000018187E0C
:10446000181800000000000000000000000000001C
:10447000001818183000000000000000000000FEC6
:10448000000000000000000000000000000000002C
:1044900000001818000000000000000002060C18C0
:1044A0003060C0800000000000007CC6C6CED6D6BA
:1044B000E6C6C67C000000000000183878181818FE
:1044C0001818187E0000000000007CC6060C18308A
:1044D00060C0C6FE0000000000007CC606063C0668
:1044E0000606C67C0000000000000C1C3C6CCCFEE4
:1044F0000C0C0C1E000000000000FEC0C0C0FC0E32
:104500000606C67C0000000000003860C0C0FCC683
:10451000C6C6C67C000000000000FEC606060C18D9
:10452000303030300000000000007CC6C6C67CC6BB
:10453000C6C6C67C0000000000007CC6C6C67E065B
:1045400006060C78000000000000000018180000AB
:1045500000181800000000000000000018180000FB
:104560000018183000000000000000060C18306031
:1045700030180C0600000000000000000000FE00E3
:1045800000FE0000000000000000006030180C0673
:104590000C1830600000000000007CC6C60C181823
:1045A00018001818000000000000007CC6C6DEDEFF
:1045B000DEDCC07C00000000000010386CC6C6FEC7
:1045C000C6C6C6C6000000000000FC6666667C66C3
:1045D000666666FC0000000000003C66C2C0C0C009
:1045E000C0C2663C000000000000F86C66666666AB
:1045F00066666CF8000000000000FE66626878687D
:10460000606266FE000000000000FE666268786876
:10461000606060F00000000000003C66C2C0C0DEC8
:10462000C6C6663A000000000000C6C6C6C6FEC682
:10463000C6C6C6C60000000000003C1818181818AE
:104640001818183C0000000000001E0C0C0C0C0C8C
:10465000CCCCCC78000000000000E6666C6C78786A
:104660006C6666E6000000000000F060606060605C
:10467000606266FE000000000000C6EEFEFED6C6C8
:10468000C6C6C6C6000000000000C6E6F6FEDECEC6
:10469000C6C6C6C6000000000000386CC6C6C6C646
:1046A000C6C66C38000000000000FC6666667C60D0
:1046B000606060F00000000000007CC6C6C6C6C690
:1046C000C6D6DE7C0C0E00000000FC6666667C6CC4
:1046D000666666E60000000000007CC6C660380C16
:1046E00006C6C67C0000000000007E7E5A1818181E
:1046F0001818183C000000000000C6C6C6C6C6C692
:10470000C6C6C67C000000000000C6C6C6C6C6C637
:10471000C66C3810000000000000C6C6C6C6C6D66B
:10472000D6FE6C6C000000000000C6C66C6C383809
:104730006C6CC6C6000000000000666666663C1829
:104740001818183C000000000000FEC6860C183047
:1047500060C2C6FE0000000000003C303030303047
:104760003030303C0000000000000080C0E07038B5
:104770001C0E06020000000000003C0C0C0C0C0C8F
:104780000C0C0C3C0000000010386CC6000000004F
:104790000000000000000000000000000000000019
:1047A0000000000000FF0000303018000000000092
:1047B00000000000000000000000000000780C7CF9
:1047C000CCCCCC76000000000000E06060786C6625
:1047D000666666DC0000000000000000007CC6C0C9
:1047E000C0C0C67C0000000000001C0C0C3C6CCC5F
:1047F000CCCCCC760000000000000000007CC6FE9F
:10480000C0C0C67C000000000000386C6460F0602E
:10481000606060F000000000000000000076CCCC7A
:10482000CCCCCC7C0CCC78000000E060606C766670
:10483000666666E6000000000000181800381818C8
:104840001818183C0000000000000606000E0606BE
:104850000606060666663C000000E06060666C784E
:10486000786C66E600000000000038181818181868
:104870001818183C000000000000000000ECFED6F4
:10488000D6D6D6D6000000000000000000DC666628
:10489000666666660000000000000000007CC6C678
:1048A000C6C6C67C000000000000000000DC666692
:1048B0006666667C6060F000000000000076CCCC8C
:1048C000CCCCCC7C0C0C1E000000000000DC76621E
:1048D000606060F00000000000000000007CC66026
:1048E000380CC67C000000000000103030FC303076
:1048F0003030361C000000000000000000CCCCCCA2
:10490000CCCCCC760000000000000000006666669B
:1049100066663C18000000000000000000C6C6C625
:10492000D6D6FE6C000000000000000000C66C3807
:1049300038386CC6000000000000000000C6C6C683
:10494000C6C6C67E060CF8000000000000FECC18AB
:104950003060C6FE0000000000000E181818701825
:104960001818180E00000000000018181818001879
:1049700018181818000000000000701818180E18F9
:104980001818187000000000000076DC000000001D
:1049900000000000000000000000000010386CC69D
:1049A000C6C6FE000000000000000000000000007D
:1049B00000000000000000000000000000000000F7
:1049C00000000000000000000000000000000000E7
:1049D0000000000000000000000080018001800154
:1049E00080018001800180018001800180018001BF
:1049F00080018001000000008001800100000000B3
:104A0000000000000000000000000000CC00CC000E
:104A1000CC00CC00CC00CC00000000000000000066
:104A20000000000000000000000000000000000086
:104A30000000000000000000000000000000000076
:104A400000000000600C600C600C30063006FE1F99
:104A5000FE1F300638071803FE1FFE1F1803180339
:104A60008C018C018C01000000008000E003F80F35
:104A70009C0E8C1C8C188C009800F801E007800EAE
:104A8000801C8C188C189C18B80CF00FE003800068
:104A900080000000000000000000000000000E1870
:104AA0001B0C110C11061106110311039B018E0141
:104AB000C038C06C60446044304430441844186CC2
:104AC0000C380000000000000000E001F00338078F
:104AD000180618063003F001F000F8009C310E3380
:104AE000061E061C061C063FFC73F0210000000099
:104AF0000000000000000000000000000C000C009E
:104B00000C000C000C000C00000000000000000075
:104B10000000000000000000000000000000000095
:104B200000000000000000000000000200038001FF
:104B3000C000C00060006000300030003000300075
:104B4000300030003000300060006000C000C00065
:104B50008001000300020000000020006000C0008F
:104B60008001800100030003000600060006000625
:104B70000006000600060006000300038001800115
:104B8000C0006000200000000000000000000000E5
:104B900000000000C000C000D806F807E0013003A4
:104BA00038070000000000000000000000000000C6
:104BB00000000000000000000000000000000000F5
:104BC0000000000080018001800180018001FC3F25
:104BD000FC3F800180018001800180010000000015
:104BE00000000000000000000000000000000000C5
:104BF00000000000000000000000000000000000B5
:104C000000000000000000000000800180010001A1
:104C10000001800000000000000000000000000013
:104C20000000000000000000000000000000000084
:104C3000E007E007000000000000000000000000A6
:104C40000000000000000000000000000000000064
:104C50000000000000000000000000000000000054
:104C600000000000000000000000C000C0000000C4
:104C700000000000000000000000000C000C000616
:104C8000000600060003000300038003800180018A
:104C90008001C000C000C000600060000000000093
:104CA00000000000000000000000E003F007380EE4
:104CB000180C0C180C180C180C180C180C180C18D4
:104CC0000C180C18180C380EF007E0030000000058
:104CD0000000000000000000000000018001C00191
:104CE000F00198018801800180018001800180012C
:104CF00080018001800180018001800100000000AE
:104D000000000000000000000000E003F80F180C95
:104D10000C180C1800180018000C00060003800185
:104D2000C000600030001800FC1FFC1F00000000E5
:104D300000000000000000000000E001F807180E6D
:104D40000C0C0C0C000C0006C003C007000C001873
:104D500000180C180C18180CF807E00300000000ED
:104D600000000000000000000000000C000E000F1A
:104D7000000F800DC00C600C600C300C180C0C0C7B
:104D8000FC3FFC3F000C000C000C000C000000007D
:104D900000000000000000000000F80FF80F1800ED
:104DA00018000C00EC03FC071C0E001C0018001877
:104DB00000180C181C0C180EF807E0030000000087
:104DC00000000000000000000000C007F00F381CC9
:104DD000181818000C00CC03EC0F3C0E1C1C0C180F
:104DE0000C180C18181C380EF007E0030000000027
:104DF00000000000000000000000FC1FFC1F000C71
:104E000000060006000380038001C001C000E0002E
:104E100060006000700030003000300000000000D2
:104E200000000000000000000000E003F007380E62
:104E3000180C180C180C3806F007F007180C0C1892
:104E40000C180C180C18380CF80FE00300000000C8
:104E500000000000000000000000E003F007380E32
:104E60001C0C0C180C180C181C1C381EF81BE01914
:104E70000018000C000C1C0EF807F00100000000E8
:104E80000000000000000000000000000000000022
:104E90000000000080018001000000000000000010
:104EA0000000000000000000800180010000000000
:104EB00000000000000000000000000000000000F2
:104EC00000000000800180010000000000000000E0
:104ED00000000000000000008001800100010001CE
:104EE0008000000000000000000000000000000042
:104EF00000000000000000000010001C800FE00314
:104F0000F8001800F800E003800F001C00100000FB
:104F10000000000000000000000000000000000091
:104F20000000000000000000F81F0000000000006A
:104F3000F81F00000000000000000000000000005A
:104F40000000000000000000000000000000000061
:104F5000000000000000000008003800F001C00759
:104F6000001F0018001FC007F001380008000000F3
:104F700000000000000000000000E003F80F180C23
:104F80000C180C180018000C000600038001C0006B
:104F9000C000C00000000000C000C0000000000011
:104FA000000000000000000000000000E0071818EA
:104FB0000420C229224A114409440944094409220F
:104FC0001113E20C024004201818E0070000000052
:104FD0000000000000000000000080038003C00605
:104FE000C006C006600C600C301830183018F83F4E
:104FF000F83F1C700C600C6006C006C0000000008A
:1050000000000000000000000000FC03FC0F0C0C7E
:105010000C180C180C180C0CFC07FC0F0C180C309E
:105020000C300C300C300C18FC1FFC07000000008A
:1050300000000000000000000000C007F01F38382A
:105040001C300C7006600600060006000600060014
:10505000060006600C701C30F01FE0070000000026
:1050600000000000000000000000FE03FE0F060E1E
:1050700006180618063006300630063006300630B0
:10508000063006180618060EFE0FFE03000000008C
:1050900000000000000000000000FC3FFC3F0C008E
:1050A0000C000C000C000C00FC1FFC1F0C000C0082
:1050B0000C000C000C000C00FC3FFC3F000000004A
:1050C00000000000000000000000F83FF83F18005A
:1050D0001800180018001800F81FF81F1800180012
:1050E0001800180018001800180018000000000030
:1050F00000000000000000000000E00FF83F3C78D6
:105100000E6006E007C00300030003FE03FE03C0B9
:1051100007C006C00EC03CF0F83FE00F00000000E2
:10512000000000000000000000000C300C300C30CB
:105130000C300C300C300C30FC3FFC3F0C300C3091
:105140000C300C300C300C300C300C3000000000F7
:1051500000000000000000000000800180018001CC
:105160008001800180018001800180018001800137
:105170008001800180018001800180010000000029
:10518000000000000000000000000006000600060D
:1051900000060006000600060006000600060006DF
:1051A0000006180618063807F003E00100000000AA
:1051B0000000000000000000000006300618060C89
:1051C000060606038601C60066007600DE008E0134
:1051D00006030606060C06180630066000000000EE
:1051E0000000000000000000000018001800180077
:1051F00018001800180018001800180018001800EF
:105200001800180018001800F81FF81F0000000010
:10521000000000000000000000000EE01EF01EF084
:105220001EF036D836D836D836D866CC66CC66CCA2
:10523000C6C6C6C6C6C6C6C686C386C300000000AC
:10524000000000000000000000000C301C303C306A
:105250003C306C306C30CC30CC308C310C330C3377
:105260000C360C360C3C0C3C0C380C3000000000AA
:1052700000000000000000000000E007F81F1C38DC
:105280000E70066003C003C003C003C003C003C0A8
:1052900003C006600E701C38F81FE0070000000015
:1052A00000000000000000000000FC0FFC1F0C3894
:1052B0000C300C300C300C300C18FC1FFC070C00B0
:1052C0000C000C000C000C000C000C000000000096
:1052D00000000000000000000000E007F81F1C387C
:1052E0000E70066003E003C003C003C003C003C028
:1052F00007E006630E3F1C3CF83FE0F700C00000EB
:1053000000000000000000000000FE0FFE1F063835
:105310000630063006300638FE1FFE070603060676
:10532000060C06180618063006300660000000005D
:1053300000000000000000000000E003F80F1C0C5B
:105340000C180C180C001C00F803E00F001E0038AD
:10535000063006300E301C1CF80FE007000000007D
:1053600000000000000000000000FE7FFE7F8001C2
:105370008001800180018001800180018001800125
:105380008001800180018001800180010000000017
:10539000000000000000000000000C300C300C3059
:1053A0000C300C300C300C300C300C300C300C301D
:1053B0000C300C300C301818F81FE007000000000B
:1053C000000000000000000000000360063006300E
:1053D00006300C180C180C18180C180C380E300667
:1053E0003006700760036003C001C00100000000C8
:1053F000000000000000000000000360C361C36102
:10540000C3616633663366336633663366336C1B5B
:105410006C1B6C1B2C1A3C1E380E380E0000000052
:10542000000000000000000000000FE00C701830C9
:105430003018700C600EC00780038003C003E006C4
:10544000700C301C18180C300E6007E000000000D3
:105450000000000000000000000003C006600C30E7
:105460001C383818300C6006E007C003800180014A
:105470008001800180018001800180010000000026
:1054800000000000000000000000FC7FFC7F0060C6
:1054900000300018000C000600038001C00060000E
:1054A000300018000C000600FE7FFE7F00000000A8
:1054B00000000000000000000000E003E0036000C6
:1054C00060006000600060006000600060006000DC
:1054D00060006000600060006000600060006000CC
:1054E0006000E003E00300000000300030006000D6
:1054F00060006000C000C000C000C00180018001E9
:105500008001000300030003000600060000000005
:1055100000000000000000000000E003E0030003C2
:105520000003000300030003000300030003000363
:105530000003000300030003000300030003000353
:105540000003E003E003000000000000C001C00110
:1055500060036003600330063006180C180C00006E
:10556000000000000000000000000000000000003B
:10557000000000000000000000000000000000002B
:10558000000000000000000000000000000000001B
:1055900000000000000000000000FFFFFFFF00000F
:1055A000000000000000000000000C000C000C00D7
:1055B0000C000C000C0000000000000000000000C7
:1055C00000000000000000000000000000000000DB
:1055D00000000000000000000000000000000000CB
:1055E00000000000F003F8071C0C0C0C000FF00F7B
:1055F000F80C0C0C0C0C1C0FF80FF018000000003D
:105600000000000000000000000018001800180052
:1056100018001800D803F80F380C181818181818A4
:10562000181818181818380CF80FD80300000000C4
:10563000000000000000000000000000000000006A
:1056400000000000C003F007300E180C180018000E
:1056500018001800180C300EF007C00300000000FE
:1056600000000000000000000000001800180018F2
:1056700000180018C01BF01F301C18181818181834
:10568000181818181818301CF01FC01B0000000054
:10569000000000000000000000000000000000000A
:1056A00000000000C003F00F300C1818F81FF81F9E
:1056B000180018003818301CF00FC0070000000058
:1056C00000000000000000000000800FC00FC000BC
:1056D000C000C000F007F007C000C000C000C0005C
:1056E000C000C000C000C000C000C000000000003A
:1056F00000000000000000000000000000000000AA
:1057000000000000E00DF80F180E0C0C0C0C0C0C37
:105710000C0C0C0C0C0C180EF80FE00D000C0C0C03
:105720001C06F807F001000000001800180018001F
:1057300018001800D807F80F381C1818181818186F
:105740001818181818181818181818180000000039
:1057500000000000000000000000C000C0000000C9
:1057600000000000C000C000C000C000C000C000B9
:10577000C000C000C000C000C000C00000000000A9
:1057800000000000000000000000C000C000000099
:1057900000000000C000C000C000C000C000C00089
:1057A000C000C000C000C000C000C000C000C000F9
:1057B000C000F8007800000000000C000C000C0095
:1057C0000C000C000C0C0C060C038C01CC006C00C3
:1057D000FC009C018C030C030C060C0C0000000068
:1057E00000000000000000000000C000C000C00079
:1057F000C000C000C000C000C000C000C000C000A9
:10580000C000C000C000C000C000C0000000000018
:105810000000000000000000000000000000000088
:10582000000000007C3CFF7EC7E383C183C183C1CD
:1058300083C183C183C183C183C183C100000000D0
:105840000000000000000000000000000000000058
:10585000000000009807F80F381C181818181818BE
:105860001818181818181818181818180000000018
:105870000000000000000000000000000000000028
:1058800000000000C003F00F300C1818181818188A
:10589000181818181818300CF00FC003000000007A
:1058A00000000000000000000000000000000000F8
:1058B00000000000D803F80F380C18181818181832
:1058C000181818181818380CF80FD80318001800F2
:1058D0001800180018000000000000000000000080
:1058E00000000000C01BF01F301C181818181818F2
:1058F000181818181818301CF01FC01B00180018B2
:10590000001800180018000000000000000000004F
:1059100000000000B007F0037000300030003000DD
:105920003000300030003000300030000000000057
:105930000000000000000000000000000000000067
:1059400000000000E003F003380E180C3800F003EC
:10595000C007000C180C380EF007E0030000000030
:105960000000000000000000000000008000C000F7
:10597000C000C000F007F007C000C000C000C000B9
:10598000C000C000C000C000C007800700000000C9
:105990000000000000000000000000000000000007
:1059A00000000000181818181818181818181818D7
:1059B000181818181818381CF01FE01900000000FB
:1059C00000000000000000000000000000000000D7
:1059D000000000000C18180C180C180C30063006CB
:1059E0003006600360036003C001C00100000000D6
:1059F00000000000000000000000000000000000A7
:105A000000000000C141C141C3616363636363631C
:105A10003636363636361C1C1C1C1C1C000000009A
:105A20000000000000000000000000000000000076
:105A3000000000001C38381C300C60066003600356
:105A4000600360036006300C381C1C380000000046
:105A50000000000000000000000000000000000046
:105A6000000000001830301830187018600C600CFE
:105A7000E00CC006C0068003800380038001800123
:105A8000C001F000700000000000000000000000F5
:105A900000000000FC1FFC1F000C0006000380013A
:105AA000C000600030001800FC1FFC1F0000000058
:105AB0000000000000000000000000038001C000A2
:105AC000C000C000C000C000C00060006000300026
:105AD00060004000C000C000C000C000C000C000A6
